{
  "contractName": "GOTDeathPool",
  "abi": [
    {
      "constant": true,
      "inputs": [
        {
          "name": "",
          "type": "address"
        }
      ],
      "name": "predictions",
      "outputs": [
        {
          "name": "isValid",
          "type": "bool"
        },
        {
          "name": "firstToDie",
          "type": "uint8"
        },
        {
          "name": "firstToDieAfterFirstEpisode",
          "type": "uint8"
        },
        {
          "name": "lastToDie",
          "type": "uint8"
        },
        {
          "name": "lastOnThrone",
          "type": "uint8"
        }
      ],
      "payable": false,
      "stateMutability": "view",
      "type": "function"
    },
    {
      "constant": true,
      "inputs": [],
      "name": "_secondPlace",
      "outputs": [
        {
          "name": "",
          "type": "address"
        }
      ],
      "payable": false,
      "stateMutability": "view",
      "type": "function"
    },
    {
      "constant": true,
      "inputs": [
        {
          "name": "",
          "type": "address"
        }
      ],
      "name": "names",
      "outputs": [
        {
          "name": "",
          "type": "string"
        }
      ],
      "payable": false,
      "stateMutability": "view",
      "type": "function"
    },
    {
      "constant": true,
      "inputs": [],
      "name": "_completedBalance",
      "outputs": [
        {
          "name": "",
          "type": "uint256"
        }
      ],
      "payable": false,
      "stateMutability": "view",
      "type": "function"
    },
    {
      "constant": false,
      "inputs": [],
      "name": "renounceOwnership",
      "outputs": [],
      "payable": false,
      "stateMutability": "nonpayable",
      "type": "function"
    },
    {
      "constant": true,
      "inputs": [],
      "name": "_canDisperse",
      "outputs": [
        {
          "name": "",
          "type": "bool"
        }
      ],
      "payable": false,
      "stateMutability": "view",
      "type": "function"
    },
    {
      "constant": true,
      "inputs": [],
      "name": "TruthContract",
      "outputs": [
        {
          "name": "",
          "type": "address"
        }
      ],
      "payable": false,
      "stateMutability": "view",
      "type": "function"
    },
    {
      "constant": true,
      "inputs": [],
      "name": "_open",
      "outputs": [
        {
          "name": "",
          "type": "bool"
        }
      ],
      "payable": false,
      "stateMutability": "view",
      "type": "function"
    },
    {
      "constant": true,
      "inputs": [],
      "name": "_fourthPlace",
      "outputs": [
        {
          "name": "",
          "type": "address"
        }
      ],
      "payable": false,
      "stateMutability": "view",
      "type": "function"
    },
    {
      "constant": true,
      "inputs": [],
      "name": "owner",
      "outputs": [
        {
          "name": "",
          "type": "address"
        }
      ],
      "payable": false,
      "stateMutability": "view",
      "type": "function"
    },
    {
      "constant": true,
      "inputs": [],
      "name": "_skipsFirstEpisode",
      "outputs": [
        {
          "name": "",
          "type": "bool"
        }
      ],
      "payable": false,
      "stateMutability": "view",
      "type": "function"
    },
    {
      "constant": true,
      "inputs": [],
      "name": "isOwner",
      "outputs": [
        {
          "name": "",
          "type": "bool"
        }
      ],
      "payable": false,
      "stateMutability": "view",
      "type": "function"
    },
    {
      "constant": true,
      "inputs": [],
      "name": "_firstPlace",
      "outputs": [
        {
          "name": "",
          "type": "address"
        }
      ],
      "payable": false,
      "stateMutability": "view",
      "type": "function"
    },
    {
      "constant": true,
      "inputs": [],
      "name": "_thirdPlace",
      "outputs": [
        {
          "name": "",
          "type": "address"
        }
      ],
      "payable": false,
      "stateMutability": "view",
      "type": "function"
    },
    {
      "constant": true,
      "inputs": [],
      "name": "_canClaim",
      "outputs": [
        {
          "name": "",
          "type": "bool"
        }
      ],
      "payable": false,
      "stateMutability": "view",
      "type": "function"
    },
    {
      "constant": false,
      "inputs": [
        {
          "name": "newOwner",
          "type": "address"
        }
      ],
      "name": "transferOwnership",
      "outputs": [],
      "payable": false,
      "stateMutability": "nonpayable",
      "type": "function"
    },
    {
      "constant": true,
      "inputs": [],
      "name": "_fifthPlace",
      "outputs": [
        {
          "name": "",
          "type": "address"
        }
      ],
      "payable": false,
      "stateMutability": "view",
      "type": "function"
    },
    {
      "inputs": [
        {
          "name": "truth",
          "type": "address"
        },
        {
          "name": "token",
          "type": "address"
        },
        {
          "name": "stakeRequired",
          "type": "uint256"
        },
        {
          "name": "canDisperse",
          "type": "bool"
        },
        {
          "name": "skipsFirstEpisode",
          "type": "bool"
        }
      ],
      "payable": false,
      "stateMutability": "nonpayable",
      "type": "constructor"
    },
    {
      "anonymous": false,
      "inputs": [
        {
          "indexed": true,
          "name": "previousOwner",
          "type": "address"
        },
        {
          "indexed": true,
          "name": "newOwner",
          "type": "address"
        }
      ],
      "name": "OwnershipTransferred",
      "type": "event"
    },
    {
      "constant": false,
      "inputs": [
        {
          "name": "amount",
          "type": "uint256"
        }
      ],
      "name": "setStakeAmount",
      "outputs": [],
      "payable": false,
      "stateMutability": "nonpayable",
      "type": "function"
    },
    {
      "constant": true,
      "inputs": [],
      "name": "requiredStake",
      "outputs": [
        {
          "name": "",
          "type": "uint256"
        }
      ],
      "payable": false,
      "stateMutability": "view",
      "type": "function"
    },
    {
      "constant": true,
      "inputs": [],
      "name": "requiredToken",
      "outputs": [
        {
          "name": "",
          "type": "address"
        }
      ],
      "payable": false,
      "stateMutability": "view",
      "type": "function"
    },
    {
      "constant": true,
      "inputs": [],
      "name": "ownerCanDisperseFunds",
      "outputs": [
        {
          "name": "",
          "type": "bool"
        }
      ],
      "payable": false,
      "stateMutability": "view",
      "type": "function"
    },
    {
      "constant": true,
      "inputs": [
        {
          "name": "a",
          "type": "address"
        }
      ],
      "name": "getName",
      "outputs": [
        {
          "name": "",
          "type": "string"
        }
      ],
      "payable": false,
      "stateMutability": "view",
      "type": "function"
    },
    {
      "constant": true,
      "inputs": [],
      "name": "tokenAddress",
      "outputs": [
        {
          "name": "",
          "type": "address"
        }
      ],
      "payable": false,
      "stateMutability": "view",
      "type": "function"
    },
    {
      "constant": true,
      "inputs": [],
      "name": "havePredicted",
      "outputs": [
        {
          "name": "",
          "type": "bool"
        }
      ],
      "payable": false,
      "stateMutability": "view",
      "type": "function"
    },
    {
      "constant": true,
      "inputs": [],
      "name": "haveStaked",
      "outputs": [
        {
          "name": "",
          "type": "bool"
        }
      ],
      "payable": false,
      "stateMutability": "view",
      "type": "function"
    },
    {
      "constant": false,
      "inputs": [],
      "name": "open",
      "outputs": [],
      "payable": false,
      "stateMutability": "nonpayable",
      "type": "function"
    },
    {
      "constant": false,
      "inputs": [],
      "name": "close",
      "outputs": [],
      "payable": false,
      "stateMutability": "nonpayable",
      "type": "function"
    },
    {
      "constant": false,
      "inputs": [
        {
          "name": "dies",
          "type": "bool[30]"
        },
        {
          "name": "deathEpisode",
          "type": "uint8[30]"
        },
        {
          "name": "firstToDie",
          "type": "uint8"
        },
        {
          "name": "lastToDie",
          "type": "uint8"
        },
        {
          "name": "lastOnThrone",
          "type": "uint8"
        },
        {
          "name": "name",
          "type": "string"
        }
      ],
      "name": "predict",
      "outputs": [],
      "payable": false,
      "stateMutability": "nonpayable",
      "type": "function"
    },
    {
      "constant": false,
      "inputs": [],
      "name": "stake",
      "outputs": [],
      "payable": false,
      "stateMutability": "nonpayable",
      "type": "function"
    },
    {
      "constant": false,
      "inputs": [],
      "name": "withdraw",
      "outputs": [],
      "payable": false,
      "stateMutability": "nonpayable",
      "type": "function"
    },
    {
      "constant": true,
      "inputs": [],
      "name": "calculatePoints",
      "outputs": [
        {
          "name": "",
          "type": "int16[]"
        },
        {
          "name": "",
          "type": "address[]"
        }
      ],
      "payable": false,
      "stateMutability": "view",
      "type": "function"
    },
    {
      "constant": false,
      "inputs": [],
      "name": "forceComplete",
      "outputs": [],
      "payable": false,
      "stateMutability": "nonpayable",
      "type": "function"
    },
    {
      "constant": false,
      "inputs": [],
      "name": "complete",
      "outputs": [],
      "payable": false,
      "stateMutability": "nonpayable",
      "type": "function"
    },
    {
      "constant": false,
      "inputs": [
        {
          "name": "recipient",
          "type": "address"
        },
        {
          "name": "amount",
          "type": "uint256"
        }
      ],
      "name": "disperse",
      "outputs": [],
      "payable": false,
      "stateMutability": "nonpayable",
      "type": "function"
    },
    {
      "constant": false,
      "inputs": [],
      "name": "allowClaiming",
      "outputs": [],
      "payable": false,
      "stateMutability": "nonpayable",
      "type": "function"
    },
    {
      "constant": false,
      "inputs": [],
      "name": "claim",
      "outputs": [],
      "payable": false,
      "stateMutability": "nonpayable",
      "type": "function"
    }
  ],
  "bytecode": "0x60806040523480156200001157600080fd5b5060405160a08062002e2d833981018060405262000033919081019062000157565b60008054600160a060020a0319163317808255604051600160a060020a039190911691907f8be0079c531659141344cd1fd0a4f28419497f9722a3daafe3b4186f6b6457e0908290a36001805460038054600296909655931515770100000000000000000000000000000000000000000000000260a860020a62ffffff021960a060020a60ff0219600160a060020a03998a16600160a060020a03199094169390931792909216740100000000000000000000000000000000000000001791909116179055151560ff19939094166101000261010060a860020a031990921691909117919091169190911790556200020b565b6000620001348251620001ea565b9392505050565b6000620001348251620001ef565b600062000134825162000208565b600080600080600060a086880312156200017057600080fd5b60006200017e88886200013b565b955050602062000191888289016200013b565b9450506040620001a48882890162000149565b9350506060620001b78882890162000126565b9250506080620001ca8882890162000126565b9150509295509295909350565b6000620001e482620001fc565b92915050565b151590565b6000620001e482620001d7565b600160a060020a031690565b90565b612c12806200021b6000396000f3fe608060405234801561001057600080fd5b50600436106102205760003560e060020a9004806373618ee8116101295780639d76ea58116100b1578063e311e3df11610080578063e311e3df146103c2578063e3f93a50146103ca578063f2fde38b146103d2578063f96070a3146103e5578063fcfff16f146103ed57610220565b80639d76ea581461038a578063c2603658146103aa578063daed85fd146103b2578063de733397146103ba57610220565b806387f7fea0116100f857806387f7fea0146103775780638a204ed61461038a5780638da5cb5b146103925780638edaf6371461039a5780638f32d59b146103a257610220565b806373618ee81461034a5780637a3b7862146103525780637f4e3076146103675780638365d4e51461036f57610220565b806343d726d6116101ac5780635fd4b08a1161017b5780635fd4b08a1461031757806367f398201461032a5780636984a57e146103325780636d320bbd1461033a578063715018a61461034257610220565b806343d726d6146102df5780634e71d92d146102e7578063522e1177146102ef5780635cf3d346146102f757610220565b80633a4b66f1116101f35780633a4b66f1146102915780633ccfd60b146102995780633f6742d6146102a15780633f6a2c97146102b657806343808c50146102cc57610220565b806319cb355d1461022557806321d7dfa41461024357806335fa61fa1461025857806337cc3fe01461027c575b600080fd5b61022d6103f5565b60405161023a9190612aa3565b60405180910390f35b61024b6103fc565b60405161023a919061296a565b61026b610266366004612234565b610412565b60405161023a959493929190612978565b61028f61028a36600461225a565b61044e565b005b61028f6105c2565b61028f6107ac565b6102a96108f9565b60405161023a91906128e0565b6102be610908565b60405161023a929190612945565b61028f6102da366004612376565b610d23565b61028f610de0565b61028f610e13565b61028f611058565b61030a610305366004612234565b61114d565b60405161023a91906129d2565b61030a610325366004612234565b6111e8565b61022d611293565b61024b611299565b61028f6112ae565b61028f6112bf565b61024b611327565b61035a611349565b60405161023a91906129c4565b61024b611358565b6102a9611368565b61028f610385366004612294565b611377565b6102a961152f565b6102a9611543565b61024b611552565b61024b61155b565b6102a961156c565b6102a961157b565b61028f61158a565b61024b61169d565b61024b6116c1565b61028f6103e0366004612234565b6116d1565b6102a96116eb565b61028f6116fa565b6002545b90565b3360009081526005602052604090205460ff1690565b6005602052600090815260409020805460039091015460ff91821691818116916101008104821691620100008204811691630100000090041685565b61045661155b565b61045f57600080fd5b600180547501000000000000000000000000000000000000000000900460ff161515146104aa5760405160e560020a62461bcd0281526004016104a190612a53565b60405180910390fd5b6001805477010000000000000000000000000000000000000000000000900460ff161515146104ee5760405160e560020a62461bcd0281526004016104a190612a63565b60035460405160e060020a6370a082310281526000916101009004600160a060020a0316906370a08231906105279030906004016128e0565b60206040518083038186803b15801561053f57600080fd5b505afa158015610553573d6000803e3d6000fd5b505050506040513d601f19601f820116820180604052506105779190810190612394565b90508181106105a15760035461059c906101009004600160a060020a0316848461174d565b6105bd565b6003546105bd906101009004600160a060020a0316848361174d565b505050565b6001805460a060020a900460ff161515146105f25760405160e560020a62461bcd0281526004016104a190612a03565b33600090815260066020526040902054156106225760405160e560020a62461bcd0281526004016104a190612a33565b60025460035460405160e060020a6370a08231028152610100909104600160a060020a0316906370a082319061065c9033906004016128f4565b60206040518083038186803b15801561067457600080fd5b505afa158015610688573d6000803e3d6000fd5b505050506040513d601f19601f820116820180604052506106ac9190810190612394565b10156106cd5760405160e560020a62461bcd0281526004016104a190612a23565b6002546003546106f091610100909104600160a060020a031690339030906117ec565b600254336000908152600660205260408120919091555b6004548110156107505733600160a060020a03166004828154811061072857fe5b600091825260209091200154600160a060020a0316141561074857610750565b600101610707565b60045481106107a957600480546001810182556000919091527f8a35acfbc15ff81a39ae7d344fd709f28e8600b4aa8c65c6b64bfe7fe36bd19b01805473ffffffffffffffffffffffffffffffffffffffff1916331790555b50565b6001805460a060020a900460ff161515146107dc5760405160e560020a62461bcd0281526004016104a190612a03565b6002543360009081526006602052604090205410156108105760405160e560020a62461bcd0281526004016104a190612a13565b60035460405160e060020a6370a082310281526000916101009004600160a060020a0316906370a08231906108499030906004016128e0565b60206040518083038186803b15801561086157600080fd5b505afa158015610875573d6000803e3d6000fd5b505050506040513d601f19601f820116820180604052506108999190810190612394565b905060025481106108ca576002546003546108c591610100909104600160a060020a031690339061174d565b6108e6565b6003546108e6906101009004600160a060020a0316338361174d565b5033600090815260066020526040812055565b600a54600160a060020a031681565b606080606060048054905060405190808252806020026020018201604052801561093c578160200160208202803883390190505b5090506060600480549050604051908082528060200260200182016040528015610970578160200160208202803883390190505b50905061097b611d2c565b600160009054906101000a9004600160a060020a0316600160a060020a03166340e1fd226040518163ffffffff1660e060020a0281526004016108206040518083038186803b1580156109cd57600080fd5b505afa1580156109e1573d6000803e3d6000fd5b505050506040513d601f19601f82011682018060405250610a059190810190612357565b90506000805b600454811015610d16576002546006600060048481548110610a2957fe5b6000918252602080832090910154600160a060020a0316835282019290925260400190205410610d0e5760006005600060048481548110610a6657fe5b6000918252602080832090910154600160a060020a0316835282019290925260400181209150805b601c811015610bbe5760035460ff1615156001148015610ac45750856020015181601e8110610ab957fe5b602002015115156001145b8015610ae75750856040015181601e8110610adb57fe5b602002015160ff166001145b15610af157610bb6565b856020015181601e8110610b0157fe5b602002015115158360010182601e8110610b1757fe5b602081049091015460ff601f9092166101000a90041615151415610bae5760208601516001929092019181601e8110610b4c57fe5b602002015115156001148015610b9c5750856040015181601e8110610b6d57fe5b602002015160ff168360020182601e8110610b8457fe5b602081049091015460ff601f9092166101000a900416145b15610ba957600191909101905b610bb6565b600019909101905b600101610a8e565b5060035460ff16151560011415610c01578460800151601d811115610bdf57fe5b600383015460ff16601d811115610bf257fe5b1415610bfc576001015b610c2e565b8460600151601d811115610c1157fe5b600383015460ff16601d811115610c2457fe5b1415610c2e576001015b8460a00151601d811115610c3e57fe5b600383015462010000900460ff16601d811115610c5757fe5b1415610c61576001015b8460c00151601d811115610c7157fe5b60038301546301000000900460ff16601d811115610c8b57fe5b1415610c95576001015b80878581518110610ca257fe5b602002602001019060010b908160010b8152505060048381548110610cc357fe5b9060005260206000200160009054906101000a9004600160a060020a0316868581518110610ced57fe5b600160a060020a039092166020928302919091019091015250506001909101905b600101610a0b565b5092945090925050509091565b610d2b61155b565b610d3457600080fd5b60035460405160e060020a6370a08231028152610100909104600160a060020a0316906370a0823190610d6b9030906004016128e0565b60206040518083038186803b158015610d8357600080fd5b505afa158015610d97573d6000803e3d6000fd5b505050506040513d601f19601f82011682018060405250610dbb9190810190612394565b15610ddb5760405160e560020a62461bcd0281526004016104a190612a73565b600255565b610de861155b565b610df157600080fd5b6001805476ff00ff000000000000000000000000000000000000000019169055565b6001805460b060020a900460ff16151514610e435760405160e560020a62461bcd0281526004016104a190612a83565b600254336000908152600660205260409020541015610e775760405160e560020a62461bcd0281526004016104a190612a13565b3360009081526008602052604090205460ff1615610eaa5760405160e560020a62461bcd0281526004016104a190612a43565b600e546009546000916064900490600160a060020a0316331415610ed357603381029150610f47565b600a54600160a060020a0316331415610ef157601a81029150610f47565b600b54600160a060020a0316331415610f0f57600d81029150610f47565b600c54600160a060020a0316331415610f2d57600781029150610f47565b600d54600160a060020a0316331415610f47576003810291505b60008211610f6a5760405160e560020a62461bcd0281526004016104a1906129f3565b60035460405160e060020a6370a082310281526000916101009004600160a060020a0316906370a0823190610fa39030906004016128e0565b60206040518083038186803b158015610fbb57600080fd5b505afa158015610fcf573d6000803e3d6000fd5b505050506040513d601f19601f82011682018060405250610ff39190810190612394565b905082811061101d57600354611018906101009004600160a060020a0316338561174d565b611039565b600354611039906101009004600160a060020a0316338361174d565b5050336000908152600860205260409020805460ff1916600117905550565b61106061155b565b61106957600080fd5b600160009054906101000a9004600160a060020a0316600160a060020a0316633e7c7b906040518163ffffffff1660e060020a02815260040160206040518083038186803b1580156110ba57600080fd5b505afa1580156110ce573d6000803e3d6000fd5b505050506040513d601f19601f820116820180604052506110f29190810190612339565b15156001146111165760405160e560020a62461bcd0281526004016104a190612a93565b60015460b060020a900460ff16156111435760405160e560020a62461bcd0281526004016104a1906129e3565b61114b61182f565b565b60076020908152600091825260409182902080548351601f6002600019610100600186161502019093169290920491820184900484028101840190945280845290918301828280156111e05780601f106111b5576101008083540402835291602001916111e0565b820191906000526020600020905b8154815290600101906020018083116111c357829003601f168201915b505050505081565b600160a060020a03811660009081526007602090815260409182902080548351601f60026000196101006001861615020190931692909204918201849004840281018401909452808452606093928301828280156112875780601f1061125c57610100808354040283529160200191611287565b820191906000526020600020905b81548152906001019060200180831161126a57829003601f168201915b50505050509050919050565b600e5481565b33600090815260066020526040902054151590565b6112b661155b565b61111657600080fd5b6112c761155b565b6112d057600080fd5b60008054604051600160a060020a03909116907f8be0079c531659141344cd1fd0a4f28419497f9722a3daafe3b4186f6b6457e0908390a36000805473ffffffffffffffffffffffffffffffffffffffff19169055565b6001547501000000000000000000000000000000000000000000900460ff1681565b600154600160a060020a031681565b60015460a060020a900460ff1681565b600c54600160a060020a031681565b6001805460a060020a900460ff161515146113a75760405160e560020a62461bcd0281526004016104a190612a03565b6113af611d2c565b6001815260208101879052604081018690526060810185601d8111156113d157fe5b9081601d8111156113de57fe5b90525060a0810184601d8111156113f157fe5b9081601d8111156113fe57fe5b90525060c0810183601d81111561141157fe5b9081601d81111561141e57fe5b905250336000908152600760209081526040909120835161144192850190611d77565b503360009081526005602090815260409091208251815460ff191690151517815590820151829190611479906001830190601e611df5565b50604082015161148f906002830190601e611e83565b50606082015160038201805460ff1916600183601d8111156114ad57fe5b0217905550608082015160038201805461ff00191661010083601d8111156114d157fe5b021790555060a082015160038201805462ff000019166201000083601d8111156114f757fe5b021790555060c082015160038201805463ff0000001916630100000083601d81111561151f57fe5b0217905550505050505050505050565b6003546101009004600160a060020a031690565b600054600160a060020a031690565b60035460ff1681565b600054600160a060020a0316331490565b600954600160a060020a031681565b600b54600160a060020a031681565b61159261155b565b61159b57600080fd5b600160009054906101000a9004600160a060020a0316600160a060020a0316633e7c7b906040518163ffffffff1660e060020a02815260040160206040518083038186803b1580156115ec57600080fd5b505afa158015611600573d6000803e3d6000fd5b505050506040513d601f19601f820116820180604052506116249190810190612339565b15156001146116485760405160e560020a62461bcd0281526004016104a190612a93565b60015460b060020a900460ff16156116755760405160e560020a62461bcd0281526004016104a1906129e3565b6001805476ff00000000000000000000000000000000000000000000191660b060020a179055565b60015477010000000000000000000000000000000000000000000000900460ff1690565b60015460b060020a900460ff1681565b6116d961155b565b6116e257600080fd5b6107a981611bff565b600d54600160a060020a031681565b61170261155b565b61170b57600080fd5b6001805476ff000000000000000000000000000000000000000000001974ff00000000000000000000000000000000000000001990911660a060020a17169055565b6040516105bd9084907fa9059cbb0000000000000000000000000000000000000000000000000000000090611788908690869060240161292a565b60408051601f198184030181529190526020810180517bffffffffffffffffffffffffffffffffffffffffffffffffffffffff167fffffffff0000000000000000000000000000000000000000000000000000000090931692909217909152611c7a565b6040516118299085907f23b872dd000000000000000000000000000000000000000000000000000000009061178890879087908790602401612902565b50505050565b61183761155b565b61184057600080fd5b60015460b060020a900460ff161561186d5760405160e560020a62461bcd0281526004016104a1906129e3565b6001805475ff000000000000000000000000000000000000000000191675010000000000000000000000000000000000000000001790556060806000808080806103e719808080806118bd610908565b909c509a5060005b8c51811015611b0c578260010b8d82815181106118de57fe5b602002602001015160010b13156118f6578291508796505b8360010b8d828151811061190657fe5b602002602001015160010b131561191e578392508897505b8460010b8d828151811061192e57fe5b602002602001015160010b1315611946578493508998505b8560010b8d828151811061195657fe5b602002602001015160010b131561196e578594508a99505b8560010b8d828151811061197e57fe5b602002602001015160010b13156119c0578c818151811061199b57fe5b602002602001015195508b81815181106119b157fe5b60200260200101519a50611b04565b8460010b8d82815181106119d057fe5b602002602001015160010b1315611a12578c81815181106119ed57fe5b602002602001015194508b8181518110611a0357fe5b60200260200101519950611b04565b8360010b8d8281518110611a2257fe5b602002602001015160010b1315611a64578c8181518110611a3f57fe5b602002602001015193508b8181518110611a5557fe5b60200260200101519850611b04565b8260010b8d8281518110611a7457fe5b602002602001015160010b1315611ab6578c8181518110611a9157fe5b602002602001015192508b8181518110611aa757fe5b60200260200101519750611b04565b8160010b8d8281518110611ac657fe5b602002602001015160010b1315611b04578c8181518110611ae357fe5b602002602001015191508b8181518110611af957fe5b602002602001015196505b6001016118c5565b506009805473ffffffffffffffffffffffffffffffffffffffff19908116600160a060020a038d811691909117909255600a805482168c8416179055600b805482168b8416179055600c805482168a8416179055600d805490911688831617905560035460405160e060020a6370a08231028152610100909104909116906370a0823190611b9e9030906004016128e0565b60206040518083038186803b158015611bb657600080fd5b505afa158015611bca573d6000803e3d6000fd5b505050506040513d601f19601f82011682018060405250611bee9190810190612394565b600e55505050505050505050505050565b600160a060020a038116611c1257600080fd5b60008054604051600160a060020a03808516939216917f8be0079c531659141344cd1fd0a4f28419497f9722a3daafe3b4186f6b6457e091a36000805473ffffffffffffffffffffffffffffffffffffffff1916600160a060020a0392909216919091179055565b611c8c82600160a060020a0316611d26565b611c9557600080fd5b6000606083600160a060020a031683604051611cb191906128d4565b6000604051808303816000865af19150503d8060008114611cee576040519150601f19603f3d011682016040523d82523d6000602084013e611cf3565b606091505b509150915081611d0257600080fd5b8051156118295780806020019051611d1d9190810190612339565b61182957600080fd5b3b151590565b604051806108200160405280600015158152602001611d49611ed7565b8152602001611d56611ed7565b81526020016000815260200160008152602001600081526020016000905290565b828054600181600116156101000203166002900490600052602060002090601f016020900481019282601f10611db857805160ff1916838001178555611de5565b82800160010185558215611de5579182015b82811115611de5578251825591602001919060010190611dca565b50611df1929150611ef6565b5090565b600183019183908215611e775791602002820160005b83821115611e4857835183826101000a81548160ff0219169083151502179055509260200192600101602081600001049283019260010302611e0b565b8015611e755782816101000a81549060ff0219169055600101602081600001049283019260010302611e48565b505b50611df1929150611f10565b600183019183908215611e775791602002820160005b83821115611e4857835183826101000a81548160ff021916908360ff1602179055509260200192600101602081600001049283019260010302611e99565b604051806103c00160405280601e906020820280388339509192915050565b6103f991905b80821115611df15760008155600101611efc565b6103f991905b80821115611df157805460ff19168155600101611f16565b6000611f3a8235612b36565b9392505050565b600082601f830112611f5257600080fd5b601e611f65611f6082612ad8565b612ab1565b91508183856020840282011115611f7b57600080fd5b60005b83811015611fa75781611f9188826120e0565b8452506020928301929190910190600101611f7e565b5050505092915050565b600082601f830112611fc257600080fd5b601e611fd0611f6082612ad8565b91508183856020840282011115611fe657600080fd5b60005b83811015611fa75781611ffc88826120d4565b8452506020928301929190910190600101611fe9565b600082601f83011261202357600080fd5b601e612031611f6082612ad8565b9150818385602084028201111561204757600080fd5b60005b83811015611fa7578161205d8882612228565b845250602092830192919091019060010161204a565b600082601f83011261208457600080fd5b601e612092611f6082612ad8565b915081838560208402820111156120a857600080fd5b60005b83811015611fa757816120be888261221c565b84525060209283019291909101906001016120ab565b6000611f3a8235612b41565b6000611f3a8251612b41565b6000611f3a8235612b64565b6000611f3a8251612b64565b600082601f83011261211557600080fd5b8135612123611f6082612af6565b9150808252602083016020830185838301111561213f57600080fd5b61214a838284612b96565b50505092915050565b6000610820828403121561216657600080fd5b61217060e0612ab1565b9050600061217e84846120e0565b825250602061218f84848301611f41565b6020830152506103e06121a484828501612012565b6040830152506107a06121b9848285016120f8565b6060830152506107c06121ce848285016120f8565b6080830152506107e06121e3848285016120f8565b60a0830152506108006121f8848285016120f8565b60c08301525092915050565b6000611f3a82356103f9565b6000611f3a82516103f9565b6000611f3a8235612b73565b6000611f3a8251612b73565b60006020828403121561224657600080fd5b60006122528484611f2e565b949350505050565b6000806040838503121561226d57600080fd5b60006122798585611f2e565b925050602061228a85828601612204565b9150509250929050565b60008060008060008061080087890312156122ae57600080fd5b60006122ba8989611fb1565b9650506103c06122cc89828a01612073565b9550506107806122de89828a016120ec565b9450506107a06122f089828a016120ec565b9350506107c061230289828a016120ec565b9250506107e087013567ffffffffffffffff81111561232057600080fd5b61232c89828a01612104565b9150509295509295509295565b60006020828403121561234b57600080fd5b600061225284846120e0565b6000610820828403121561236a57600080fd5b60006122528484612153565b60006020828403121561238857600080fd5b60006122528484612204565b6000602082840312156123a657600080fd5b60006122528484612210565b60006123be83836123e1565b505060200190565b60006123be83836124d4565b6123db81612b79565b82525050565b6123db81612b36565b60006123f582612b24565b6123ff8185612b28565b935061240a83612b1e565b60005b82811015612435576124208683516123b2565b955061242b82612b1e565b915060010161240d565b5093949350505050565b600061244a82612b24565b6124548185612b28565b935061245f83612b1e565b60005b82811015612435576124758683516123c6565b955061248082612b1e565b9150600101612462565b6123db81612b41565b600061249e82612b24565b6124a88185612b31565b93506124b8818560208601612ba2565b9290920192915050565b6123db81612b80565b6123db81612b8b565b6123db81612b52565b60006124e882612b24565b6124f28185612b28565b9350612502818560208601612ba2565b61250b81612bce565b9093019392505050565b6000612522602383612b28565b7f54686520706f6f6c2068617320616c7265616479206265656e20636f6d706c6581527f7465640000000000000000000000000000000000000000000000000000000000602082015260400192915050565b6000612581601083612b28565b7f596f75206469646e277420706c61636500000000000000000000000000000000815260200192915050565b60006125ba601683612b28565b7f50726564696374696f6e732061726520636c6f73656400000000000000000000815260200192915050565b60006125f3602483612b28565b7f596f7520646f6e2774206861766520616e792066756e647320696e207468652081527f706f6f6c00000000000000000000000000000000000000000000000000000000602082015260400192915050565b6000612652603483612b28565b7f596f7572206163636f756e7420646f65736e2774206861766520656e6f75676881527f2066756e647320666f722074686520746f6b656e000000000000000000000000602082015260400192915050565b60006126b1602283612b28565b7f596f7520616c726561647920686176652066756e647320696e2074686520706f81527f6f6c000000000000000000000000000000000000000000000000000000000000602082015260400192915050565b6000612710601483612b28565b7f596f7520616c726561647920636c61696d656421000000000000000000000000815260200192915050565b6000612749602f83612b28565b7f596f752063616e6e6f7420646973706572736520617761726473207965742e2081527f63616c6c20636f6d706c65746528290000000000000000000000000000000000602082015260400192915050565b60006127a8603683612b28565b7f596f752063616e6e6f742064697370657273652066756e6473206576656e207481527f686f75676820796f7527726520746865206f776e657200000000000000000000602082015260400192915050565b6000612807602483612b28565b7f546865726520697320736f6d65207374616b65206c65667420696e207468652081527f706f6f6c00000000000000000000000000000000000000000000000000000000602082015260400192915050565b6000612866602083612b28565b7f596f752063616e6e6f7420636c61696d20796f757220626f756e747920796574815260200192915050565b600061289f601d83612b28565b7f416e737765727320617265206e6f7420617661696c61626c6520796574000000815260200192915050565b6123db816103f9565b6000611f3a8284612493565b602081016128ee82846123e1565b92915050565b602081016128ee82846123d2565b6060810161291082866123e1565b61291d60208301856123e1565b61225260408301846128cb565b6040810161293882856123e1565b611f3a60208301846128cb565b60408082528101612956818561243f565b9050818103602083015261225281846123ea565b602081016128ee828461248a565b60a08101612986828861248a565b61299360208301876124cb565b6129a060408301866124cb565b6129ad60608301856124cb565b6129ba60808301846124cb565b9695505050505050565b602081016128ee82846124c2565b60208082528101611f3a81846124dd565b602080825281016128ee81612515565b602080825281016128ee81612574565b602080825281016128ee816125ad565b602080825281016128ee816125e6565b602080825281016128ee81612645565b602080825281016128ee816126a4565b602080825281016128ee81612703565b602080825281016128ee8161273c565b602080825281016128ee8161279b565b602080825281016128ee816127fa565b602080825281016128ee81612859565b602080825281016128ee81612892565b602081016128ee82846128cb565b60405181810167ffffffffffffffff81118282101715612ad057600080fd5b604052919050565b600067ffffffffffffffff821115612aef57600080fd5b5060200290565b600067ffffffffffffffff821115612b0d57600080fd5b506020601f91909101601f19160190565b60200190565b5190565b90815260200190565b919050565b60006128ee82612b58565b151590565b6000601e8210611df157fe5b60010b90565b600160a060020a031690565b6000601e8210611df157600080fd5b60ff1690565b60006128ee825b60006128ee82612b36565b60006128ee82612b46565b82818337506000910152565b60005b83811015612bbd578181015183820152602001612ba5565b838111156118295750506000910152565b601f01601f19169056fea265627a7a7230582058e402675712b45f59dbdd6352d8781238f76f82efc51625e71c03d84caa6a536c6578706572696d656e74616cf50037",
  "source": "pragma solidity ^0.5.7;\npragma experimental ABIEncoderV2;\n\nimport \"openzeppelin-solidity/contracts/token/ERC20/IERC20.sol\";\nimport \"openzeppelin-solidity/contracts/token/ERC20/SafeERC20.sol\";\nimport \"openzeppelin-solidity/contracts/ownership/Ownable.sol\";\nimport \"./GOTDeathPoolCommon.sol\";\nimport \"./GOTDeathPoolTruth.sol\";\n\ncontract GOTDeathPool is Ownable {\n  using GOTDeathPoolCommon for GOTDeathPoolCommon.Prediction;\n  using GOTDeathPoolCommon for GOTDeathPoolCommon.Character;\n  using SafeERC20 for IERC20;\n\n  GOTDeathPoolTruth public TruthContract;\n  bool public _open;\n  bool public _canDisperse;\n  bool public _canClaim;\n  bool private _ownerCanDisperse;\n  uint256 private _stakeRequired;\n  bool public _skipsFirstEpisode;\n  IERC20 private _token;\n  address[] private _stakers;\n  mapping(address => GOTDeathPoolCommon.Prediction) public predictions;\n  mapping(address => uint256) private pool;\n  mapping(address => string) public names;\n  mapping(address => bool) private claimed;\n  address public _firstPlace;\n  address public _secondPlace;\n  address public _thirdPlace;\n  address public _fourthPlace;\n  address public _fifthPlace;\n  uint256 public _completedBalance;\n\n  uint8 constant NumCharacters = 30;\n  uint8 constant POINTS_FOR_CORRECT_DEATH_GUESS = 1;\n  uint8 constant POINTS_FOR_INCORRECT_DEATH_GUESS = 1;\n  uint8 constant POINTS_FOR_CORRECT_DEATH_EPISODE = 1;\n  uint8 constant POINTS_FOR_CORRECT_FIRST_TO_DIE = 1;\n  uint8 constant POINTS_FOR_CORRECT_LAST_TO_DIE = 1;\n  uint8 constant POINTS_FOR_CORRECT_THRONE = 1;\n\n  uint8 constant FIRST_PLACE_PRIZE_PERCENT = 51;\n  uint8 constant SECOND_PLACE_PRIZE_PERCENT = 26;\n  uint8 constant THIRD_PLACE_PRIZE_PERCENT = 13;\n  uint8 constant FOURTH_PLACE_PRIZE_PERCENT = 7;\n  uint8 constant FIFTH_PLACE_PRIZE_PERCENT = 3;\n\n  modifier predictionsOpen() {\n    require(_open == true, \"Predictions are closed\");\n    _;\n  }\n\n  modifier canClaim() {\n    require(_canClaim == true, \"You cannot claim your bounty yet\");\n    _;\n  }\n\n  modifier canDisperse() {\n    require(_canDisperse == true, \"You cannot disperse awards yet. call complete()\");\n    _;\n  }\n\n  modifier ownerCanDisperse() {\n    require(_ownerCanDisperse == true, \"You cannot disperse funds even though you're the owner\");\n    _;\n  }\n\n  modifier isIncomplete() {\n    require(_canClaim == false, \"The pool has already been completed\");\n    _;\n  }\n\n  modifier noStakers() {\n    require(_token.balanceOf(address(this)) == 0, \"There is some stake left in the pool\");\n    _;\n  }\n\n  modifier answersAvailable() {\n    require(TruthContract.TruthComplete() == true, \"Answers are not available yet\");\n    _;\n  }\n\n  modifier didStake() {\n    require(pool[msg.sender] >= _stakeRequired, \"You don't have any funds in the pool\");\n    _;\n  }\n\n  modifier didNotClaim() {\n    require(claimed[msg.sender] == false, \"You already claimed!\");\n    _;\n  }\n\n  modifier didNotStake() {\n    require(pool[msg.sender] == 0, \"You already have funds in the pool\");\n    _;\n  }\n\n  modifier hasEnoughFunds() {\n    require(_token.balanceOf(msg.sender) >= _stakeRequired, \"Your account doesn't have enough funds for the token\");\n    _;\n  }\n\n  modifier canWithdraw() {\n    require(_token.balanceOf(address(this)) >= _stakeRequired, \"The pool contract doesn't have enough funds to withdraw\");\n    _;\n  }\n\n  constructor(\n    GOTDeathPoolTruth truth,\n    IERC20 token,\n    uint256 stakeRequired,\n    bool canDisperse,\n    bool skipsFirstEpisode\n  )\n    Ownable()\n    public\n  {\n    TruthContract = truth;\n    _open = true;\n    _canClaim = false;\n    _canDisperse = false;\n    _token = token;\n    _stakeRequired = stakeRequired;\n    _ownerCanDisperse = canDisperse;\n    _skipsFirstEpisode = skipsFirstEpisode;\n  }\n\n  function setStakeAmount(uint256 amount) public onlyOwner noStakers {\n    _stakeRequired = amount;\n  }\n\n  function requiredStake() public view returns(uint256) {\n    return _stakeRequired;\n  }\n\n  function requiredToken() public view returns(address) {\n    return address(_token);\n  }\n\n  function ownerCanDisperseFunds() public view returns(bool) {\n    return _ownerCanDisperse;\n  }\n\n  function getName(address a) public view returns(string memory) {\n    return names[a];\n  }\n\n  function tokenAddress() public view returns(address) {\n    return address(_token);\n  }\n\n  function havePredicted() public view returns(bool) {\n    return predictions[msg.sender].isValid;\n  }\n\n  function haveStaked() public view returns(bool) {\n    return pool[msg.sender] > 0;\n  }\n\n  function open() public onlyOwner {\n    _open = true;\n    _canClaim = false;\n  }\n\n  function close() public onlyOwner {\n    _open = false;\n    _canClaim = false;\n  }\n\n  function predict(\n    bool[30] memory dies,\n    uint8[30] memory deathEpisode,\n    GOTDeathPoolCommon.Character firstToDie,\n    GOTDeathPoolCommon.Character lastToDie,\n    GOTDeathPoolCommon.Character lastOnThrone,\n    string memory name\n  )\n    public\n    predictionsOpen\n  {\n    GOTDeathPoolCommon.Prediction memory prediction;\n    prediction.isValid = true;\n    prediction.dies = dies;\n    prediction.deathEpisode = deathEpisode;\n    prediction.firstToDie = firstToDie;\n    prediction.lastToDie = lastToDie;\n    prediction.lastOnThrone = lastOnThrone;\n    names[msg.sender] = name;\n    predictions[msg.sender] = prediction;\n  }\n\n  function stake() public predictionsOpen didNotStake hasEnoughFunds {\n    _token.safeTransferFrom(msg.sender, address(this), _stakeRequired);\n    pool[msg.sender] = _stakeRequired;\n    uint i = 0;\n    for (i = 0; i < _stakers.length; i++) {\n      if (_stakers[i] == msg.sender) {\n        break;\n      }\n    }\n    if (i >= _stakers.length) {\n      _stakers.push(msg.sender);\n    }\n  }\n\n  function withdraw() public predictionsOpen didStake {\n    uint256 poolBalance = _token.balanceOf(address(this));\n    if (poolBalance >= _stakeRequired) {\n      _token.safeTransfer(msg.sender, _stakeRequired);\n    }\n    else {\n      _token.safeTransfer(msg.sender, poolBalance);\n    }\n    pool[msg.sender] = 0;\n  }\n\n  function calculatePoints() public view returns (int16[] memory, address[] memory) {\n    int16[] memory resultPoints = new int16[](_stakers.length);\n    address[] memory resultAddresses = new address[](_stakers.length);\n\n    GOTDeathPoolCommon.Prediction memory truth = TruthContract.GetTruthState();\n\n    uint validStakers = 0;\n    for (uint i = 0; i < _stakers.length; i++) {\n      if (pool[_stakers[i]] >= _stakeRequired) {\n        // this account is a candidate\n        GOTDeathPoolCommon.Prediction storage prediction = predictions[_stakers[i]];\n        int16 points = 0;\n\n        for (uint j = 0; j < NumCharacters - 2; j++) {\n          if (\n            _skipsFirstEpisode == true &&\n            truth.dies[j] == true &&\n            truth.deathEpisode[j] == 1\n          ) {\n            continue;\n          }\n\n          if (prediction.dies[j] == truth.dies[j]) {\n            points = points + POINTS_FOR_CORRECT_DEATH_GUESS;\n\n            if (truth.dies[j] == true && prediction.deathEpisode[j] == truth.deathEpisode[j]) {\n              points = points + POINTS_FOR_CORRECT_DEATH_EPISODE;\n            }\n          }\n          else {\n            points = points - POINTS_FOR_INCORRECT_DEATH_GUESS;\n          }\n        }\n\n        if (_skipsFirstEpisode == true) {\n          // if we skip the first episode, just use first to die after episode 1\n          if (prediction.firstToDie == truth.firstToDieAfterFirstEpisode) {\n            points = points + POINTS_FOR_CORRECT_FIRST_TO_DIE;\n          }\n        }\n        else {\n          // if we don't skip the first episode, just use first to die\n          if (prediction.firstToDie == truth.firstToDie) {\n            points = points + POINTS_FOR_CORRECT_FIRST_TO_DIE;\n          }\n        }\n\n        if (prediction.lastToDie == truth.lastToDie) {\n          points = points + POINTS_FOR_CORRECT_LAST_TO_DIE;\n        }\n\n        if (prediction.lastOnThrone == truth.lastOnThrone) {\n          points = points + POINTS_FOR_CORRECT_THRONE;\n        }\n\n        resultPoints[validStakers] = points;\n        resultAddresses[validStakers] = _stakers[i];\n        validStakers++;\n      }\n    }\n\n    return (resultPoints, resultAddresses);\n  }\n\n  function forceComplete() public onlyOwner isIncomplete {\n    _complete();\n  }\n\n  function complete() public onlyOwner answersAvailable isIncomplete {\n    _complete();\n  }\n\n  function _complete() private onlyOwner isIncomplete {\n    _canDisperse = true;\n    int16[] memory resultPoints;\n    address[] memory resultAddresses;\n\n    address firstPlace;\n    address secondPlace;\n    address thirdPlace;\n    address fourthPlace;\n    address fifthPlace;\n\n    int16 firstPlacePoints = -1000;\n    int16 secondPlacePoints = -1000;\n    int16 thirdPlacePoints = -1000;\n    int16 fourthPlacePoints = -1000;\n    int16 fifthPlacePoints = -1000;\n\n    (resultPoints, resultAddresses) = calculatePoints();\n\n    for (uint i = 0; i < resultPoints.length; i++) {\n      if (resultPoints[i] > fourthPlacePoints) {\n        fifthPlacePoints = fourthPlacePoints;\n\n        fifthPlace = fourthPlace;\n      }\n      if (resultPoints[i] > thirdPlacePoints) {\n        fourthPlacePoints = thirdPlacePoints;\n\n        fourthPlace = thirdPlace;\n      }\n      if (resultPoints[i] > secondPlacePoints) {\n        thirdPlacePoints = secondPlacePoints;\n\n        thirdPlace = secondPlace;\n      }\n      if (resultPoints[i] > firstPlacePoints) {\n        secondPlacePoints = firstPlacePoints;\n\n        secondPlace = firstPlace;\n      }\n\n      if (resultPoints[i] > firstPlacePoints) {\n        firstPlacePoints = resultPoints[i];\n\n        firstPlace = resultAddresses[i];\n      }\n      else if (resultPoints[i] > secondPlacePoints) {\n        secondPlacePoints = resultPoints[i];\n\n        secondPlace = resultAddresses[i];\n      }\n      else if (resultPoints[i] > thirdPlacePoints) {\n        thirdPlacePoints = resultPoints[i];\n\n        thirdPlace = resultAddresses[i];\n      }\n      else if (resultPoints[i] > fourthPlacePoints) {\n        fourthPlacePoints = resultPoints[i];\n\n        fourthPlace = resultAddresses[i];\n      }\n      else if (resultPoints[i] > fifthPlacePoints) {\n        fifthPlacePoints = resultPoints[i];\n\n        fifthPlace = resultAddresses[i];\n      }\n    }\n\n    _firstPlace = firstPlace;\n    _secondPlace = secondPlace;\n    _thirdPlace = thirdPlace;\n    _fourthPlace = fourthPlace;\n    _fifthPlace = fifthPlace;\n\n    _completedBalance = _token.balanceOf(address(this));\n  }\n\n  function disperse(address recipient, uint256 amount) public onlyOwner canDisperse ownerCanDisperse {\n    uint256 poolBalance = _token.balanceOf(address(this));\n    if (poolBalance >= amount) {\n      _token.safeTransfer(recipient, amount);\n    }\n    else {\n      _token.safeTransfer(recipient, poolBalance);\n    }\n  }\n\n  function allowClaiming() public onlyOwner answersAvailable isIncomplete {\n    _canClaim = true;\n  }\n\n  function claim() public canClaim didStake didNotClaim {\n    uint256 awardBalance = 0;\n    uint256 balancePercent = _completedBalance / 100;\n\n    if (msg.sender == _firstPlace) {\n      awardBalance = balancePercent * FIRST_PLACE_PRIZE_PERCENT;\n    }\n    else if (msg.sender == _secondPlace) {\n      awardBalance = balancePercent * SECOND_PLACE_PRIZE_PERCENT;\n    }\n    else if (msg.sender == _thirdPlace) {\n      awardBalance = balancePercent * THIRD_PLACE_PRIZE_PERCENT;\n    }\n    else if (msg.sender == _fourthPlace) {\n      awardBalance = balancePercent * FOURTH_PLACE_PRIZE_PERCENT;\n    }\n    else if (msg.sender == _fifthPlace) {\n      awardBalance = balancePercent * FIFTH_PLACE_PRIZE_PERCENT;\n    }\n\n    require(awardBalance > 0, \"You didn't place\");\n\n    uint256 poolBalance = _token.balanceOf(address(this));\n\n    if (poolBalance >= awardBalance) {\n      _token.safeTransfer(msg.sender, awardBalance);\n    }\n    else {\n      _token.safeTransfer(msg.sender, poolBalance);\n    }\n\n    claimed[msg.sender] = true;\n  }\n}\n",
  "sourcePath": "/home/mike/projects/game-of-thrones-death-pool/contracts/GOTDeathPool.sol",
  "compiler": {
    "name": "solc",
    "version": "0.5.7+commit.6da8b019.Emscripten.clang"
  },
  "schemaVersion": "3.0.2",
  "updatedAt": "2019-04-14T21:09:59.511Z",
  "devdoc": {
    "methods": {
      "isOwner()": {
        "return": "true if `msg.sender` is the owner of the contract."
      },
      "owner()": {
        "return": "the address of the owner."
      },
      "renounceOwnership()": {
        "details": "Allows the current owner to relinquish control of the contract. It will not be possible to call the functions with the `onlyOwner` modifier anymore."
      },
      "transferOwnership(address)": {
        "details": "Allows the current owner to transfer control of the contract to a newOwner.",
        "params": {
          "newOwner": "The address to transfer ownership to."
        }
      }
    }
  },
  "userdoc": {
    "methods": {
      "renounceOwnership()": {
        "notice": "Renouncing ownership will leave the contract without an owner, thereby removing any functionality that is only available to the owner."
      }
    }
  }
}