{
  "contractName": "GOTDeathPool",
  "abi": [
    {
      "constant": true,
      "inputs": [
        {
          "name": "",
          "type": "address"
        }
      ],
      "name": "predictions",
      "outputs": [
        {
          "name": "isValid",
          "type": "bool"
        },
        {
          "name": "firstToDie",
          "type": "uint8"
        },
        {
          "name": "firstToDieAfterFirstEpisode",
          "type": "uint8"
        },
        {
          "name": "lastToDie",
          "type": "uint8"
        },
        {
          "name": "lastOnThrone",
          "type": "uint8"
        }
      ],
      "payable": false,
      "stateMutability": "view",
      "type": "function"
    },
    {
      "constant": true,
      "inputs": [],
      "name": "_secondPlace",
      "outputs": [
        {
          "name": "",
          "type": "address"
        }
      ],
      "payable": false,
      "stateMutability": "view",
      "type": "function"
    },
    {
      "constant": true,
      "inputs": [
        {
          "name": "",
          "type": "address"
        }
      ],
      "name": "names",
      "outputs": [
        {
          "name": "",
          "type": "string"
        }
      ],
      "payable": false,
      "stateMutability": "view",
      "type": "function"
    },
    {
      "constant": true,
      "inputs": [],
      "name": "_completedBalance",
      "outputs": [
        {
          "name": "",
          "type": "uint256"
        }
      ],
      "payable": false,
      "stateMutability": "view",
      "type": "function"
    },
    {
      "constant": false,
      "inputs": [],
      "name": "renounceOwnership",
      "outputs": [],
      "payable": false,
      "stateMutability": "nonpayable",
      "type": "function"
    },
    {
      "constant": true,
      "inputs": [],
      "name": "_canDisperse",
      "outputs": [
        {
          "name": "",
          "type": "bool"
        }
      ],
      "payable": false,
      "stateMutability": "view",
      "type": "function"
    },
    {
      "constant": true,
      "inputs": [],
      "name": "TruthContract",
      "outputs": [
        {
          "name": "",
          "type": "address"
        }
      ],
      "payable": false,
      "stateMutability": "view",
      "type": "function"
    },
    {
      "constant": true,
      "inputs": [],
      "name": "_open",
      "outputs": [
        {
          "name": "",
          "type": "bool"
        }
      ],
      "payable": false,
      "stateMutability": "view",
      "type": "function"
    },
    {
      "constant": true,
      "inputs": [],
      "name": "_fourthPlace",
      "outputs": [
        {
          "name": "",
          "type": "address"
        }
      ],
      "payable": false,
      "stateMutability": "view",
      "type": "function"
    },
    {
      "constant": true,
      "inputs": [],
      "name": "owner",
      "outputs": [
        {
          "name": "",
          "type": "address"
        }
      ],
      "payable": false,
      "stateMutability": "view",
      "type": "function"
    },
    {
      "constant": true,
      "inputs": [],
      "name": "_skipsFirstEpisode",
      "outputs": [
        {
          "name": "",
          "type": "bool"
        }
      ],
      "payable": false,
      "stateMutability": "view",
      "type": "function"
    },
    {
      "constant": true,
      "inputs": [],
      "name": "isOwner",
      "outputs": [
        {
          "name": "",
          "type": "bool"
        }
      ],
      "payable": false,
      "stateMutability": "view",
      "type": "function"
    },
    {
      "constant": true,
      "inputs": [],
      "name": "_firstPlace",
      "outputs": [
        {
          "name": "",
          "type": "address"
        }
      ],
      "payable": false,
      "stateMutability": "view",
      "type": "function"
    },
    {
      "constant": true,
      "inputs": [],
      "name": "_thirdPlace",
      "outputs": [
        {
          "name": "",
          "type": "address"
        }
      ],
      "payable": false,
      "stateMutability": "view",
      "type": "function"
    },
    {
      "constant": true,
      "inputs": [],
      "name": "_canClaim",
      "outputs": [
        {
          "name": "",
          "type": "bool"
        }
      ],
      "payable": false,
      "stateMutability": "view",
      "type": "function"
    },
    {
      "constant": false,
      "inputs": [
        {
          "name": "newOwner",
          "type": "address"
        }
      ],
      "name": "transferOwnership",
      "outputs": [],
      "payable": false,
      "stateMutability": "nonpayable",
      "type": "function"
    },
    {
      "constant": true,
      "inputs": [],
      "name": "_fifthPlace",
      "outputs": [
        {
          "name": "",
          "type": "address"
        }
      ],
      "payable": false,
      "stateMutability": "view",
      "type": "function"
    },
    {
      "inputs": [
        {
          "name": "truth",
          "type": "address"
        },
        {
          "name": "token",
          "type": "address"
        },
        {
          "name": "stakeRequired",
          "type": "uint256"
        },
        {
          "name": "canDisperse",
          "type": "bool"
        },
        {
          "name": "skipsFirstEpisode",
          "type": "bool"
        }
      ],
      "payable": false,
      "stateMutability": "nonpayable",
      "type": "constructor"
    },
    {
      "anonymous": false,
      "inputs": [
        {
          "indexed": true,
          "name": "previousOwner",
          "type": "address"
        },
        {
          "indexed": true,
          "name": "newOwner",
          "type": "address"
        }
      ],
      "name": "OwnershipTransferred",
      "type": "event"
    },
    {
      "constant": false,
      "inputs": [
        {
          "name": "amount",
          "type": "uint256"
        }
      ],
      "name": "setStakeAmount",
      "outputs": [],
      "payable": false,
      "stateMutability": "nonpayable",
      "type": "function"
    },
    {
      "constant": true,
      "inputs": [],
      "name": "requiredStake",
      "outputs": [
        {
          "name": "",
          "type": "uint256"
        }
      ],
      "payable": false,
      "stateMutability": "view",
      "type": "function"
    },
    {
      "constant": true,
      "inputs": [],
      "name": "requiredToken",
      "outputs": [
        {
          "name": "",
          "type": "address"
        }
      ],
      "payable": false,
      "stateMutability": "view",
      "type": "function"
    },
    {
      "constant": true,
      "inputs": [],
      "name": "ownerCanDisperseFunds",
      "outputs": [
        {
          "name": "",
          "type": "bool"
        }
      ],
      "payable": false,
      "stateMutability": "view",
      "type": "function"
    },
    {
      "constant": true,
      "inputs": [
        {
          "name": "a",
          "type": "address"
        }
      ],
      "name": "getName",
      "outputs": [
        {
          "name": "",
          "type": "string"
        }
      ],
      "payable": false,
      "stateMutability": "view",
      "type": "function"
    },
    {
      "constant": true,
      "inputs": [],
      "name": "tokenAddress",
      "outputs": [
        {
          "name": "",
          "type": "address"
        }
      ],
      "payable": false,
      "stateMutability": "view",
      "type": "function"
    },
    {
      "constant": true,
      "inputs": [],
      "name": "havePredicted",
      "outputs": [
        {
          "name": "",
          "type": "bool"
        }
      ],
      "payable": false,
      "stateMutability": "view",
      "type": "function"
    },
    {
      "constant": true,
      "inputs": [],
      "name": "haveStaked",
      "outputs": [
        {
          "name": "",
          "type": "bool"
        }
      ],
      "payable": false,
      "stateMutability": "view",
      "type": "function"
    },
    {
      "constant": false,
      "inputs": [],
      "name": "open",
      "outputs": [],
      "payable": false,
      "stateMutability": "nonpayable",
      "type": "function"
    },
    {
      "constant": false,
      "inputs": [],
      "name": "close",
      "outputs": [],
      "payable": false,
      "stateMutability": "nonpayable",
      "type": "function"
    },
    {
      "constant": false,
      "inputs": [
        {
          "name": "dies",
          "type": "bool[30]"
        },
        {
          "name": "deathEpisode",
          "type": "uint8[30]"
        },
        {
          "name": "firstToDie",
          "type": "uint8"
        },
        {
          "name": "lastToDie",
          "type": "uint8"
        },
        {
          "name": "lastOnThrone",
          "type": "uint8"
        },
        {
          "name": "name",
          "type": "string"
        }
      ],
      "name": "predict",
      "outputs": [],
      "payable": false,
      "stateMutability": "nonpayable",
      "type": "function"
    },
    {
      "constant": false,
      "inputs": [],
      "name": "stake",
      "outputs": [],
      "payable": false,
      "stateMutability": "nonpayable",
      "type": "function"
    },
    {
      "constant": false,
      "inputs": [],
      "name": "withdraw",
      "outputs": [],
      "payable": false,
      "stateMutability": "nonpayable",
      "type": "function"
    },
    {
      "constant": true,
      "inputs": [],
      "name": "calculatePoints",
      "outputs": [
        {
          "name": "",
          "type": "int16[]"
        },
        {
          "name": "",
          "type": "address[]"
        }
      ],
      "payable": false,
      "stateMutability": "view",
      "type": "function"
    },
    {
      "constant": false,
      "inputs": [],
      "name": "complete",
      "outputs": [],
      "payable": false,
      "stateMutability": "nonpayable",
      "type": "function"
    },
    {
      "constant": false,
      "inputs": [
        {
          "name": "recipient",
          "type": "address"
        },
        {
          "name": "amount",
          "type": "uint256"
        }
      ],
      "name": "disperse",
      "outputs": [],
      "payable": false,
      "stateMutability": "nonpayable",
      "type": "function"
    },
    {
      "constant": false,
      "inputs": [],
      "name": "allowClaiming",
      "outputs": [],
      "payable": false,
      "stateMutability": "nonpayable",
      "type": "function"
    },
    {
      "constant": false,
      "inputs": [],
      "name": "claim",
      "outputs": [],
      "payable": false,
      "stateMutability": "nonpayable",
      "type": "function"
    }
  ],
  "bytecode": "0x60806040523480156200001157600080fd5b5060405160a08062002dc1833981018060405262000033919081019062000157565b60008054600160a060020a0319163317808255604051600160a060020a039190911691907f8be0079c531659141344cd1fd0a4f28419497f9722a3daafe3b4186f6b6457e0908290a36001805460038054600296909655931515770100000000000000000000000000000000000000000000000260a860020a62ffffff021960a060020a60ff0219600160a060020a03998a16600160a060020a03199094169390931792909216740100000000000000000000000000000000000000001791909116179055151560ff19939094166101000261010060a860020a031990921691909117919091169190911790556200020b565b6000620001348251620001ea565b9392505050565b6000620001348251620001ef565b600062000134825162000208565b600080600080600060a086880312156200017057600080fd5b60006200017e88886200013b565b955050602062000191888289016200013b565b9450506040620001a48882890162000149565b9350506060620001b78882890162000126565b9250506080620001ca8882890162000126565b9150509295509295909350565b6000620001e482620001fc565b92915050565b151590565b6000620001e482620001d7565b600160a060020a031690565b90565b612ba6806200021b6000396000f3fe608060405234801561001057600080fd5b50600436106102155760003560e060020a9004806373618ee8116101295780639d76ea58116100b1578063e311e3df11610080578063e311e3df146103af578063e3f93a50146103b7578063f2fde38b146103bf578063f96070a3146103d2578063fcfff16f146103da57610215565b80639d76ea5814610377578063c260365814610397578063daed85fd1461039f578063de733397146103a757610215565b806387f7fea0116100f857806387f7fea0146103645780638a204ed6146103775780638da5cb5b1461037f5780638edaf637146103875780638f32d59b1461038f57610215565b806373618ee8146103375780637a3b78621461033f5780637f4e3076146103545780638365d4e51461035c57610215565b806343808c50116101ac5780635cf3d3461161017b5780635cf3d346146102ec5780635fd4b08a1461030c57806367f398201461031f5780636984a57e14610327578063715018a61461032f57610215565b806343808c50146102c157806343d726d6146102d45780634e71d92d146102dc578063522e1177146102e457610215565b80633a4b66f1116101e85780633a4b66f1146102865780633ccfd60b1461028e5780633f6742d6146102965780633f6a2c97146102ab57610215565b806319cb355d1461021a57806321d7dfa41461023857806335fa61fa1461024d57806337cc3fe014610271575b600080fd5b6102226103e2565b60405161022f9190612a37565b60405180910390f35b6102406103e9565b60405161022f91906128fe565b61026061025b3660046121c8565b6103ff565b60405161022f95949392919061290c565b61028461027f3660046121ee565b61043b565b005b6102846105af565b610284610799565b61029e6108e6565b60405161022f9190612874565b6102b36108f5565b60405161022f9291906128d9565b6102846102cf36600461230a565b610d10565b610284610dcd565b610284610e00565b610284611045565b6102ff6102fa3660046121c8565b6114c2565b60405161022f9190612966565b6102ff61031a3660046121c8565b61155d565b610222611608565b61024061160e565b610284611623565b61024061168b565b6103476116ad565b60405161022f9190612958565b6102406116bc565b61029e6116cc565b610284610372366004612228565b6116db565b61029e611893565b61029e6118a7565b6102406118b6565b6102406118bf565b61029e6118d0565b61029e6118df565b6102846118ee565b610240611a01565b610240611a25565b6102846103cd3660046121c8565b611a35565b61029e611a4f565b610284611a5e565b6002545b90565b3360009081526005602052604090205460ff1690565b6005602052600090815260409020805460039091015460ff91821691818116916101008104821691620100008204811691630100000090041685565b6104436118bf565b61044c57600080fd5b600180547501000000000000000000000000000000000000000000900460ff161515146104975760405160e560020a62461bcd02815260040161048e906129e7565b60405180910390fd5b6001805477010000000000000000000000000000000000000000000000900460ff161515146104db5760405160e560020a62461bcd02815260040161048e906129f7565b60035460405160e060020a6370a082310281526000916101009004600160a060020a0316906370a0823190610514903090600401612874565b60206040518083038186803b15801561052c57600080fd5b505afa158015610540573d6000803e3d6000fd5b505050506040513d601f19601f820116820180604052506105649190810190612328565b905081811061058e57600354610589906101009004600160a060020a03168484611ab1565b6105aa565b6003546105aa906101009004600160a060020a03168483611ab1565b505050565b6001805460a060020a900460ff161515146105df5760405160e560020a62461bcd02815260040161048e90612997565b336000908152600660205260409020541561060f5760405160e560020a62461bcd02815260040161048e906129c7565b60025460035460405160e060020a6370a08231028152610100909104600160a060020a0316906370a0823190610649903390600401612888565b60206040518083038186803b15801561066157600080fd5b505afa158015610675573d6000803e3d6000fd5b505050506040513d601f19601f820116820180604052506106999190810190612328565b10156106ba5760405160e560020a62461bcd02815260040161048e906129b7565b6002546003546106dd91610100909104600160a060020a03169033903090611b50565b600254336000908152600660205260408120919091555b60045481101561073d5733600160a060020a03166004828154811061071557fe5b600091825260209091200154600160a060020a031614156107355761073d565b6001016106f4565b600454811061079657600480546001810182556000919091527f8a35acfbc15ff81a39ae7d344fd709f28e8600b4aa8c65c6b64bfe7fe36bd19b01805473ffffffffffffffffffffffffffffffffffffffff1916331790555b50565b6001805460a060020a900460ff161515146107c95760405160e560020a62461bcd02815260040161048e90612997565b6002543360009081526006602052604090205410156107fd5760405160e560020a62461bcd02815260040161048e906129a7565b60035460405160e060020a6370a082310281526000916101009004600160a060020a0316906370a0823190610836903090600401612874565b60206040518083038186803b15801561084e57600080fd5b505afa158015610862573d6000803e3d6000fd5b505050506040513d601f19601f820116820180604052506108869190810190612328565b905060025481106108b7576002546003546108b291610100909104600160a060020a0316903390611ab1565b6108d3565b6003546108d3906101009004600160a060020a03163383611ab1565b5033600090815260066020526040812055565b600a54600160a060020a031681565b6060806060600480549050604051908082528060200260200182016040528015610929578160200160208202803883390190505b509050606060048054905060405190808252806020026020018201604052801561095d578160200160208202803883390190505b509050610968611cc0565b600160009054906101000a9004600160a060020a0316600160a060020a03166340e1fd226040518163ffffffff1660e060020a0281526004016108206040518083038186803b1580156109ba57600080fd5b505afa1580156109ce573d6000803e3d6000fd5b505050506040513d601f19601f820116820180604052506109f291908101906122eb565b90506000805b600454811015610d03576002546006600060048481548110610a1657fe5b6000918252602080832090910154600160a060020a0316835282019290925260400190205410610cfb5760006005600060048481548110610a5357fe5b6000918252602080832090910154600160a060020a0316835282019290925260400181209150805b601c811015610bab5760035460ff1615156001148015610ab15750856020015181601e8110610aa657fe5b602002015115156001145b8015610ad45750856040015181601e8110610ac857fe5b602002015160ff166001145b15610ade57610ba3565b856020015181601e8110610aee57fe5b602002015115158360010182601e8110610b0457fe5b602081049091015460ff601f9092166101000a90041615151415610b9b5760208601516001929092019181601e8110610b3957fe5b602002015115156001148015610b895750856040015181601e8110610b5a57fe5b602002015160ff168360020182601e8110610b7157fe5b602081049091015460ff601f9092166101000a900416145b15610b9657600191909101905b610ba3565b600019909101905b600101610a7b565b5060035460ff16151560011415610bee578460800151601d811115610bcc57fe5b600383015460ff16601d811115610bdf57fe5b1415610be9576001015b610c1b565b8460600151601d811115610bfe57fe5b600383015460ff16601d811115610c1157fe5b1415610c1b576001015b8460a00151601d811115610c2b57fe5b600383015462010000900460ff16601d811115610c4457fe5b1415610c4e576001015b8460c00151601d811115610c5e57fe5b60038301546301000000900460ff16601d811115610c7857fe5b1415610c82576001015b80878581518110610c8f57fe5b602002602001019060010b908160010b8152505060048381548110610cb057fe5b9060005260206000200160009054906101000a9004600160a060020a0316868581518110610cda57fe5b600160a060020a039092166020928302919091019091015250506001909101905b6001016109f8565b5092945090925050509091565b610d186118bf565b610d2157600080fd5b60035460405160e060020a6370a08231028152610100909104600160a060020a0316906370a0823190610d58903090600401612874565b60206040518083038186803b158015610d7057600080fd5b505afa158015610d84573d6000803e3d6000fd5b505050506040513d601f19601f82011682018060405250610da89190810190612328565b15610dc85760405160e560020a62461bcd02815260040161048e90612a07565b600255565b610dd56118bf565b610dde57600080fd5b6001805476ff00ff000000000000000000000000000000000000000019169055565b6001805460b060020a900460ff16151514610e305760405160e560020a62461bcd02815260040161048e90612a17565b600254336000908152600660205260409020541015610e645760405160e560020a62461bcd02815260040161048e906129a7565b3360009081526008602052604090205460ff1615610e975760405160e560020a62461bcd02815260040161048e906129d7565b600e546009546000916064900490600160a060020a0316331415610ec057603381029150610f34565b600a54600160a060020a0316331415610ede57601a81029150610f34565b600b54600160a060020a0316331415610efc57600d81029150610f34565b600c54600160a060020a0316331415610f1a57600781029150610f34565b600d54600160a060020a0316331415610f34576003810291505b60008211610f575760405160e560020a62461bcd02815260040161048e90612987565b60035460405160e060020a6370a082310281526000916101009004600160a060020a0316906370a0823190610f90903090600401612874565b60206040518083038186803b158015610fa857600080fd5b505afa158015610fbc573d6000803e3d6000fd5b505050506040513d601f19601f82011682018060405250610fe09190810190612328565b905082811061100a57600354611005906101009004600160a060020a03163385611ab1565b611026565b600354611026906101009004600160a060020a03163383611ab1565b5050336000908152600860205260409020805460ff1916600117905550565b61104d6118bf565b61105657600080fd5b600160009054906101000a9004600160a060020a0316600160a060020a0316633e7c7b906040518163ffffffff1660e060020a02815260040160206040518083038186803b1580156110a757600080fd5b505afa1580156110bb573d6000803e3d6000fd5b505050506040513d601f19601f820116820180604052506110df91908101906122cd565b15156001146111035760405160e560020a62461bcd02815260040161048e90612a27565b60015460b060020a900460ff16156111305760405160e560020a62461bcd02815260040161048e90612977565b6001805475ff000000000000000000000000000000000000000000191675010000000000000000000000000000000000000000001790556060806000808080806103e719808080806111806108f5565b909c509a5060005b8c518110156113cf578260010b8d82815181106111a157fe5b602002602001015160010b13156111b9578291508796505b8360010b8d82815181106111c957fe5b602002602001015160010b13156111e1578392508897505b8460010b8d82815181106111f157fe5b602002602001015160010b1315611209578493508998505b8560010b8d828151811061121957fe5b602002602001015160010b1315611231578594508a99505b8560010b8d828151811061124157fe5b602002602001015160010b1315611283578c818151811061125e57fe5b602002602001015195508b818151811061127457fe5b60200260200101519a506113c7565b8460010b8d828151811061129357fe5b602002602001015160010b13156112d5578c81815181106112b057fe5b602002602001015194508b81815181106112c657fe5b602002602001015199506113c7565b8360010b8d82815181106112e557fe5b602002602001015160010b1315611327578c818151811061130257fe5b602002602001015193508b818151811061131857fe5b602002602001015198506113c7565b8260010b8d828151811061133757fe5b602002602001015160010b1315611379578c818151811061135457fe5b602002602001015192508b818151811061136a57fe5b602002602001015197506113c7565b8160010b8d828151811061138957fe5b602002602001015160010b13156113c7578c81815181106113a657fe5b602002602001015191508b81815181106113bc57fe5b602002602001015196505b600101611188565b506009805473ffffffffffffffffffffffffffffffffffffffff19908116600160a060020a038d811691909117909255600a805482168c8416179055600b805482168b8416179055600c805482168a8416179055600d805490911688831617905560035460405160e060020a6370a08231028152610100909104909116906370a0823190611461903090600401612874565b60206040518083038186803b15801561147957600080fd5b505afa15801561148d573d6000803e3d6000fd5b505050506040513d601f19601f820116820180604052506114b19190810190612328565b600e55505050505050505050505050565b60076020908152600091825260409182902080548351601f6002600019610100600186161502019093169290920491820184900484028101840190945280845290918301828280156115555780601f1061152a57610100808354040283529160200191611555565b820191906000526020600020905b81548152906001019060200180831161153857829003601f168201915b505050505081565b600160a060020a03811660009081526007602090815260409182902080548351601f60026000196101006001861615020190931692909204918201849004840281018401909452808452606093928301828280156115fc5780601f106115d1576101008083540402835291602001916115fc565b820191906000526020600020905b8154815290600101906020018083116115df57829003601f168201915b50505050509050919050565b600e5481565b33600090815260066020526040902054151590565b61162b6118bf565b61163457600080fd5b60008054604051600160a060020a03909116907f8be0079c531659141344cd1fd0a4f28419497f9722a3daafe3b4186f6b6457e0908390a36000805473ffffffffffffffffffffffffffffffffffffffff19169055565b6001547501000000000000000000000000000000000000000000900460ff1681565b600154600160a060020a031681565b60015460a060020a900460ff1681565b600c54600160a060020a031681565b6001805460a060020a900460ff1615151461170b5760405160e560020a62461bcd02815260040161048e90612997565b611713611cc0565b6001815260208101879052604081018690526060810185601d81111561173557fe5b9081601d81111561174257fe5b90525060a0810184601d81111561175557fe5b9081601d81111561176257fe5b90525060c0810183601d81111561177557fe5b9081601d81111561178257fe5b90525033600090815260076020908152604090912083516117a592850190611d0b565b503360009081526005602090815260409091208251815460ff1916901515178155908201518291906117dd906001830190601e611d89565b5060408201516117f3906002830190601e611e17565b50606082015160038201805460ff1916600183601d81111561181157fe5b0217905550608082015160038201805461ff00191661010083601d81111561183557fe5b021790555060a082015160038201805462ff000019166201000083601d81111561185b57fe5b021790555060c082015160038201805463ff0000001916630100000083601d81111561188357fe5b0217905550505050505050505050565b6003546101009004600160a060020a031690565b600054600160a060020a031690565b60035460ff1681565b600054600160a060020a0316331490565b600954600160a060020a031681565b600b54600160a060020a031681565b6118f66118bf565b6118ff57600080fd5b600160009054906101000a9004600160a060020a0316600160a060020a0316633e7c7b906040518163ffffffff1660e060020a02815260040160206040518083038186803b15801561195057600080fd5b505afa158015611964573d6000803e3d6000fd5b505050506040513d601f19601f8201168201806040525061198891908101906122cd565b15156001146119ac5760405160e560020a62461bcd02815260040161048e90612a27565b60015460b060020a900460ff16156119d95760405160e560020a62461bcd02815260040161048e90612977565b6001805476ff00000000000000000000000000000000000000000000191660b060020a179055565b60015477010000000000000000000000000000000000000000000000900460ff1690565b60015460b060020a900460ff1681565b611a3d6118bf565b611a4657600080fd5b61079681611b93565b600d54600160a060020a031681565b611a666118bf565b611a6f57600080fd5b6001805476ff000000000000000000000000000000000000000000001974ff00000000000000000000000000000000000000001990911660a060020a17169055565b6040516105aa9084907fa9059cbb0000000000000000000000000000000000000000000000000000000090611aec90869086906024016128be565b60408051601f198184030181529190526020810180517bffffffffffffffffffffffffffffffffffffffffffffffffffffffff167fffffffff0000000000000000000000000000000000000000000000000000000090931692909217909152611c0e565b604051611b8d9085907f23b872dd0000000000000000000000000000000000000000000000000000000090611aec90879087908790602401612896565b50505050565b600160a060020a038116611ba657600080fd5b60008054604051600160a060020a03808516939216917f8be0079c531659141344cd1fd0a4f28419497f9722a3daafe3b4186f6b6457e091a36000805473ffffffffffffffffffffffffffffffffffffffff1916600160a060020a0392909216919091179055565b611c2082600160a060020a0316611cba565b611c2957600080fd5b6000606083600160a060020a031683604051611c459190612868565b6000604051808303816000865af19150503d8060008114611c82576040519150601f19603f3d011682016040523d82523d6000602084013e611c87565b606091505b509150915081611c9657600080fd5b805115611b8d5780806020019051611cb191908101906122cd565b611b8d57600080fd5b3b151590565b604051806108200160405280600015158152602001611cdd611e6b565b8152602001611cea611e6b565b81526020016000815260200160008152602001600081526020016000905290565b828054600181600116156101000203166002900490600052602060002090601f016020900481019282601f10611d4c57805160ff1916838001178555611d79565b82800160010185558215611d79579182015b82811115611d79578251825591602001919060010190611d5e565b50611d85929150611e8a565b5090565b600183019183908215611e0b5791602002820160005b83821115611ddc57835183826101000a81548160ff0219169083151502179055509260200192600101602081600001049283019260010302611d9f565b8015611e095782816101000a81549060ff0219169055600101602081600001049283019260010302611ddc565b505b50611d85929150611ea4565b600183019183908215611e0b5791602002820160005b83821115611ddc57835183826101000a81548160ff021916908360ff1602179055509260200192600101602081600001049283019260010302611e2d565b604051806103c00160405280601e906020820280388339509192915050565b6103e691905b80821115611d855760008155600101611e90565b6103e691905b80821115611d8557805460ff19168155600101611eaa565b6000611ece8235612aca565b9392505050565b600082601f830112611ee657600080fd5b601e611ef9611ef482612a6c565b612a45565b91508183856020840282011115611f0f57600080fd5b60005b83811015611f3b5781611f258882612074565b8452506020928301929190910190600101611f12565b5050505092915050565b600082601f830112611f5657600080fd5b601e611f64611ef482612a6c565b91508183856020840282011115611f7a57600080fd5b60005b83811015611f3b5781611f908882612068565b8452506020928301929190910190600101611f7d565b600082601f830112611fb757600080fd5b601e611fc5611ef482612a6c565b91508183856020840282011115611fdb57600080fd5b60005b83811015611f3b5781611ff188826121bc565b8452506020928301929190910190600101611fde565b600082601f83011261201857600080fd5b601e612026611ef482612a6c565b9150818385602084028201111561203c57600080fd5b60005b83811015611f3b578161205288826121b0565b845250602092830192919091019060010161203f565b6000611ece8235612ad5565b6000611ece8251612ad5565b6000611ece8235612af8565b6000611ece8251612af8565b600082601f8301126120a957600080fd5b81356120b7611ef482612a8a565b915080825260208301602083018583830111156120d357600080fd5b6120de838284612b2a565b50505092915050565b600061082082840312156120fa57600080fd5b61210460e0612a45565b905060006121128484612074565b825250602061212384848301611ed5565b6020830152506103e061213884828501611fa6565b6040830152506107a061214d8482850161208c565b6060830152506107c06121628482850161208c565b6080830152506107e06121778482850161208c565b60a08301525061080061218c8482850161208c565b60c08301525092915050565b6000611ece82356103e6565b6000611ece82516103e6565b6000611ece8235612b07565b6000611ece8251612b07565b6000602082840312156121da57600080fd5b60006121e68484611ec2565b949350505050565b6000806040838503121561220157600080fd5b600061220d8585611ec2565b925050602061221e85828601612198565b9150509250929050565b600080600080600080610800878903121561224257600080fd5b600061224e8989611f45565b9650506103c061226089828a01612007565b95505061078061227289828a01612080565b9450506107a061228489828a01612080565b9350506107c061229689828a01612080565b9250506107e087013567ffffffffffffffff8111156122b457600080fd5b6122c089828a01612098565b9150509295509295509295565b6000602082840312156122df57600080fd5b60006121e68484612074565b600061082082840312156122fe57600080fd5b60006121e684846120e7565b60006020828403121561231c57600080fd5b60006121e68484612198565b60006020828403121561233a57600080fd5b60006121e684846121a4565b60006123528383612375565b505060200190565b60006123528383612468565b61236f81612b0d565b82525050565b61236f81612aca565b600061238982612ab8565b6123938185612abc565b935061239e83612ab2565b60005b828110156123c9576123b4868351612346565b95506123bf82612ab2565b91506001016123a1565b5093949350505050565b60006123de82612ab8565b6123e88185612abc565b93506123f383612ab2565b60005b828110156123c95761240986835161235a565b955061241482612ab2565b91506001016123f6565b61236f81612ad5565b600061243282612ab8565b61243c8185612ac5565b935061244c818560208601612b36565b9290920192915050565b61236f81612b14565b61236f81612b1f565b61236f81612ae6565b600061247c82612ab8565b6124868185612abc565b9350612496818560208601612b36565b61249f81612b62565b9093019392505050565b60006124b6602383612abc565b7f54686520706f6f6c2068617320616c7265616479206265656e20636f6d706c6581527f7465640000000000000000000000000000000000000000000000000000000000602082015260400192915050565b6000612515601083612abc565b7f596f75206469646e277420706c61636500000000000000000000000000000000815260200192915050565b600061254e601683612abc565b7f50726564696374696f6e732061726520636c6f73656400000000000000000000815260200192915050565b6000612587602483612abc565b7f596f7520646f6e2774206861766520616e792066756e647320696e207468652081527f706f6f6c00000000000000000000000000000000000000000000000000000000602082015260400192915050565b60006125e6603483612abc565b7f596f7572206163636f756e7420646f65736e2774206861766520656e6f75676881527f2066756e647320666f722074686520746f6b656e000000000000000000000000602082015260400192915050565b6000612645602283612abc565b7f596f7520616c726561647920686176652066756e647320696e2074686520706f81527f6f6c000000000000000000000000000000000000000000000000000000000000602082015260400192915050565b60006126a4601483612abc565b7f596f7520616c726561647920636c61696d656421000000000000000000000000815260200192915050565b60006126dd602f83612abc565b7f596f752063616e6e6f7420646973706572736520617761726473207965742e2081527f63616c6c20636f6d706c65746528290000000000000000000000000000000000602082015260400192915050565b600061273c603683612abc565b7f596f752063616e6e6f742064697370657273652066756e6473206576656e207481527f686f75676820796f7527726520746865206f776e657200000000000000000000602082015260400192915050565b600061279b602483612abc565b7f546865726520697320736f6d65207374616b65206c65667420696e207468652081527f706f6f6c00000000000000000000000000000000000000000000000000000000602082015260400192915050565b60006127fa602083612abc565b7f596f752063616e6e6f7420636c61696d20796f757220626f756e747920796574815260200192915050565b6000612833601d83612abc565b7f416e737765727320617265206e6f7420617661696c61626c6520796574000000815260200192915050565b61236f816103e6565b6000611ece8284612427565b602081016128828284612375565b92915050565b602081016128828284612366565b606081016128a48286612375565b6128b16020830185612375565b6121e6604083018461285f565b604081016128cc8285612375565b611ece602083018461285f565b604080825281016128ea81856123d3565b905081810360208301526121e6818461237e565b60208101612882828461241e565b60a0810161291a828861241e565b612927602083018761245f565b612934604083018661245f565b612941606083018561245f565b61294e608083018461245f565b9695505050505050565b602081016128828284612456565b60208082528101611ece8184612471565b60208082528101612882816124a9565b6020808252810161288281612508565b6020808252810161288281612541565b602080825281016128828161257a565b60208082528101612882816125d9565b6020808252810161288281612638565b6020808252810161288281612697565b60208082528101612882816126d0565b602080825281016128828161272f565b602080825281016128828161278e565b60208082528101612882816127ed565b6020808252810161288281612826565b60208101612882828461285f565b60405181810167ffffffffffffffff81118282101715612a6457600080fd5b604052919050565b600067ffffffffffffffff821115612a8357600080fd5b5060200290565b600067ffffffffffffffff821115612aa157600080fd5b506020601f91909101601f19160190565b60200190565b5190565b90815260200190565b919050565b600061288282612aec565b151590565b6000601e8210611d8557fe5b60010b90565b600160a060020a031690565b6000601e8210611d8557600080fd5b60ff1690565b6000612882825b600061288282612aca565b600061288282612ada565b82818337506000910152565b60005b83811015612b51578181015183820152602001612b39565b83811115611b8d5750506000910152565b601f01601f19169056fea265627a7a7230582000bc4380b1d19658430ec1bc7d19cae513d289188551c0a73d9b409e6a502d306c6578706572696d656e74616cf50037",
  "source": "pragma solidity ^0.5.7;\npragma experimental ABIEncoderV2;\n\nimport \"openzeppelin-solidity/contracts/token/ERC20/IERC20.sol\";\nimport \"openzeppelin-solidity/contracts/token/ERC20/SafeERC20.sol\";\nimport \"openzeppelin-solidity/contracts/ownership/Ownable.sol\";\nimport \"./GOTDeathPoolCommon.sol\";\nimport \"./GOTDeathPoolTruth.sol\";\n\ncontract GOTDeathPool is Ownable {\n  using GOTDeathPoolCommon for GOTDeathPoolCommon.Prediction;\n  using GOTDeathPoolCommon for GOTDeathPoolCommon.Character;\n  using SafeERC20 for IERC20;\n\n  GOTDeathPoolTruth public TruthContract;\n  bool public _open;\n  bool public _canDisperse;\n  bool public _canClaim;\n  bool private _ownerCanDisperse;\n  uint256 private _stakeRequired;\n  bool public _skipsFirstEpisode;\n  IERC20 private _token;\n  address[] private _stakers;\n  mapping(address => GOTDeathPoolCommon.Prediction) public predictions;\n  mapping(address => uint256) private pool;\n  mapping(address => string) public names;\n  mapping(address => bool) private claimed;\n  address public _firstPlace;\n  address public _secondPlace;\n  address public _thirdPlace;\n  address public _fourthPlace;\n  address public _fifthPlace;\n  uint256 public _completedBalance;\n\n  uint8 constant NumCharacters = 30;\n  uint8 constant POINTS_FOR_CORRECT_DEATH_GUESS = 1;\n  uint8 constant POINTS_FOR_INCORRECT_DEATH_GUESS = 1;\n  uint8 constant POINTS_FOR_CORRECT_DEATH_EPISODE = 1;\n  uint8 constant POINTS_FOR_CORRECT_FIRST_TO_DIE = 1;\n  uint8 constant POINTS_FOR_CORRECT_LAST_TO_DIE = 1;\n  uint8 constant POINTS_FOR_CORRECT_THRONE = 1;\n\n  uint8 constant FIRST_PLACE_PRIZE_PERCENT = 51;\n  uint8 constant SECOND_PLACE_PRIZE_PERCENT = 26;\n  uint8 constant THIRD_PLACE_PRIZE_PERCENT = 13;\n  uint8 constant FOURTH_PLACE_PRIZE_PERCENT = 7;\n  uint8 constant FIFTH_PLACE_PRIZE_PERCENT = 3;\n\n  modifier predictionsOpen() {\n    require(_open == true, \"Predictions are closed\");\n    _;\n  }\n\n  modifier canClaim() {\n    require(_canClaim == true, \"You cannot claim your bounty yet\");\n    _;\n  }\n\n  modifier canDisperse() {\n    require(_canDisperse == true, \"You cannot disperse awards yet. call complete()\");\n    _;\n  }\n\n  modifier ownerCanDisperse() {\n    require(_ownerCanDisperse == true, \"You cannot disperse funds even though you're the owner\");\n    _;\n  }\n\n  modifier isIncomplete() {\n    require(_canClaim == false, \"The pool has already been completed\");\n    _;\n  }\n\n  modifier noStakers() {\n    require(_token.balanceOf(address(this)) == 0, \"There is some stake left in the pool\");\n    _;\n  }\n\n  modifier answersAvailable() {\n    require(TruthContract.TruthComplete() == true, \"Answers are not available yet\");\n    _;\n  }\n\n  modifier didStake() {\n    require(pool[msg.sender] >= _stakeRequired, \"You don't have any funds in the pool\");\n    _;\n  }\n\n  modifier didNotClaim() {\n    require(claimed[msg.sender] == false, \"You already claimed!\");\n    _;\n  }\n\n  modifier didNotStake() {\n    require(pool[msg.sender] == 0, \"You already have funds in the pool\");\n    _;\n  }\n\n  modifier hasEnoughFunds() {\n    require(_token.balanceOf(msg.sender) >= _stakeRequired, \"Your account doesn't have enough funds for the token\");\n    _;\n  }\n\n  modifier canWithdraw() {\n    require(_token.balanceOf(address(this)) >= _stakeRequired, \"The pool contract doesn't have enough funds to withdraw\");\n    _;\n  }\n\n  constructor(\n    GOTDeathPoolTruth truth,\n    IERC20 token,\n    uint256 stakeRequired,\n    bool canDisperse,\n    bool skipsFirstEpisode\n  )\n    Ownable()\n    public\n  {\n    TruthContract = truth;\n    _open = true;\n    _canClaim = false;\n    _canDisperse = false;\n    _token = token;\n    _stakeRequired = stakeRequired;\n    _ownerCanDisperse = canDisperse;\n    _skipsFirstEpisode = skipsFirstEpisode;\n  }\n\n  function setStakeAmount(uint256 amount) public onlyOwner noStakers {\n    _stakeRequired = amount;\n  }\n\n  function requiredStake() public view returns(uint256) {\n    return _stakeRequired;\n  }\n\n  function requiredToken() public view returns(address) {\n    return address(_token);\n  }\n\n  function ownerCanDisperseFunds() public view returns(bool) {\n    return _ownerCanDisperse;\n  }\n\n  function getName(address a) public view returns(string memory) {\n    return names[a];\n  }\n\n  function tokenAddress() public view returns(address) {\n    return address(_token);\n  }\n\n  function havePredicted() public view returns(bool) {\n    return predictions[msg.sender].isValid;\n  }\n\n  function haveStaked() public view returns(bool) {\n    return pool[msg.sender] > 0;\n  }\n\n  function open() public onlyOwner {\n    _open = true;\n    _canClaim = false;\n  }\n\n  function close() public onlyOwner {\n    _open = false;\n    _canClaim = false;\n  }\n\n  function predict(\n    bool[30] memory dies,\n    uint8[30] memory deathEpisode,\n    GOTDeathPoolCommon.Character firstToDie,\n    GOTDeathPoolCommon.Character lastToDie,\n    GOTDeathPoolCommon.Character lastOnThrone,\n    string memory name\n  )\n    public\n    predictionsOpen\n  {\n    GOTDeathPoolCommon.Prediction memory prediction;\n    prediction.isValid = true;\n    prediction.dies = dies;\n    prediction.deathEpisode = deathEpisode;\n    prediction.firstToDie = firstToDie;\n    prediction.lastToDie = lastToDie;\n    prediction.lastOnThrone = lastOnThrone;\n    names[msg.sender] = name;\n    predictions[msg.sender] = prediction;\n  }\n\n  function stake() public predictionsOpen didNotStake hasEnoughFunds {\n    _token.safeTransferFrom(msg.sender, address(this), _stakeRequired);\n    pool[msg.sender] = _stakeRequired;\n    uint i = 0;\n    for (i = 0; i < _stakers.length; i++) {\n      if (_stakers[i] == msg.sender) {\n        break;\n      }\n    }\n    if (i >= _stakers.length) {\n      _stakers.push(msg.sender);\n    }\n  }\n\n  function withdraw() public predictionsOpen didStake {\n    uint256 poolBalance = _token.balanceOf(address(this));\n    if (poolBalance >= _stakeRequired) {\n      _token.safeTransfer(msg.sender, _stakeRequired);\n    }\n    else {\n      _token.safeTransfer(msg.sender, poolBalance);\n    }\n    pool[msg.sender] = 0;\n  }\n\n  function calculatePoints() public view returns (int16[] memory, address[] memory) {\n    int16[] memory resultPoints = new int16[](_stakers.length);\n    address[] memory resultAddresses = new address[](_stakers.length);\n\n    GOTDeathPoolCommon.Prediction memory truth = TruthContract.GetTruthState();\n\n    uint validStakers = 0;\n    for (uint i = 0; i < _stakers.length; i++) {\n      if (pool[_stakers[i]] >= _stakeRequired) {\n        // this account is a candidate\n        GOTDeathPoolCommon.Prediction storage prediction = predictions[_stakers[i]];\n        int16 points = 0;\n\n        for (uint j = 0; j < NumCharacters - 2; j++) {\n          if (\n            _skipsFirstEpisode == true &&\n            truth.dies[j] == true &&\n            truth.deathEpisode[j] == 1\n          ) {\n            continue;\n          }\n\n          if (prediction.dies[j] == truth.dies[j]) {\n            points = points + POINTS_FOR_CORRECT_DEATH_GUESS;\n\n            if (truth.dies[j] == true && prediction.deathEpisode[j] == truth.deathEpisode[j]) {\n              points = points + POINTS_FOR_CORRECT_DEATH_EPISODE;\n            }\n          }\n          else {\n            points = points - POINTS_FOR_INCORRECT_DEATH_GUESS;\n          }\n        }\n\n        if (_skipsFirstEpisode == true) {\n          // if we skip the first episode, just use first to die after episode 1\n          if (prediction.firstToDie == truth.firstToDieAfterFirstEpisode) {\n            points = points + POINTS_FOR_CORRECT_FIRST_TO_DIE;\n          }\n        }\n        else {\n          // if we don't skip the first episode, just use first to die\n          if (prediction.firstToDie == truth.firstToDie) {\n            points = points + POINTS_FOR_CORRECT_FIRST_TO_DIE;\n          }\n        }\n\n        if (prediction.lastToDie == truth.lastToDie) {\n          points = points + POINTS_FOR_CORRECT_LAST_TO_DIE;\n        }\n\n        if (prediction.lastOnThrone == truth.lastOnThrone) {\n          points = points + POINTS_FOR_CORRECT_THRONE;\n        }\n\n        resultPoints[validStakers] = points;\n        resultAddresses[validStakers] = _stakers[i];\n        validStakers++;\n      }\n    }\n\n    return (resultPoints, resultAddresses);\n  }\n\n  function complete() public onlyOwner answersAvailable isIncomplete {\n    _canDisperse = true;\n    int16[] memory resultPoints;\n    address[] memory resultAddresses;\n\n    address firstPlace;\n    address secondPlace;\n    address thirdPlace;\n    address fourthPlace;\n    address fifthPlace;\n\n    int16 firstPlacePoints = -1000;\n    int16 secondPlacePoints = -1000;\n    int16 thirdPlacePoints = -1000;\n    int16 fourthPlacePoints = -1000;\n    int16 fifthPlacePoints = -1000;\n\n    (resultPoints, resultAddresses) = calculatePoints();\n\n    for (uint i = 0; i < resultPoints.length; i++) {\n      if (resultPoints[i] > fourthPlacePoints) {\n        fifthPlacePoints = fourthPlacePoints;\n\n        fifthPlace = fourthPlace;\n      }\n      if (resultPoints[i] > thirdPlacePoints) {\n        fourthPlacePoints = thirdPlacePoints;\n\n        fourthPlace = thirdPlace;\n      }\n      if (resultPoints[i] > secondPlacePoints) {\n        thirdPlacePoints = secondPlacePoints;\n\n        thirdPlace = secondPlace;\n      }\n      if (resultPoints[i] > firstPlacePoints) {\n        secondPlacePoints = firstPlacePoints;\n\n        secondPlace = firstPlace;\n      }\n\n      if (resultPoints[i] > firstPlacePoints) {\n        firstPlacePoints = resultPoints[i];\n\n        firstPlace = resultAddresses[i];\n      }\n      else if (resultPoints[i] > secondPlacePoints) {\n        secondPlacePoints = resultPoints[i];\n\n        secondPlace = resultAddresses[i];\n      }\n      else if (resultPoints[i] > thirdPlacePoints) {\n        thirdPlacePoints = resultPoints[i];\n\n        thirdPlace = resultAddresses[i];\n      }\n      else if (resultPoints[i] > fourthPlacePoints) {\n        fourthPlacePoints = resultPoints[i];\n\n        fourthPlace = resultAddresses[i];\n      }\n      else if (resultPoints[i] > fifthPlacePoints) {\n        fifthPlacePoints = resultPoints[i];\n\n        fifthPlace = resultAddresses[i];\n      }\n    }\n\n    _firstPlace = firstPlace;\n    _secondPlace = secondPlace;\n    _thirdPlace = thirdPlace;\n    _fourthPlace = fourthPlace;\n    _fifthPlace = fifthPlace;\n\n    _completedBalance = _token.balanceOf(address(this));\n  }\n\n  function disperse(address recipient, uint256 amount) public onlyOwner canDisperse ownerCanDisperse {\n    uint256 poolBalance = _token.balanceOf(address(this));\n    if (poolBalance >= amount) {\n      _token.safeTransfer(recipient, amount);\n    }\n    else {\n      _token.safeTransfer(recipient, poolBalance);\n    }\n  }\n\n  function allowClaiming() public onlyOwner answersAvailable isIncomplete {\n    _canClaim = true;\n  }\n\n  function claim() public canClaim didStake didNotClaim {\n    uint256 awardBalance = 0;\n    uint256 balancePercent = _completedBalance / 100;\n\n    if (msg.sender == _firstPlace) {\n      awardBalance = balancePercent * FIRST_PLACE_PRIZE_PERCENT;\n    }\n    else if (msg.sender == _secondPlace) {\n      awardBalance = balancePercent * SECOND_PLACE_PRIZE_PERCENT;\n    }\n    else if (msg.sender == _thirdPlace) {\n      awardBalance = balancePercent * THIRD_PLACE_PRIZE_PERCENT;\n    }\n    else if (msg.sender == _fourthPlace) {\n      awardBalance = balancePercent * FOURTH_PLACE_PRIZE_PERCENT;\n    }\n    else if (msg.sender == _fifthPlace) {\n      awardBalance = balancePercent * FIFTH_PLACE_PRIZE_PERCENT;\n    }\n\n    require(awardBalance > 0, \"You didn't place\");\n\n    uint256 poolBalance = _token.balanceOf(address(this));\n\n    if (poolBalance >= awardBalance) {\n      _token.safeTransfer(msg.sender, awardBalance);\n    }\n    else {\n      _token.safeTransfer(msg.sender, poolBalance);\n    }\n\n    claimed[msg.sender] = true;\n  }\n}\n",
  "sourcePath": "/home/mike/projects/game-of-thrones-death-pool/contracts/GOTDeathPool.sol",
  "compiler": {
    "name": "solc",
    "version": "0.5.7+commit.6da8b019.Emscripten.clang"
  },
  "schemaVersion": "3.0.2",
  "updatedAt": "2019-04-14T20:33:32.182Z",
  "devdoc": {
    "methods": {
      "isOwner()": {
        "return": "true if `msg.sender` is the owner of the contract."
      },
      "owner()": {
        "return": "the address of the owner."
      },
      "renounceOwnership()": {
        "details": "Allows the current owner to relinquish control of the contract. It will not be possible to call the functions with the `onlyOwner` modifier anymore."
      },
      "transferOwnership(address)": {
        "details": "Allows the current owner to transfer control of the contract to a newOwner.",
        "params": {
          "newOwner": "The address to transfer ownership to."
        }
      }
    }
  },
  "userdoc": {
    "methods": {
      "renounceOwnership()": {
        "notice": "Renouncing ownership will leave the contract without an owner, thereby removing any functionality that is only available to the owner."
      }
    }
  }
}