{
  "contractName": "GOTDeathPoolTruth",
  "abi": [
    {
      "constant": true,
      "inputs": [],
      "name": "TruthState",
      "outputs": [
        {
          "name": "isValid",
          "type": "bool"
        },
        {
          "name": "firstToDie",
          "type": "uint8"
        },
        {
          "name": "firstToDieAfterFirstEpisode",
          "type": "uint8"
        },
        {
          "name": "lastToDie",
          "type": "uint8"
        },
        {
          "name": "lastOnThrone",
          "type": "uint8"
        }
      ],
      "payable": false,
      "stateMutability": "view",
      "type": "function"
    },
    {
      "constant": true,
      "inputs": [],
      "name": "TruthComplete",
      "outputs": [
        {
          "name": "",
          "type": "bool"
        }
      ],
      "payable": false,
      "stateMutability": "view",
      "type": "function"
    },
    {
      "constant": false,
      "inputs": [],
      "name": "renounceOwnership",
      "outputs": [],
      "payable": false,
      "stateMutability": "nonpayable",
      "type": "function"
    },
    {
      "constant": true,
      "inputs": [],
      "name": "owner",
      "outputs": [
        {
          "name": "",
          "type": "address"
        }
      ],
      "payable": false,
      "stateMutability": "view",
      "type": "function"
    },
    {
      "constant": true,
      "inputs": [],
      "name": "isOwner",
      "outputs": [
        {
          "name": "",
          "type": "bool"
        }
      ],
      "payable": false,
      "stateMutability": "view",
      "type": "function"
    },
    {
      "constant": false,
      "inputs": [
        {
          "name": "newOwner",
          "type": "address"
        }
      ],
      "name": "transferOwnership",
      "outputs": [],
      "payable": false,
      "stateMutability": "nonpayable",
      "type": "function"
    },
    {
      "inputs": [],
      "payable": false,
      "stateMutability": "nonpayable",
      "type": "constructor"
    },
    {
      "anonymous": false,
      "inputs": [
        {
          "indexed": true,
          "name": "previousOwner",
          "type": "address"
        },
        {
          "indexed": true,
          "name": "newOwner",
          "type": "address"
        }
      ],
      "name": "OwnershipTransferred",
      "type": "event"
    },
    {
      "constant": true,
      "inputs": [],
      "name": "GetTruthState",
      "outputs": [
        {
          "components": [
            {
              "name": "isValid",
              "type": "bool"
            },
            {
              "name": "dies",
              "type": "bool[30]"
            },
            {
              "name": "deathEpisode",
              "type": "uint8[30]"
            },
            {
              "name": "firstToDie",
              "type": "uint8"
            },
            {
              "name": "firstToDieAfterFirstEpisode",
              "type": "uint8"
            },
            {
              "name": "lastToDie",
              "type": "uint8"
            },
            {
              "name": "lastOnThrone",
              "type": "uint8"
            }
          ],
          "name": "",
          "type": "tuple"
        }
      ],
      "payable": false,
      "stateMutability": "view",
      "type": "function"
    },
    {
      "constant": true,
      "inputs": [],
      "name": "GetTruthDies",
      "outputs": [
        {
          "name": "",
          "type": "bool[30]"
        }
      ],
      "payable": false,
      "stateMutability": "view",
      "type": "function"
    },
    {
      "constant": true,
      "inputs": [],
      "name": "GetTruthDeathEpisode",
      "outputs": [
        {
          "name": "",
          "type": "uint8[30]"
        }
      ],
      "payable": false,
      "stateMutability": "view",
      "type": "function"
    },
    {
      "constant": true,
      "inputs": [],
      "name": "GetTruthFirstToDie",
      "outputs": [
        {
          "name": "",
          "type": "uint8"
        }
      ],
      "payable": false,
      "stateMutability": "view",
      "type": "function"
    },
    {
      "constant": true,
      "inputs": [],
      "name": "GetTruthFirstToDieAfterFirstEpisode",
      "outputs": [
        {
          "name": "",
          "type": "uint8"
        }
      ],
      "payable": false,
      "stateMutability": "view",
      "type": "function"
    },
    {
      "constant": true,
      "inputs": [],
      "name": "GetTruthLastToDie",
      "outputs": [
        {
          "name": "",
          "type": "uint8"
        }
      ],
      "payable": false,
      "stateMutability": "view",
      "type": "function"
    },
    {
      "constant": true,
      "inputs": [],
      "name": "GetTruthLastOnThrone",
      "outputs": [
        {
          "name": "",
          "type": "uint8"
        }
      ],
      "payable": false,
      "stateMutability": "view",
      "type": "function"
    },
    {
      "constant": false,
      "inputs": [
        {
          "name": "character",
          "type": "uint8"
        }
      ],
      "name": "logFirstToDie",
      "outputs": [],
      "payable": false,
      "stateMutability": "nonpayable",
      "type": "function"
    },
    {
      "constant": false,
      "inputs": [
        {
          "name": "character",
          "type": "uint8"
        }
      ],
      "name": "logFirstToDieAfterFirstEpisode",
      "outputs": [],
      "payable": false,
      "stateMutability": "nonpayable",
      "type": "function"
    },
    {
      "constant": false,
      "inputs": [
        {
          "name": "character",
          "type": "uint8"
        }
      ],
      "name": "logLastToDie",
      "outputs": [],
      "payable": false,
      "stateMutability": "nonpayable",
      "type": "function"
    },
    {
      "constant": false,
      "inputs": [
        {
          "name": "deathState",
          "type": "bool[30]"
        },
        {
          "name": "episodeNumber",
          "type": "uint8"
        },
        {
          "name": "throneOwner",
          "type": "uint8"
        }
      ],
      "name": "logEpisode",
      "outputs": [],
      "payable": false,
      "stateMutability": "nonpayable",
      "type": "function"
    },
    {
      "constant": false,
      "inputs": [],
      "name": "incomplete",
      "outputs": [],
      "payable": false,
      "stateMutability": "nonpayable",
      "type": "function"
    },
    {
      "constant": false,
      "inputs": [],
      "name": "complete",
      "outputs": [],
      "payable": false,
      "stateMutability": "nonpayable",
      "type": "function"
    }
  ],
  "bytecode": "0x608060405234801561001057600080fd5b5060008054600160a060020a0319163317808255604051600160a060020a039190911691907f8be0079c531659141344cd1fd0a4f28419497f9722a3daafe3b4186f6b6457e0908290a360048054621d000062ff000019611d0061ff001960ff19630400000063ff00000019909616959095178516601d1716171617909155600580549091169055610dc4806100a76000396000f3fe608060405234801561001057600080fd5b506004361061013e576000357c010000000000000000000000000000000000000000000000000000000090048063684ee8a9116100ca578063997d06511161008e578063997d06511461023e578063be77a22e14610251578063ddba518914610259578063f2fde38b14610261578063fed39eed146102745761013e565b8063684ee8a9146101fc57806370ef8fa714610204578063715018a6146102195780638da5cb5b146102215780638f32d59b146102365761013e565b806340e1fd221161011157806340e1fd22146101a457806343cdf353146101b95780634d76ec75146101ce578063522e1177146101e157806357daf077146101e95761013e565b806303e2ff37146101435780631c24aec11461015857806338c62ec91461017a5780633e7c7b901461018f575b600080fd5b610156610151366004610a1a565b61027c565b005b6101606102b0565b604051610171959493929190610c7c565b60405180910390f35b6101826102dc565b6040516101719190610c5f565b610197610335565b6040516101719190610c6e565b6101ac61033e565b6040516101719190610cd6565b6101c16104ba565b6040516101719190610cc8565b6101566101dc366004610a1a565b6104ca565b6101566104f8565b6101566101f73660046109ca565b610518565b6101c16106ab565b61020c6106ba565b6040516101719190610c50565b610156610715565b61022961077d565b6040516101719190610c3c565b61019761078c565b61015661024c366004610a1a565b61079d565b6101c16107c7565b6101c16107d0565b61015661026f3660046109a4565b6107de565b6101566107fb565b61028461078c565b61028d57600080fd5b6004805482919061ff00191661010083601d8111156102a857fe5b021790555050565b60015460045460ff91821691818116916101008104821691620100008204811691630100000090041685565b6102e4610893565b604080516103c081019182905290600390601e90826000855b825461010083900a900460ff168152602060019283018181049485019490930390920291018084116102fd5790505050505050905090565b60055460ff1681565b6103466108b2565b6040805160e0810182526001805460ff161515825282516103c0810193849052919290916020840191600290601e90826000855b825461010083900a900460ff16151581526020600192830181810494850194909303909202910180841161037a575050509284525050604080516103c081019182905260209093019291506002840190601e90826000855b825461010083900a900460ff168152602060019283018181049485019490930390920291018084116103d257505050928452505050600382015460209091019060ff16601d81111561042057fe5b601d81111561042b57fe5b81526020016003820160019054906101000a900460ff16601d81111561044d57fe5b601d81111561045857fe5b81526020016003820160029054906101000a900460ff16601d81111561047a57fe5b601d81111561048557fe5b81526020016003820160039054906101000a900460ff16601d8111156104a757fe5b601d8111156104b257fe5b905250905090565b6004546301000000900460ff1690565b6104d261078c565b6104db57600080fd5b6004805482919062ff000019166201000083601d8111156102a857fe5b61050061078c565b61050957600080fd5b6005805460ff19166001179055565b61052061078c565b61052957600080fd5b60005b601e60ff8216101561065757838160ff16601e811061054757fe5b60200201511515600114156105eb57600260ff8216601e811061056657fe5b602081049091015460ff601f9092166101000a9004166105e6576001600260ff8316601e811061059257fe5b602091828204019190066101000a81548160ff0219169083151502179055508260016002018260ff16601e81106105c557fe5b602091828204019190066101000a81548160ff021916908360ff1602179055505b61064f565b600260ff8216601e81106105fb57fe5b602091828204019190069054906101000a900460ff16151560011515141561064f576000600260ff8316601e811061062f57fe5b602091828204019190066101000a81548160ff0219169083151502179055505b60010161052c565b5080601d81111561066457fe5b6004546301000000900460ff16601d81111561067c57fe5b146106a6576004805482919063ff0000001916630100000083601d8111156106a057fe5b02179055505b505050565b60045462010000900460ff1690565b6106c2610893565b604080516103c081019182905290600290601e90826000855b825461010083900a900460ff1615158152602060019283018181049485019490930390920291018084116106db5790505050505050905090565b61071d61078c565b61072657600080fd5b60008054604051600160a060020a03909116907f8be0079c531659141344cd1fd0a4f28419497f9722a3daafe3b4186f6b6457e0908390a36000805473ffffffffffffffffffffffffffffffffffffffff19169055565b600054600160a060020a031690565b600054600160a060020a0316331490565b6107a561078c565b6107ae57600080fd5b6004805482919060ff1916600183601d8111156102a857fe5b60045460ff1690565b600454610100900460ff1690565b6107e661078c565b6107ef57600080fd5b6107f881610818565b50565b61080361078c565b61080c57600080fd5b6005805460ff19169055565b600160a060020a03811661082b57600080fd5b60008054604051600160a060020a03808516939216917f8be0079c531659141344cd1fd0a4f28419497f9722a3daafe3b4186f6b6457e091a36000805473ffffffffffffffffffffffffffffffffffffffff1916600160a060020a0392909216919091179055565b604051806103c00160405280601e906020820280388339509192915050565b6040518061082001604052806000151581526020016108cf610893565b81526020016108dc610893565b81526020016000815260200160008152602001600081526020016000905290565b60006109098235610d3e565b9392505050565b600082601f83011261092157600080fd5b601e61093461092f82610d0c565b610ce5565b9150818385602084028201111561094a57600080fd5b60005b8381101561097657816109608882610980565b845250602092830192919091019060010161094d565b5050505092915050565b60006109098235610d49565b60006109098235610d70565b60006109098235610d6a565b6000602082840312156109b657600080fd5b60006109c284846108fd565b949350505050565b600080600061040084860312156109e057600080fd5b60006109ec8686610910565b9350506103c06109fe86828701610998565b9250506103e0610a108682870161098c565b9150509250925092565b600060208284031215610a2c57600080fd5b60006109c2848461098c565b6000610a448383610b92565b505060200190565b6000610a448383610c33565b610a6181610d3e565b82525050565b610a7081610d2d565b610a7a8184610d39565b9250610a8582610d2a565b60005b82811015610ab057610a9b858351610a38565b9450610aa682610d33565b9150600101610a88565b5050505050565b610ac081610d2d565b610aca8184610d39565b9250610ad582610d2a565b60005b82811015610ab057610aeb858351610a38565b9450610af682610d33565b9150600101610ad8565b610b0981610d2d565b610b138184610d39565b9250610b1e82610d2a565b60005b82811015610ab057610b34858351610a4c565b9450610b3f82610d33565b9150600101610b21565b610b5281610d2d565b610b5c8184610d39565b9250610b6782610d2a565b60005b82811015610ab057610b7d858351610a4c565b9450610b8882610d33565b9150600101610b6a565b610a6181610d49565b610a6181610d7f565b8051610820830190610bb68482610b92565b506020820151610bc96020850182610ab7565b506040820151610bdd6103e0850182610b49565b506060820151610bf16107a0850182610b9b565b506080820151610c056107c0850182610b9b565b5060a0820151610c196107e0850182610b9b565b5060c0820151610c2d610800850182610b9b565b50505050565b610a6181610d6a565b60208101610c4a8284610a58565b92915050565b6103c08101610c4a8284610a67565b6103c08101610c4a8284610b00565b60208101610c4a8284610b92565b60a08101610c8a8288610b92565b610c976020830187610b9b565b610ca46040830186610b9b565b610cb16060830185610b9b565b610cbe6080830184610b9b565b9695505050505050565b60208101610c4a8284610b9b565b6108208101610c4a8284610ba4565b60405181810167ffffffffffffffff81118282101715610d0457600080fd5b604052919050565b600067ffffffffffffffff821115610d2357600080fd5b5060200290565b90565b50601e90565b60200190565b919050565b6000610c4a82610d5e565b151590565b6000601e8210610d5a57fe5b5090565b600160a060020a031690565b60ff1690565b6000601e8210610d5a57600080fd5b6000610c4a82610d4e56fea265627a7a723058209d14fb432a2e47563f93a825069705d4e4e4c3518eddbd339bb4fd51e49cd2086c6578706572696d656e74616cf50037",
  "source": "pragma solidity ^0.5.7;\npragma experimental ABIEncoderV2;\n\nimport \"openzeppelin-solidity/contracts/ownership/Ownable.sol\";\nimport \"./GOTDeathPoolCommon.sol\";\n\n/*\n * This contract will be deployed at least once and can be refered\n * by other instances of GOTDeathPool so the owner of every pool\n * doesn't each have to mark truth (they can if they want though).\n *\n * Ideally, the owner of this contract would mark deaths/brought back\n * to life at the end of every episode so users can track their current\n * standing on the dapp. I'm thinking a single function that modifies the\n * one truth prediction state variable. the function would provide an array\n * of death state and the episode number\n */\ncontract GOTDeathPoolTruth is Ownable {\n  using GOTDeathPoolCommon for GOTDeathPoolCommon.Prediction;\n  using GOTDeathPoolCommon for GOTDeathPoolCommon.Character;\n\n  uint8 constant NumCharacters = 30;\n\n  GOTDeathPoolCommon.Prediction public TruthState;\n  bool public TruthComplete;\n\n  constructor()\n    Ownable()\n    public\n  {\n    TruthState.lastOnThrone = GOTDeathPoolCommon.Character.CerseiLannister;\n    TruthState.firstToDie = GOTDeathPoolCommon.Character.NewCharacter;\n    TruthState.firstToDieAfterFirstEpisode = GOTDeathPoolCommon.Character.NewCharacter;\n    TruthState.lastToDie = GOTDeathPoolCommon.Character.NewCharacter;\n    TruthComplete = false;\n  }\n\n  function GetTruthState() public view returns (GOTDeathPoolCommon.Prediction memory) {\n    return TruthState;\n  }\n\n  function GetTruthDies() public view returns (bool[NumCharacters] memory) {\n    return TruthState.dies;\n  }\n\n  function GetTruthDeathEpisode() public view returns (uint8[NumCharacters] memory) {\n    return TruthState.deathEpisode;\n  }\n\n  function GetTruthFirstToDie() public view returns (GOTDeathPoolCommon.Character) {\n    return TruthState.firstToDie;\n  }\n\n  function GetTruthFirstToDieAfterFirstEpisode() public view returns (GOTDeathPoolCommon.Character) {\n    return TruthState.firstToDieAfterFirstEpisode;\n  }\n\n  function GetTruthLastToDie() public view returns (GOTDeathPoolCommon.Character) {\n    return TruthState.lastToDie;\n  }\n\n  function GetTruthLastOnThrone() public view returns (GOTDeathPoolCommon.Character) {\n    return TruthState.lastOnThrone;\n  }\n\n  function logFirstToDie(GOTDeathPoolCommon.Character character) public onlyOwner {\n    TruthState.firstToDie = character;\n  }\n\n  function logFirstToDieAfterFirstEpisode(GOTDeathPoolCommon.Character character) public onlyOwner {\n    TruthState.firstToDieAfterFirstEpisode = character;\n  }\n\n  function logLastToDie(GOTDeathPoolCommon.Character character) public onlyOwner {\n    TruthState.lastToDie = character;\n  }\n\n  function logEpisode(bool[NumCharacters] memory deathState, uint8 episodeNumber, GOTDeathPoolCommon.Character throneOwner) public onlyOwner {\n    for (uint8 i = 0; i < NumCharacters; i++) {\n      if (deathState[i] == true) {\n        // character dead\n        if (TruthState.dies[i] == false) {\n          // character died this episode\n          TruthState.dies[i] = true;\n          TruthState.deathEpisode[i] = episodeNumber;\n        }\n      }\n      else {\n        // character is alive\n        if (TruthState.dies[i] == true) {\n          // character came back to life this episode\n          TruthState.dies[i] = false;\n          // wont update deathEpisode in case we want to give kudos anyway for guessing the original death\n        }\n      }\n    }\n\n    if (TruthState.lastOnThrone != throneOwner) {\n      TruthState.lastOnThrone = throneOwner;\n    }\n  }\n\n  function incomplete() public onlyOwner {\n    TruthComplete = false;\n  }\n\n  function complete() public onlyOwner {\n    TruthComplete = true;\n  }\n}\n",
  "sourcePath": "/home/mike/projects/game-of-thrones-death-pool/contracts/GOTDeathPoolTruth.sol",
  "compiler": {
    "name": "solc",
    "version": "0.5.7+commit.6da8b019.Emscripten.clang"
  },
  "schemaVersion": "3.0.2",
  "updatedAt": "2019-04-14T21:09:59.520Z",
  "devdoc": {
    "methods": {
      "isOwner()": {
        "return": "true if `msg.sender` is the owner of the contract."
      },
      "owner()": {
        "return": "the address of the owner."
      },
      "renounceOwnership()": {
        "details": "Allows the current owner to relinquish control of the contract. It will not be possible to call the functions with the `onlyOwner` modifier anymore."
      },
      "transferOwnership(address)": {
        "details": "Allows the current owner to transfer control of the contract to a newOwner.",
        "params": {
          "newOwner": "The address to transfer ownership to."
        }
      }
    }
  },
  "userdoc": {
    "methods": {
      "renounceOwnership()": {
        "notice": "Renouncing ownership will leave the contract without an owner, thereby removing any functionality that is only available to the owner."
      }
    }
  }
}