{
  "contractName": "GOTDeathPoolTruth",
  "abi": [
    {
      "constant": true,
      "inputs": [],
      "name": "TruthState",
      "outputs": [
        {
          "name": "isValid",
          "type": "bool"
        },
        {
          "name": "firstToDie",
          "type": "uint8"
        },
        {
          "name": "firstToDieAfterFirstEpisode",
          "type": "uint8"
        },
        {
          "name": "lastToDie",
          "type": "uint8"
        },
        {
          "name": "lastOnThrone",
          "type": "uint8"
        }
      ],
      "payable": false,
      "stateMutability": "view",
      "type": "function"
    },
    {
      "constant": true,
      "inputs": [],
      "name": "TruthComplete",
      "outputs": [
        {
          "name": "",
          "type": "bool"
        }
      ],
      "payable": false,
      "stateMutability": "view",
      "type": "function"
    },
    {
      "constant": false,
      "inputs": [],
      "name": "renounceOwnership",
      "outputs": [],
      "payable": false,
      "stateMutability": "nonpayable",
      "type": "function"
    },
    {
      "constant": true,
      "inputs": [],
      "name": "owner",
      "outputs": [
        {
          "name": "",
          "type": "address"
        }
      ],
      "payable": false,
      "stateMutability": "view",
      "type": "function"
    },
    {
      "constant": true,
      "inputs": [],
      "name": "isOwner",
      "outputs": [
        {
          "name": "",
          "type": "bool"
        }
      ],
      "payable": false,
      "stateMutability": "view",
      "type": "function"
    },
    {
      "constant": false,
      "inputs": [
        {
          "name": "newOwner",
          "type": "address"
        }
      ],
      "name": "transferOwnership",
      "outputs": [],
      "payable": false,
      "stateMutability": "nonpayable",
      "type": "function"
    },
    {
      "inputs": [],
      "payable": false,
      "stateMutability": "nonpayable",
      "type": "constructor"
    },
    {
      "anonymous": false,
      "inputs": [
        {
          "indexed": true,
          "name": "previousOwner",
          "type": "address"
        },
        {
          "indexed": true,
          "name": "newOwner",
          "type": "address"
        }
      ],
      "name": "OwnershipTransferred",
      "type": "event"
    },
    {
      "constant": true,
      "inputs": [],
      "name": "GetTruthState",
      "outputs": [
        {
          "components": [
            {
              "name": "isValid",
              "type": "bool"
            },
            {
              "name": "dies",
              "type": "bool[30]"
            },
            {
              "name": "deathEpisode",
              "type": "uint8[30]"
            },
            {
              "name": "firstToDie",
              "type": "uint8"
            },
            {
              "name": "firstToDieAfterFirstEpisode",
              "type": "uint8"
            },
            {
              "name": "lastToDie",
              "type": "uint8"
            },
            {
              "name": "lastOnThrone",
              "type": "uint8"
            }
          ],
          "name": "",
          "type": "tuple"
        }
      ],
      "payable": false,
      "stateMutability": "view",
      "type": "function"
    },
    {
      "constant": false,
      "inputs": [
        {
          "name": "character",
          "type": "uint8"
        }
      ],
      "name": "logFirstToDie",
      "outputs": [],
      "payable": false,
      "stateMutability": "nonpayable",
      "type": "function"
    },
    {
      "constant": false,
      "inputs": [
        {
          "name": "character",
          "type": "uint8"
        }
      ],
      "name": "logFirstToDieAfterFirstEpisode",
      "outputs": [],
      "payable": false,
      "stateMutability": "nonpayable",
      "type": "function"
    },
    {
      "constant": false,
      "inputs": [
        {
          "name": "character",
          "type": "uint8"
        }
      ],
      "name": "logLastToDie",
      "outputs": [],
      "payable": false,
      "stateMutability": "nonpayable",
      "type": "function"
    },
    {
      "constant": false,
      "inputs": [
        {
          "name": "deathState",
          "type": "bool[30]"
        },
        {
          "name": "episodeNumber",
          "type": "uint8"
        },
        {
          "name": "throneOwner",
          "type": "uint8"
        }
      ],
      "name": "logEpisode",
      "outputs": [],
      "payable": false,
      "stateMutability": "nonpayable",
      "type": "function"
    },
    {
      "constant": false,
      "inputs": [],
      "name": "incomplete",
      "outputs": [],
      "payable": false,
      "stateMutability": "nonpayable",
      "type": "function"
    },
    {
      "constant": false,
      "inputs": [],
      "name": "complete",
      "outputs": [],
      "payable": false,
      "stateMutability": "nonpayable",
      "type": "function"
    }
  ],
  "bytecode": "0x608060405234801561001057600080fd5b5060008054600160a060020a0319163317808255604051600160a060020a039190911691907f8be0079c531659141344cd1fd0a4f28419497f9722a3daafe3b4186f6b6457e0908290a360048054621d000062ff00001960ff19630400000063ff00000019909416939093178316601d171617909155600580549091169055610b738061009e6000396000f3fe608060405234801561001057600080fd5b50600436106100ec576000357c01000000000000000000000000000000000000000000000000000000009004806357daf077116100a95780638f32d59b116100835780638f32d59b1461019d578063997d0651146101a5578063f2fde38b146101b8578063fed39eed146101cb576100ec565b806357daf0771461016d578063715018a6146101805780638da5cb5b14610188576100ec565b806303e2ff37146100f15780631c24aec1146101065780633e7c7b901461012857806340e1fd221461013d5780634d76ec7514610152578063522e117714610165575b600080fd5b6101046100ff366004610887565b6101d3565b005b61010e610207565b60405161011f959493929190610a39565b60405180910390f35b610130610233565b60405161011f9190610a2b565b61014561023c565b60405161011f9190610a85565b610104610160366004610887565b6103b8565b6101046103e6565b61010461017b366004610837565b610406565b610104610599565b610190610601565b60405161011f9190610a17565b610130610610565b6101046101b3366004610887565b610621565b6101046101c6366004610811565b61064b565b610104610668565b6101db610610565b6101e457600080fd5b6004805482919061ff00191661010083601d8111156101ff57fe5b021790555050565b60015460045460ff91821691818116916101008104821691620100008204811691630100000090041685565b60055460ff1681565b610244610700565b6040805160e0810182526001805460ff161515825282516103c0810193849052919290916020840191600290601e90826000855b825461010083900a900460ff161515815260206001928301818104948501949093039092029101808411610278575050509284525050604080516103c081019182905260209093019291506002840190601e90826000855b825461010083900a900460ff168152602060019283018181049485019490930390920291018084116102d057505050928452505050600382015460209091019060ff16601d81111561031e57fe5b601d81111561032957fe5b81526020016003820160019054906101000a900460ff16601d81111561034b57fe5b601d81111561035657fe5b81526020016003820160029054906101000a900460ff16601d81111561037857fe5b601d81111561038357fe5b81526020016003820160039054906101000a900460ff16601d8111156103a557fe5b601d8111156103b057fe5b905250905090565b6103c0610610565b6103c957600080fd5b6004805482919062ff000019166201000083601d8111156101ff57fe5b6103ee610610565b6103f757600080fd5b6005805460ff19166001179055565b61040e610610565b61041757600080fd5b60005b601e60ff8216101561054557838160ff16601e811061043557fe5b60200201511515600114156104d957600260ff8216601e811061045457fe5b602081049091015460ff601f9092166101000a9004166104d4576001600260ff8316601e811061048057fe5b602091828204019190066101000a81548160ff0219169083151502179055508260016002018260ff16601e81106104b357fe5b602091828204019190066101000a81548160ff021916908360ff1602179055505b61053d565b600260ff8216601e81106104e957fe5b602091828204019190069054906101000a900460ff16151560011515141561053d576000600260ff8316601e811061051d57fe5b602091828204019190066101000a81548160ff0219169083151502179055505b60010161041a565b5080601d81111561055257fe5b6004546301000000900460ff16601d81111561056a57fe5b14610594576004805482919063ff0000001916630100000083601d81111561058e57fe5b02179055505b505050565b6105a1610610565b6105aa57600080fd5b60008054604051600160a060020a03909116907f8be0079c531659141344cd1fd0a4f28419497f9722a3daafe3b4186f6b6457e0908390a36000805473ffffffffffffffffffffffffffffffffffffffff19169055565b600054600160a060020a031690565b600054600160a060020a0316331490565b610629610610565b61063257600080fd5b6004805482919060ff1916600183601d8111156101ff57fe5b610653610610565b61065c57600080fd5b61066581610685565b50565b610670610610565b61067957600080fd5b6005805460ff19169055565b600160a060020a03811661069857600080fd5b60008054604051600160a060020a03808516939216917f8be0079c531659141344cd1fd0a4f28419497f9722a3daafe3b4186f6b6457e091a36000805473ffffffffffffffffffffffffffffffffffffffff1916600160a060020a0392909216919091179055565b60405180610820016040528060001515815260200161071d61074b565b815260200161072a61074b565b81526020016000815260200160008152602001600081526020016000905290565b604051806103c00160405280601e906020820280388339509192915050565b60006107768235610aed565b9392505050565b600082601f83011261078e57600080fd5b601e6107a161079c82610abb565b610a94565b915081838560208402820111156107b757600080fd5b60005b838110156107e357816107cd88826107ed565b84525060209283019291909101906001016107ba565b5050505092915050565b60006107768235610af8565b60006107768235610b1f565b60006107768235610b19565b60006020828403121561082357600080fd5b600061082f848461076a565b949350505050565b6000806000610400848603121561084d57600080fd5b6000610859868661077d565b9350506103c061086b86828701610805565b9250506103e061087d868287016107f9565b9150509250925092565b60006020828403121561089957600080fd5b600061082f84846107f9565b60006108b1838361096d565b505060200190565b60006108b18383610a0e565b6108ce81610aed565b82525050565b6108dd81610adc565b6108e78184610ae8565b92506108f282610ad9565b60005b8281101561091d576109088583516108a5565b945061091382610ae2565b91506001016108f5565b5050505050565b61092d81610adc565b6109378184610ae8565b925061094282610ad9565b60005b8281101561091d576109588583516108b9565b945061096382610ae2565b9150600101610945565b6108ce81610af8565b6108ce81610b2e565b8051610820830190610991848261096d565b5060208201516109a460208501826108d4565b5060408201516109b86103e0850182610924565b5060608201516109cc6107a0850182610976565b5060808201516109e06107c0850182610976565b5060a08201516109f46107e0850182610976565b5060c0820151610a08610800850182610976565b50505050565b6108ce81610b19565b60208101610a2582846108c5565b92915050565b60208101610a25828461096d565b60a08101610a47828861096d565b610a546020830187610976565b610a616040830186610976565b610a6e6060830185610976565b610a7b6080830184610976565b9695505050505050565b6108208101610a25828461097f565b60405181810167ffffffffffffffff81118282101715610ab357600080fd5b604052919050565b600067ffffffffffffffff821115610ad257600080fd5b5060200290565b90565b50601e90565b60200190565b919050565b6000610a2582610b0d565b151590565b6000601e8210610b0957fe5b5090565b600160a060020a031690565b60ff1690565b6000601e8210610b0957600080fd5b6000610a2582610afd56fea265627a7a72305820270876ed58791ad08e0c3a13d377216a45258666e808d6db29836932ec7475f76c6578706572696d656e74616cf50037",
  "source": "pragma solidity ^0.5.7;\npragma experimental ABIEncoderV2;\n\nimport \"openzeppelin-solidity/contracts/ownership/Ownable.sol\";\nimport \"./GOTDeathPoolCommon.sol\";\n\n/*\n * This contract will be deployed at least once and can be refered\n * by other instances of GOTDeathPool so the owner of every pool\n * doesn't each have to mark truth (they can if they want though).\n *\n * Ideally, the owner of this contract would mark deaths/brought back\n * to life at the end of every episode so users can track their current\n * standing on the dapp. I'm thinking a single function that modifies the\n * one truth prediction state variable. the function would provide an array\n * of death state and the episode number\n */\ncontract GOTDeathPoolTruth is Ownable {\n  using GOTDeathPoolCommon for GOTDeathPoolCommon.Prediction;\n  using GOTDeathPoolCommon for GOTDeathPoolCommon.Character;\n\n  uint8 constant NumCharacters = 30;\n\n  GOTDeathPoolCommon.Prediction public TruthState;\n  bool public TruthComplete;\n\n  constructor()\n    Ownable()\n    public\n  {\n    TruthState.lastOnThrone = GOTDeathPoolCommon.Character.CerseiLannister;\n    TruthState.firstToDie = GOTDeathPoolCommon.Character.NewCharacter;\n    TruthState.lastToDie = GOTDeathPoolCommon.Character.NewCharacter;\n    TruthComplete = false;\n  }\n\n  function GetTruthState() public view returns (GOTDeathPoolCommon.Prediction memory) {\n    return TruthState;\n  }\n\n  function logFirstToDie(GOTDeathPoolCommon.Character character) public onlyOwner {\n    TruthState.firstToDie = character;\n  }\n\n  function logFirstToDieAfterFirstEpisode(GOTDeathPoolCommon.Character character) public onlyOwner {\n    TruthState.firstToDieAfterFirstEpisode = character;\n  }\n\n  function logLastToDie(GOTDeathPoolCommon.Character character) public onlyOwner {\n    TruthState.lastToDie = character;\n  }\n\n  function logEpisode(bool[NumCharacters] memory deathState, uint8 episodeNumber, GOTDeathPoolCommon.Character throneOwner) public onlyOwner {\n    for (uint8 i = 0; i < NumCharacters; i++) {\n      if (deathState[i] == true) {\n        // character dead\n        if (TruthState.dies[i] == false) {\n          // character died this episode\n          TruthState.dies[i] = true;\n          TruthState.deathEpisode[i] = episodeNumber;\n        }\n      }\n      else {\n        // character is alive\n        if (TruthState.dies[i] == true) {\n          // character came back to life this episode\n          TruthState.dies[i] = false;\n          // wont update deathEpisode in case we want to give kudos anyway for guessing the original death\n        }\n      }\n    }\n\n    if (TruthState.lastOnThrone != throneOwner) {\n      TruthState.lastOnThrone = throneOwner;\n    }\n  }\n\n  function incomplete() public onlyOwner {\n    TruthComplete = false;\n  }\n\n  function complete() public onlyOwner {\n    TruthComplete = true;\n  }\n}\n",
  "sourcePath": "/home/mike/projects/game-of-thrones-death-pool/contracts/GOTDeathPoolTruth.sol",
  "compiler": {
    "name": "solc",
    "version": "0.5.7+commit.6da8b019.Emscripten.clang"
  },
  "schemaVersion": "3.0.2",
  "updatedAt": "2019-04-14T08:07:10.767Z",
  "devdoc": {
    "methods": {
      "isOwner()": {
        "return": "true if `msg.sender` is the owner of the contract."
      },
      "owner()": {
        "return": "the address of the owner."
      },
      "renounceOwnership()": {
        "details": "Allows the current owner to relinquish control of the contract. It will not be possible to call the functions with the `onlyOwner` modifier anymore."
      },
      "transferOwnership(address)": {
        "details": "Allows the current owner to transfer control of the contract to a newOwner.",
        "params": {
          "newOwner": "The address to transfer ownership to."
        }
      }
    }
  },
  "userdoc": {
    "methods": {
      "renounceOwnership()": {
        "notice": "Renouncing ownership will leave the contract without an owner, thereby removing any functionality that is only available to the owner."
      }
    }
  }
}