{
  "contractName": "GOTDeathPool",
  "abi": [
    {
      "constant": true,
      "inputs": [],
      "name": "_secondPlace",
      "outputs": [
        {
          "name": "",
          "type": "address"
        }
      ],
      "payable": false,
      "stateMutability": "view",
      "type": "function"
    },
    {
      "constant": true,
      "inputs": [],
      "name": "_completedBalance",
      "outputs": [
        {
          "name": "",
          "type": "uint256"
        }
      ],
      "payable": false,
      "stateMutability": "view",
      "type": "function"
    },
    {
      "constant": false,
      "inputs": [],
      "name": "renounceOwnership",
      "outputs": [],
      "payable": false,
      "stateMutability": "nonpayable",
      "type": "function"
    },
    {
      "constant": true,
      "inputs": [],
      "name": "_fourthPlace",
      "outputs": [
        {
          "name": "",
          "type": "address"
        }
      ],
      "payable": false,
      "stateMutability": "view",
      "type": "function"
    },
    {
      "constant": true,
      "inputs": [],
      "name": "owner",
      "outputs": [
        {
          "name": "",
          "type": "address"
        }
      ],
      "payable": false,
      "stateMutability": "view",
      "type": "function"
    },
    {
      "constant": true,
      "inputs": [],
      "name": "_skipsFirstEpisode",
      "outputs": [
        {
          "name": "",
          "type": "bool"
        }
      ],
      "payable": false,
      "stateMutability": "view",
      "type": "function"
    },
    {
      "constant": true,
      "inputs": [],
      "name": "isOwner",
      "outputs": [
        {
          "name": "",
          "type": "bool"
        }
      ],
      "payable": false,
      "stateMutability": "view",
      "type": "function"
    },
    {
      "constant": true,
      "inputs": [],
      "name": "_firstPlace",
      "outputs": [
        {
          "name": "",
          "type": "address"
        }
      ],
      "payable": false,
      "stateMutability": "view",
      "type": "function"
    },
    {
      "constant": true,
      "inputs": [],
      "name": "_thirdPlace",
      "outputs": [
        {
          "name": "",
          "type": "address"
        }
      ],
      "payable": false,
      "stateMutability": "view",
      "type": "function"
    },
    {
      "constant": false,
      "inputs": [
        {
          "name": "newOwner",
          "type": "address"
        }
      ],
      "name": "transferOwnership",
      "outputs": [],
      "payable": false,
      "stateMutability": "nonpayable",
      "type": "function"
    },
    {
      "constant": true,
      "inputs": [],
      "name": "_fifthPlace",
      "outputs": [
        {
          "name": "",
          "type": "address"
        }
      ],
      "payable": false,
      "stateMutability": "view",
      "type": "function"
    },
    {
      "inputs": [
        {
          "name": "truth",
          "type": "address"
        },
        {
          "name": "token",
          "type": "address"
        },
        {
          "name": "stakeRequired",
          "type": "uint256"
        },
        {
          "name": "canDisperse",
          "type": "bool"
        },
        {
          "name": "skipsFirstEpisode",
          "type": "bool"
        }
      ],
      "payable": false,
      "stateMutability": "nonpayable",
      "type": "constructor"
    },
    {
      "anonymous": false,
      "inputs": [
        {
          "indexed": true,
          "name": "previousOwner",
          "type": "address"
        },
        {
          "indexed": true,
          "name": "newOwner",
          "type": "address"
        }
      ],
      "name": "OwnershipTransferred",
      "type": "event"
    },
    {
      "constant": false,
      "inputs": [
        {
          "name": "amount",
          "type": "uint256"
        }
      ],
      "name": "setStakeAmount",
      "outputs": [],
      "payable": false,
      "stateMutability": "nonpayable",
      "type": "function"
    },
    {
      "constant": true,
      "inputs": [],
      "name": "requiredStake",
      "outputs": [
        {
          "name": "",
          "type": "uint256"
        }
      ],
      "payable": false,
      "stateMutability": "view",
      "type": "function"
    },
    {
      "constant": true,
      "inputs": [],
      "name": "requiredToken",
      "outputs": [
        {
          "name": "",
          "type": "address"
        }
      ],
      "payable": false,
      "stateMutability": "view",
      "type": "function"
    },
    {
      "constant": true,
      "inputs": [],
      "name": "ownerCanDisperseFunds",
      "outputs": [
        {
          "name": "",
          "type": "bool"
        }
      ],
      "payable": false,
      "stateMutability": "view",
      "type": "function"
    },
    {
      "constant": true,
      "inputs": [
        {
          "name": "a",
          "type": "address"
        }
      ],
      "name": "getName",
      "outputs": [
        {
          "name": "",
          "type": "string"
        }
      ],
      "payable": false,
      "stateMutability": "view",
      "type": "function"
    },
    {
      "constant": true,
      "inputs": [],
      "name": "tokenAddress",
      "outputs": [
        {
          "name": "",
          "type": "address"
        }
      ],
      "payable": false,
      "stateMutability": "view",
      "type": "function"
    },
    {
      "constant": true,
      "inputs": [],
      "name": "havePredicted",
      "outputs": [
        {
          "name": "",
          "type": "bool"
        }
      ],
      "payable": false,
      "stateMutability": "view",
      "type": "function"
    },
    {
      "constant": true,
      "inputs": [],
      "name": "haveStaked",
      "outputs": [
        {
          "name": "",
          "type": "bool"
        }
      ],
      "payable": false,
      "stateMutability": "view",
      "type": "function"
    },
    {
      "constant": false,
      "inputs": [],
      "name": "open",
      "outputs": [],
      "payable": false,
      "stateMutability": "nonpayable",
      "type": "function"
    },
    {
      "constant": false,
      "inputs": [],
      "name": "close",
      "outputs": [],
      "payable": false,
      "stateMutability": "nonpayable",
      "type": "function"
    },
    {
      "constant": false,
      "inputs": [
        {
          "name": "dies",
          "type": "bool[30]"
        },
        {
          "name": "deathEpisode",
          "type": "uint8[30]"
        },
        {
          "name": "firstToDie",
          "type": "uint8"
        },
        {
          "name": "lastToDie",
          "type": "uint8"
        },
        {
          "name": "lastOnThrone",
          "type": "uint8"
        },
        {
          "name": "name",
          "type": "string"
        }
      ],
      "name": "predict",
      "outputs": [],
      "payable": false,
      "stateMutability": "nonpayable",
      "type": "function"
    },
    {
      "constant": false,
      "inputs": [],
      "name": "stake",
      "outputs": [],
      "payable": false,
      "stateMutability": "nonpayable",
      "type": "function"
    },
    {
      "constant": false,
      "inputs": [],
      "name": "withdraw",
      "outputs": [],
      "payable": false,
      "stateMutability": "nonpayable",
      "type": "function"
    },
    {
      "constant": true,
      "inputs": [],
      "name": "calculatePoints",
      "outputs": [
        {
          "name": "",
          "type": "int16[]"
        },
        {
          "name": "",
          "type": "address[]"
        }
      ],
      "payable": false,
      "stateMutability": "view",
      "type": "function"
    },
    {
      "constant": false,
      "inputs": [],
      "name": "complete",
      "outputs": [],
      "payable": false,
      "stateMutability": "nonpayable",
      "type": "function"
    },
    {
      "constant": false,
      "inputs": [
        {
          "name": "recipient",
          "type": "address"
        },
        {
          "name": "amount",
          "type": "uint256"
        }
      ],
      "name": "disperse",
      "outputs": [],
      "payable": false,
      "stateMutability": "nonpayable",
      "type": "function"
    },
    {
      "constant": false,
      "inputs": [],
      "name": "allowClaiming",
      "outputs": [],
      "payable": false,
      "stateMutability": "nonpayable",
      "type": "function"
    },
    {
      "constant": false,
      "inputs": [],
      "name": "claim",
      "outputs": [],
      "payable": false,
      "stateMutability": "nonpayable",
      "type": "function"
    }
  ],
  "bytecode": "0x60806040523480156200001157600080fd5b5060405160a08062002bb0833981018060405262000033919081019062000157565b60008054600160a060020a0319163317808255604051600160a060020a039190911691907f8be0079c531659141344cd1fd0a4f28419497f9722a3daafe3b4186f6b6457e0908290a36001805460038054600296909655931515770100000000000000000000000000000000000000000000000260a860020a62ffffff021960a060020a60ff0219600160a060020a03998a16600160a060020a03199094169390931792909216740100000000000000000000000000000000000000001791909116179055151560ff19939094166101000261010060a860020a031990921691909117919091169190911790556200020b565b6000620001348251620001ea565b9392505050565b6000620001348251620001ef565b600062000134825162000208565b600080600080600060a086880312156200017057600080fd5b60006200017e88886200013b565b955050602062000191888289016200013b565b9450506040620001a48882890162000149565b9350506060620001b78882890162000126565b9250506080620001ca8882890162000126565b9150509295509295909350565b6000620001e482620001fc565b92915050565b151590565b6000620001e482620001d7565b600160a060020a031690565b90565b612995806200021b6000396000f3fe608060405234801561001057600080fd5b50600436106101d35760003560e060020a90048063715018a6116101085780639d76ea58116100a6578063e311e3df11610075578063e311e3df14610311578063f2fde38b14610319578063f96070a31461032c578063fcfff16f14610334576101d3565b80639d76ea58146102d9578063c2603658146102f9578063daed85fd14610301578063de73339714610309576101d3565b80638a204ed6116100e25780638a204ed6146102d95780638da5cb5b146102e15780638edaf637146102e95780638f32d59b146102f1576101d3565b8063715018a6146102b65780638365d4e5146102be57806387f7fea0146102c6576101d3565b806343808c5011610175578063522e11771161014f578063522e11771461027e5780635fd4b08a1461028657806367f39820146102a65780636984a57e146102ae576101d3565b806343808c501461025b57806343d726d61461026e5780634e71d92d14610276576101d3565b80633a4b66f1116101b15780633a4b66f1146102205780633ccfd60b146102285780633f6742d6146102305780633f6a2c9714610245576101d3565b806319cb355d146101d857806321d7dfa4146101f657806337cc3fe01461020b575b600080fd5b6101e061033c565b6040516101ed919061283e565b60405180910390f35b6101fe610343565b6040516101ed919061275f565b61021e610219366004612061565b610359565b005b61021e6104cd565b61021e6106c8565b610238610826565b6040516101ed91906126d5565b61024d610835565b6040516101ed92919061273a565b61021e61026936600461217d565b610c50565b61021e610d0d565b61021e610d40565b61021e610f85565b61029961029436600461203b565b6113ff565b6040516101ed919061276d565b6101e06114aa565b6101fe6114b0565b61021e6114c5565b61023861152d565b61021e6102d436600461209b565b61153c565b610238611705565b610238611719565b6101fe611728565b6101fe611731565b610238611742565b610238611751565b61021e611760565b6101fe611873565b61021e61032736600461203b565b611897565b6102386118b1565b61021e6118c0565b6002545b90565b3360009081526005602052604090205460ff1690565b610361611731565b61036a57600080fd5b600180547501000000000000000000000000000000000000000000900460ff161515146103b55760405160e560020a62461bcd0281526004016103ac906127de565b60405180910390fd5b6001805477010000000000000000000000000000000000000000000000900460ff161515146103f95760405160e560020a62461bcd0281526004016103ac906127ee565b60035460405160e060020a6370a082310281526000916101009004600160a060020a0316906370a08231906104329030906004016126d5565b60206040518083038186803b15801561044a57600080fd5b505afa15801561045e573d6000803e3d6000fd5b505050506040513d601f19601f82011682018060405250610482919081019061219b565b90508181106104ac576003546104a7906101009004600160a060020a03168484611924565b6104c8565b6003546104c8906101009004600160a060020a03168483611924565b505050565b6001805474010000000000000000000000000000000000000000900460ff1615151461050e5760405160e560020a62461bcd0281526004016103ac9061279e565b336000908152600660205260409020541561053e5760405160e560020a62461bcd0281526004016103ac9061280e565b60025460035460405160e060020a6370a08231028152610100909104600160a060020a0316906370a08231906105789033906004016126e9565b60206040518083038186803b15801561059057600080fd5b505afa1580156105a4573d6000803e3d6000fd5b505050506040513d601f19601f820116820180604052506105c8919081019061219b565b10156105e95760405160e560020a62461bcd0281526004016103ac906127be565b60025460035461060c91610100909104600160a060020a031690339030906119c3565b600254336000908152600660205260408120919091555b60045481101561066c5733600160a060020a03166004828154811061064457fe5b600091825260209091200154600160a060020a031614156106645761066c565b600101610623565b60045481106106c557600480546001810182556000919091527f8a35acfbc15ff81a39ae7d344fd709f28e8600b4aa8c65c6b64bfe7fe36bd19b01805473ffffffffffffffffffffffffffffffffffffffff1916331790555b50565b6001805474010000000000000000000000000000000000000000900460ff161515146107095760405160e560020a62461bcd0281526004016103ac9061279e565b60025433600090815260066020526040902054101561073d5760405160e560020a62461bcd0281526004016103ac906127ae565b60035460405160e060020a6370a082310281526000916101009004600160a060020a0316906370a08231906107769030906004016126d5565b60206040518083038186803b15801561078e57600080fd5b505afa1580156107a2573d6000803e3d6000fd5b505050506040513d601f19601f820116820180604052506107c6919081019061219b565b905060025481106107f7576002546003546107f291610100909104600160a060020a0316903390611924565b610813565b600354610813906101009004600160a060020a03163383611924565b5033600090815260066020526040812055565b600a54600160a060020a031681565b6060806060600480549050604051908082528060200260200182016040528015610869578160200160208202803883390190505b509050606060048054905060405190808252806020026020018201604052801561089d578160200160208202803883390190505b5090506108a8611b33565b600160009054906101000a9004600160a060020a0316600160a060020a03166340e1fd226040518163ffffffff1660e060020a0281526004016108206040518083038186803b1580156108fa57600080fd5b505afa15801561090e573d6000803e3d6000fd5b505050506040513d601f19601f82011682018060405250610932919081019061215e565b90506000805b600454811015610c4357600254600660006004848154811061095657fe5b6000918252602080832090910154600160a060020a0316835282019290925260400190205410610c3b576000600560006004848154811061099357fe5b6000918252602080832090910154600160a060020a0316835282019290925260400181209150805b601c811015610aeb5760035460ff16151560011480156109f15750856020015181601e81106109e657fe5b602002015115156001145b8015610a145750856040015181601e8110610a0857fe5b602002015160ff166001145b15610a1e57610ae3565b856020015181601e8110610a2e57fe5b602002015115158360010182601e8110610a4457fe5b602081049091015460ff601f9092166101000a90041615151415610adb5760208601516001929092019181601e8110610a7957fe5b602002015115156001148015610ac95750856040015181601e8110610a9a57fe5b602002015160ff168360020182601e8110610ab157fe5b602081049091015460ff601f9092166101000a900416145b15610ad657600191909101905b610ae3565b600019909101905b6001016109bb565b5060035460ff16151560011415610b2e578460800151601d811115610b0c57fe5b600383015460ff16601d811115610b1f57fe5b1415610b29576001015b610b5b565b8460600151601d811115610b3e57fe5b600383015460ff16601d811115610b5157fe5b1415610b5b576001015b8460a00151601d811115610b6b57fe5b600383015462010000900460ff16601d811115610b8457fe5b1415610b8e576001015b8460c00151601d811115610b9e57fe5b60038301546301000000900460ff16601d811115610bb857fe5b1415610bc2576001015b80878581518110610bcf57fe5b602002602001019060010b908160010b8152505060048381548110610bf057fe5b9060005260206000200160009054906101000a9004600160a060020a0316868581518110610c1a57fe5b600160a060020a039092166020928302919091019091015250506001909101905b600101610938565b5092945090925050509091565b610c58611731565b610c6157600080fd5b60035460405160e060020a6370a08231028152610100909104600160a060020a0316906370a0823190610c989030906004016126d5565b60206040518083038186803b158015610cb057600080fd5b505afa158015610cc4573d6000803e3d6000fd5b505050506040513d601f19601f82011682018060405250610ce8919081019061219b565b15610d085760405160e560020a62461bcd0281526004016103ac906127fe565b600255565b610d15611731565b610d1e57600080fd5b6001805476ff00ff000000000000000000000000000000000000000019169055565b6001805460b060020a900460ff16151514610d705760405160e560020a62461bcd0281526004016103ac9061281e565b600254336000908152600660205260409020541015610da45760405160e560020a62461bcd0281526004016103ac906127ae565b3360009081526008602052604090205460ff1615610dd75760405160e560020a62461bcd0281526004016103ac906127ce565b600e546009546000916064900490600160a060020a0316331415610e0057603381029150610e74565b600a54600160a060020a0316331415610e1e57601a81029150610e74565b600b54600160a060020a0316331415610e3c57600d81029150610e74565b600c54600160a060020a0316331415610e5a57600781029150610e74565b600d54600160a060020a0316331415610e74576003810291505b60008211610e975760405160e560020a62461bcd0281526004016103ac9061278e565b60035460405160e060020a6370a082310281526000916101009004600160a060020a0316906370a0823190610ed09030906004016126d5565b60206040518083038186803b158015610ee857600080fd5b505afa158015610efc573d6000803e3d6000fd5b505050506040513d601f19601f82011682018060405250610f20919081019061219b565b9050828110610f4a57600354610f45906101009004600160a060020a03163385611924565b610f66565b600354610f66906101009004600160a060020a03163383611924565b5050336000908152600860205260409020805460ff1916600117905550565b610f8d611731565b610f9657600080fd5b600160009054906101000a9004600160a060020a0316600160a060020a0316633e7c7b906040518163ffffffff1660e060020a02815260040160206040518083038186803b158015610fe757600080fd5b505afa158015610ffb573d6000803e3d6000fd5b505050506040513d601f19601f8201168201806040525061101f9190810190612140565b15156001146110435760405160e560020a62461bcd0281526004016103ac9061282e565b60015460b060020a900460ff16156110705760405160e560020a62461bcd0281526004016103ac9061277e565b6001805475ff0000000000000000000000000000000000000000001916750100000000000000000000000000000000000000000017905560608060008080808080808080806110bd610835565b909c509a5060005b8c5181101561130c578260010b8d82815181106110de57fe5b602002602001015160010b13156110f6578291508796505b8360010b8d828151811061110657fe5b602002602001015160010b131561111e578392508897505b8460010b8d828151811061112e57fe5b602002602001015160010b1315611146578493508998505b8560010b8d828151811061115657fe5b602002602001015160010b131561116e578594508a99505b8560010b8d828151811061117e57fe5b602002602001015160010b13156111c0578c818151811061119b57fe5b602002602001015195508b81815181106111b157fe5b60200260200101519a50611304565b8460010b8d82815181106111d057fe5b602002602001015160010b1315611212578c81815181106111ed57fe5b602002602001015194508b818151811061120357fe5b60200260200101519950611304565b8360010b8d828151811061122257fe5b602002602001015160010b1315611264578c818151811061123f57fe5b602002602001015193508b818151811061125557fe5b60200260200101519850611304565b8260010b8d828151811061127457fe5b602002602001015160010b13156112b6578c818151811061129157fe5b602002602001015192508b81815181106112a757fe5b60200260200101519750611304565b8160010b8d82815181106112c657fe5b602002602001015160010b1315611304578c81815181106112e357fe5b602002602001015191508b81815181106112f957fe5b602002602001015196505b6001016110c5565b506009805473ffffffffffffffffffffffffffffffffffffffff19908116600160a060020a038d811691909117909255600a805482168c8416179055600b805482168b8416179055600c805482168a8416179055600d805490911688831617905560035460405160e060020a6370a08231028152610100909104909116906370a082319061139e9030906004016126d5565b60206040518083038186803b1580156113b657600080fd5b505afa1580156113ca573d6000803e3d6000fd5b505050506040513d601f19601f820116820180604052506113ee919081019061219b565b600e55505050505050505050505050565b600160a060020a03811660009081526007602090815260409182902080548351601f600260001961010060018616150201909316929092049182018490048402810184019094528084526060939283018282801561149e5780601f106114735761010080835404028352916020019161149e565b820191906000526020600020905b81548152906001019060200180831161148157829003601f168201915b50505050509050919050565b600e5481565b33600090815260066020526040902054151590565b6114cd611731565b6114d657600080fd5b60008054604051600160a060020a03909116907f8be0079c531659141344cd1fd0a4f28419497f9722a3daafe3b4186f6b6457e0908390a36000805473ffffffffffffffffffffffffffffffffffffffff19169055565b600c54600160a060020a031681565b6001805474010000000000000000000000000000000000000000900460ff1615151461157d5760405160e560020a62461bcd0281526004016103ac9061279e565b611585611b33565b6001815260208101879052604081018690526060810185601d8111156115a757fe5b9081601d8111156115b457fe5b90525060a0810184601d8111156115c757fe5b9081601d8111156115d457fe5b90525060c0810183601d8111156115e757fe5b9081601d8111156115f457fe5b905250336000908152600760209081526040909120835161161792850190611b7e565b503360009081526005602090815260409091208251815460ff19169015151781559082015182919061164f906001830190601e611bfc565b506040820151611665906002830190601e611c8a565b50606082015160038201805460ff1916600183601d81111561168357fe5b0217905550608082015160038201805461ff00191661010083601d8111156116a757fe5b021790555060a082015160038201805462ff000019166201000083601d8111156116cd57fe5b021790555060c082015160038201805463ff0000001916630100000083601d8111156116f557fe5b0217905550505050505050505050565b6003546101009004600160a060020a031690565b600054600160a060020a031690565b60035460ff1681565b600054600160a060020a0316331490565b600954600160a060020a031681565b600b54600160a060020a031681565b611768611731565b61177157600080fd5b600160009054906101000a9004600160a060020a0316600160a060020a0316633e7c7b906040518163ffffffff1660e060020a02815260040160206040518083038186803b1580156117c257600080fd5b505afa1580156117d6573d6000803e3d6000fd5b505050506040513d601f19601f820116820180604052506117fa9190810190612140565b151560011461181e5760405160e560020a62461bcd0281526004016103ac9061282e565b60015460b060020a900460ff161561184b5760405160e560020a62461bcd0281526004016103ac9061277e565b6001805476ff00000000000000000000000000000000000000000000191660b060020a179055565b60015477010000000000000000000000000000000000000000000000900460ff1690565b61189f611731565b6118a857600080fd5b6106c581611a06565b600d54600160a060020a031681565b6118c8611731565b6118d157600080fd5b6001805476ff000000000000000000000000000000000000000000001974ff0000000000000000000000000000000000000000199091167401000000000000000000000000000000000000000017169055565b6040516104c89084907fa9059cbb000000000000000000000000000000000000000000000000000000009061195f908690869060240161271f565b60408051601f198184030181529190526020810180517bffffffffffffffffffffffffffffffffffffffffffffffffffffffff167fffffffff0000000000000000000000000000000000000000000000000000000090931692909217909152611a81565b604051611a009085907f23b872dd000000000000000000000000000000000000000000000000000000009061195f908790879087906024016126f7565b50505050565b600160a060020a038116611a1957600080fd5b60008054604051600160a060020a03808516939216917f8be0079c531659141344cd1fd0a4f28419497f9722a3daafe3b4186f6b6457e091a36000805473ffffffffffffffffffffffffffffffffffffffff1916600160a060020a0392909216919091179055565b611a9382600160a060020a0316611b2d565b611a9c57600080fd5b6000606083600160a060020a031683604051611ab891906126c9565b6000604051808303816000865af19150503d8060008114611af5576040519150601f19603f3d011682016040523d82523d6000602084013e611afa565b606091505b509150915081611b0957600080fd5b805115611a005780806020019051611b249190810190612140565b611a0057600080fd5b3b151590565b604051806108200160405280600015158152602001611b50611cde565b8152602001611b5d611cde565b81526020016000815260200160008152602001600081526020016000905290565b828054600181600116156101000203166002900490600052602060002090601f016020900481019282601f10611bbf57805160ff1916838001178555611bec565b82800160010185558215611bec579182015b82811115611bec578251825591602001919060010190611bd1565b50611bf8929150611cfd565b5090565b600183019183908215611c7e5791602002820160005b83821115611c4f57835183826101000a81548160ff0219169083151502179055509260200192600101602081600001049283019260010302611c12565b8015611c7c5782816101000a81549060ff0219169055600101602081600001049283019260010302611c4f565b505b50611bf8929150611d17565b600183019183908215611c7e5791602002820160005b83821115611c4f57835183826101000a81548160ff021916908360ff1602179055509260200192600101602081600001049283019260010302611ca0565b604051806103c00160405280601e906020820280388339509192915050565b61034091905b80821115611bf85760008155600101611d03565b61034091905b80821115611bf857805460ff19168155600101611d1d565b6000611d4182356128d1565b9392505050565b600082601f830112611d5957600080fd5b601e611d6c611d6782612873565b61284c565b91508183856020840282011115611d8257600080fd5b60005b83811015611dae5781611d988882611ee7565b8452506020928301929190910190600101611d85565b5050505092915050565b600082601f830112611dc957600080fd5b601e611dd7611d6782612873565b91508183856020840282011115611ded57600080fd5b60005b83811015611dae5781611e038882611edb565b8452506020928301929190910190600101611df0565b600082601f830112611e2a57600080fd5b601e611e38611d6782612873565b91508183856020840282011115611e4e57600080fd5b60005b83811015611dae5781611e64888261202f565b8452506020928301929190910190600101611e51565b600082601f830112611e8b57600080fd5b601e611e99611d6782612873565b91508183856020840282011115611eaf57600080fd5b60005b83811015611dae5781611ec58882612023565b8452506020928301929190910190600101611eb2565b6000611d4182356128dc565b6000611d4182516128dc565b6000611d4182356128f3565b6000611d4182516128f3565b600082601f830112611f1c57600080fd5b8135611f2a611d6782612891565b91508082526020830160208301858383011115611f4657600080fd5b611f51838284612919565b50505092915050565b60006108208284031215611f6d57600080fd5b611f7760e061284c565b90506000611f858484611ee7565b8252506020611f9684848301611d48565b6020830152506103e0611fab84828501611e19565b6040830152506107a0611fc084828501611eff565b6060830152506107c0611fd584828501611eff565b6080830152506107e0611fea84828501611eff565b60a083015250610800611fff84828501611eff565b60c08301525092915050565b6000611d418235610340565b6000611d418251610340565b6000611d418235612902565b6000611d418251612902565b60006020828403121561204d57600080fd5b60006120598484611d35565b949350505050565b6000806040838503121561207457600080fd5b60006120808585611d35565b92505060206120918582860161200b565b9150509250929050565b60008060008060008061080087890312156120b557600080fd5b60006120c18989611db8565b9650506103c06120d389828a01611e7a565b9550506107806120e589828a01611ef3565b9450506107a06120f789828a01611ef3565b9350506107c061210989828a01611ef3565b9250506107e087013567ffffffffffffffff81111561212757600080fd5b61213389828a01611f0b565b9150509295509295509295565b60006020828403121561215257600080fd5b60006120598484611ee7565b6000610820828403121561217157600080fd5b60006120598484611f5a565b60006020828403121561218f57600080fd5b6000612059848461200b565b6000602082840312156121ad57600080fd5b60006120598484612017565b60006121c583836121e8565b505060200190565b60006121c583836122c9565b6121e281612908565b82525050565b6121e2816128d1565b60006121fc826128bf565b61220681856128c3565b9350612211836128b9565b60005b8281101561223c576122278683516121b9565b9550612232826128b9565b9150600101612214565b5093949350505050565b6000612251826128bf565b61225b81856128c3565b9350612266836128b9565b60005b8281101561223c5761227c8683516121cd565b9550612287826128b9565b9150600101612269565b6121e2816128dc565b60006122a5826128bf565b6122af81856128cc565b93506122bf818560208601612925565b9290920192915050565b6121e2816128e1565b60006122dd826128bf565b6122e781856128c3565b93506122f7818560208601612925565b61230081612951565b9093019392505050565b60006123176023836128c3565b7f54686520706f6f6c2068617320616c7265616479206265656e20636f6d706c6581527f7465640000000000000000000000000000000000000000000000000000000000602082015260400192915050565b60006123766010836128c3565b7f596f75206469646e277420706c61636500000000000000000000000000000000815260200192915050565b60006123af6016836128c3565b7f50726564696374696f6e732061726520636c6f73656400000000000000000000815260200192915050565b60006123e86024836128c3565b7f596f7520646f6e2774206861766520616e792066756e647320696e207468652081527f706f6f6c00000000000000000000000000000000000000000000000000000000602082015260400192915050565b60006124476034836128c3565b7f596f7572206163636f756e7420646f65736e2774206861766520656e6f75676881527f2066756e647320666f722074686520746f6b656e000000000000000000000000602082015260400192915050565b60006124a66014836128c3565b7f596f7520616c726561647920636c61696d656421000000000000000000000000815260200192915050565b60006124df602f836128c3565b7f596f752063616e6e6f7420646973706572736520617761726473207965742e2081527f63616c6c20636f6d706c65746528290000000000000000000000000000000000602082015260400192915050565b600061253e6036836128c3565b7f596f752063616e6e6f742064697370657273652066756e6473206576656e207481527f686f75676820796f7527726520746865206f776e657200000000000000000000602082015260400192915050565b600061259d6024836128c3565b7f546865726520697320736f6d65207374616b65206c65667420696e207468652081527f706f6f6c00000000000000000000000000000000000000000000000000000000602082015260400192915050565b60006125fc6026836128c3565b7f596f7520616c7265616479206861766520616e792066756e647320696e20746881527f6520706f6f6c0000000000000000000000000000000000000000000000000000602082015260400192915050565b600061265b6020836128c3565b7f596f752063616e6e6f7420636c61696d20796f757220626f756e747920796574815260200192915050565b6000612694601d836128c3565b7f416e737765727320617265206e6f7420617661696c61626c6520796574000000815260200192915050565b6121e281610340565b6000611d41828461229a565b602081016126e382846121e8565b92915050565b602081016126e382846121d9565b6060810161270582866121e8565b61271260208301856121e8565b61205960408301846126c0565b6040810161272d82856121e8565b611d4160208301846126c0565b6040808252810161274b8185612246565b9050818103602083015261205981846121f1565b602081016126e38284612291565b60208082528101611d4181846122d2565b602080825281016126e38161230a565b602080825281016126e381612369565b602080825281016126e3816123a2565b602080825281016126e3816123db565b602080825281016126e38161243a565b602080825281016126e381612499565b602080825281016126e3816124d2565b602080825281016126e381612531565b602080825281016126e381612590565b602080825281016126e3816125ef565b602080825281016126e38161264e565b602080825281016126e381612687565b602081016126e382846126c0565b60405181810167ffffffffffffffff8111828210171561286b57600080fd5b604052919050565b600067ffffffffffffffff82111561288a57600080fd5b5060200290565b600067ffffffffffffffff8211156128a857600080fd5b506020601f91909101601f19160190565b60200190565b5190565b90815260200190565b919050565b60006126e3826128e7565b151590565b60010b90565b600160a060020a031690565b6000601e8210611bf857600080fd5b60ff1690565b60006126e38260006126e3826128d1565b82818337506000910152565b60005b83811015612940578181015183820152602001612928565b83811115611a005750506000910152565b601f01601f19169056fea265627a7a7230582014744e675e6737a83cd6941788cfc134230f83e5d13a8fef48a4bc1e3c2b30916c6578706572696d656e74616cf50037",
  "source": "pragma solidity ^0.5.7;\npragma experimental ABIEncoderV2;\n\nimport \"openzeppelin-solidity/contracts/token/ERC20/IERC20.sol\";\nimport \"openzeppelin-solidity/contracts/token/ERC20/SafeERC20.sol\";\nimport \"openzeppelin-solidity/contracts/ownership/Ownable.sol\";\nimport \"./GOTDeathPoolCommon.sol\";\nimport \"./GOTDeathPoolTruth.sol\";\n\ncontract GOTDeathPool is Ownable {\n  using GOTDeathPoolCommon for GOTDeathPoolCommon.Prediction;\n  using GOTDeathPoolCommon for GOTDeathPoolCommon.Character;\n  using SafeERC20 for IERC20;\n\n  GOTDeathPoolTruth private TruthContract;\n  bool private _open;\n  bool private _canDisperse;\n  bool private _canClaim;\n  bool private _ownerCanDisperse;\n  uint256 private _stakeRequired;\n  bool public _skipsFirstEpisode;\n  IERC20 private _token;\n  address[] private _stakers;\n  mapping(address => GOTDeathPoolCommon.Prediction) private predictions;\n  mapping(address => uint256) private pool;\n  mapping(address => string) private names;\n  mapping(address => bool) private claimed;\n  address public _firstPlace;\n  address public _secondPlace;\n  address public _thirdPlace;\n  address public _fourthPlace;\n  address public _fifthPlace;\n  uint256 public _completedBalance;\n\n  uint8 constant NumCharacters = 30;\n  uint8 constant POINTS_FOR_CORRECT_DEATH_GUESS = 1;\n  uint8 constant POINTS_FOR_INCORRECT_DEATH_GUESS = 1;\n  uint8 constant POINTS_FOR_CORRECT_DEATH_EPISODE = 1;\n  uint8 constant POINTS_FOR_CORRECT_FIRST_TO_DIE = 1;\n  uint8 constant POINTS_FOR_CORRECT_LAST_TO_DIE = 1;\n  uint8 constant POINTS_FOR_CORRECT_THRONE = 1;\n\n  uint8 constant FIRST_PLACE_PRIZE_PERCENT = 51;\n  uint8 constant SECOND_PLACE_PRIZE_PERCENT = 26;\n  uint8 constant THIRD_PLACE_PRIZE_PERCENT = 13;\n  uint8 constant FOURTH_PLACE_PRIZE_PERCENT = 7;\n  uint8 constant FIFTH_PLACE_PRIZE_PERCENT = 3;\n\n  modifier predictionsOpen() {\n    require(_open == true, \"Predictions are closed\");\n    _;\n  }\n\n  modifier canClaim() {\n    require(_canClaim == true, \"You cannot claim your bounty yet\");\n    _;\n  }\n\n  modifier canDisperse() {\n    require(_canDisperse == true, \"You cannot disperse awards yet. call complete()\");\n    _;\n  }\n\n  modifier ownerCanDisperse() {\n    require(_ownerCanDisperse == true, \"You cannot disperse funds even though you're the owner\");\n    _;\n  }\n\n  modifier isIncomplete() {\n    require(_canClaim == false, \"The pool has already been completed\");\n    _;\n  }\n\n  modifier noStakers() {\n    require(_token.balanceOf(address(this)) == 0, \"There is some stake left in the pool\");\n    _;\n  }\n\n  modifier answersAvailable() {\n    require(TruthContract.TruthComplete() == true, \"Answers are not available yet\");\n    _;\n  }\n\n  modifier didStake() {\n    require(pool[msg.sender] >= _stakeRequired, \"You don't have any funds in the pool\");\n    _;\n  }\n\n  modifier didNotClaim() {\n    require(claimed[msg.sender] == false, \"You already claimed!\");\n    _;\n  }\n\n  modifier didNotStake() {\n    require(pool[msg.sender] == 0, \"You already have any funds in the pool\");\n    _;\n  }\n\n  modifier hasEnoughFunds() {\n    require(_token.balanceOf(msg.sender) >= _stakeRequired, \"Your account doesn't have enough funds for the token\");\n    _;\n  }\n\n  modifier canWithdraw() {\n    require(_token.balanceOf(address(this)) >= _stakeRequired, \"The pool contract doesn't have enough funds to withdraw\");\n    _;\n  }\n\n  constructor(\n    GOTDeathPoolTruth truth,\n    IERC20 token,\n    uint256 stakeRequired,\n    bool canDisperse,\n    bool skipsFirstEpisode\n  )\n    Ownable()\n    public\n  {\n    TruthContract = truth;\n    _open = true;\n    _canClaim = false;\n    _canDisperse = false;\n    _token = token;\n    _stakeRequired = stakeRequired;\n    _ownerCanDisperse = canDisperse;\n    _skipsFirstEpisode = skipsFirstEpisode;\n  }\n\n  function setStakeAmount(uint256 amount) public onlyOwner noStakers {\n    _stakeRequired = amount;\n  }\n\n  function requiredStake() public view returns(uint256) {\n    return _stakeRequired;\n  }\n\n  function requiredToken() public view returns(address) {\n    return address(_token);\n  }\n\n  function ownerCanDisperseFunds() public view returns(bool) {\n    return _ownerCanDisperse;\n  }\n\n  function getName(address a) public view returns(string memory) {\n    return names[a];\n  }\n\n  function tokenAddress() public view returns(address) {\n    return address(_token);\n  }\n\n  function havePredicted() public view returns(bool) {\n    return predictions[msg.sender].isValid;\n  }\n\n  function haveStaked() public view returns(bool) {\n    return pool[msg.sender] > 0;\n  }\n\n  function open() public onlyOwner {\n    _open = true;\n    _canClaim = false;\n  }\n\n  function close() public onlyOwner {\n    _open = false;\n    _canClaim = false;\n  }\n\n  function predict(\n    bool[30] memory dies,\n    uint8[30] memory deathEpisode,\n    GOTDeathPoolCommon.Character firstToDie,\n    GOTDeathPoolCommon.Character lastToDie,\n    GOTDeathPoolCommon.Character lastOnThrone,\n    string memory name\n  )\n    public\n    predictionsOpen\n  {\n    GOTDeathPoolCommon.Prediction memory prediction;\n    prediction.isValid = true;\n    prediction.dies = dies;\n    prediction.deathEpisode = deathEpisode;\n    prediction.firstToDie = firstToDie;\n    prediction.lastToDie = lastToDie;\n    prediction.lastOnThrone = lastOnThrone;\n    names[msg.sender] = name;\n    predictions[msg.sender] = prediction;\n  }\n\n  function stake() public predictionsOpen didNotStake hasEnoughFunds {\n    _token.safeTransferFrom(msg.sender, address(this), _stakeRequired);\n    pool[msg.sender] = _stakeRequired;\n    uint i = 0;\n    for (i = 0; i < _stakers.length; i++) {\n      if (_stakers[i] == msg.sender) {\n        break;\n      }\n    }\n    if (i >= _stakers.length) {\n      _stakers.push(msg.sender);\n    }\n  }\n\n  function withdraw() public predictionsOpen didStake {\n    uint256 poolBalance = _token.balanceOf(address(this));\n    if (poolBalance >= _stakeRequired) {\n      _token.safeTransfer(msg.sender, _stakeRequired);\n    }\n    else {\n      _token.safeTransfer(msg.sender, poolBalance);\n    }\n    pool[msg.sender] = 0;\n  }\n\n  function calculatePoints() public view returns (int16[] memory, address[] memory) {\n    int16[] memory resultPoints = new int16[](_stakers.length);\n    address[] memory resultAddresses = new address[](_stakers.length);\n\n    GOTDeathPoolCommon.Prediction memory truth = TruthContract.GetTruthState();\n\n    uint validStakers = 0;\n    for (uint i = 0; i < _stakers.length; i++) {\n      if (pool[_stakers[i]] >= _stakeRequired) {\n        // this account is a candidate\n        GOTDeathPoolCommon.Prediction storage prediction = predictions[_stakers[i]];\n        int16 points = 0;\n\n        for (uint j = 0; j < NumCharacters - 2; j++) {\n          if (\n            _skipsFirstEpisode == true &&\n            truth.dies[j] == true &&\n            truth.deathEpisode[j] == 1\n          ) {\n            continue;\n          }\n\n          if (prediction.dies[j] == truth.dies[j]) {\n            points = points + POINTS_FOR_CORRECT_DEATH_GUESS;\n\n            if (truth.dies[j] == true && prediction.deathEpisode[j] == truth.deathEpisode[j]) {\n              points = points + POINTS_FOR_CORRECT_DEATH_EPISODE;\n            }\n          }\n          else {\n            points = points - POINTS_FOR_INCORRECT_DEATH_GUESS;\n          }\n        }\n\n        if (_skipsFirstEpisode == true) {\n          // if we skip the first episode, just use first to die after episode 1\n          if (prediction.firstToDie == truth.firstToDieAfterFirstEpisode) {\n            points = points + POINTS_FOR_CORRECT_FIRST_TO_DIE;\n          }\n        }\n        else {\n          // if we don't skip the first episode, just use first to die\n          if (prediction.firstToDie == truth.firstToDie) {\n            points = points + POINTS_FOR_CORRECT_FIRST_TO_DIE;\n          }\n        }\n\n        if (prediction.lastToDie == truth.lastToDie) {\n          points = points + POINTS_FOR_CORRECT_LAST_TO_DIE;\n        }\n\n        if (prediction.lastOnThrone == truth.lastOnThrone) {\n          points = points + POINTS_FOR_CORRECT_THRONE;\n        }\n\n        resultPoints[validStakers] = points;\n        resultAddresses[validStakers] = _stakers[i];\n        validStakers++;\n      }\n    }\n\n    return (resultPoints, resultAddresses);\n  }\n\n  function complete() public onlyOwner answersAvailable isIncomplete {\n    _canDisperse = true;\n    int16[] memory resultPoints;\n    address[] memory resultAddresses;\n\n    address firstPlace;\n    address secondPlace;\n    address thirdPlace;\n    address fourthPlace;\n    address fifthPlace;\n\n    int16 firstPlacePoints = 0;\n    int16 secondPlacePoints = 0;\n    int16 thirdPlacePoints = 0;\n    int16 fourthPlacePoints = 0;\n    int16 fifthPlacePoints = 0;\n\n    (resultPoints, resultAddresses) = calculatePoints();\n\n    for (uint i = 0; i < resultPoints.length; i++) {\n      if (resultPoints[i] > fourthPlacePoints) {\n        fifthPlacePoints = fourthPlacePoints;\n\n        fifthPlace = fourthPlace;\n      }\n      if (resultPoints[i] > thirdPlacePoints) {\n        fourthPlacePoints = thirdPlacePoints;\n\n        fourthPlace = thirdPlace;\n      }\n      if (resultPoints[i] > secondPlacePoints) {\n        thirdPlacePoints = secondPlacePoints;\n\n        thirdPlace = secondPlace;\n      }\n      if (resultPoints[i] > firstPlacePoints) {\n        secondPlacePoints = firstPlacePoints;\n\n        secondPlace = firstPlace;\n      }\n\n      if (resultPoints[i] > firstPlacePoints) {\n        firstPlacePoints = resultPoints[i];\n\n        firstPlace = resultAddresses[i];\n      }\n      else if (resultPoints[i] > secondPlacePoints) {\n        secondPlacePoints = resultPoints[i];\n\n        secondPlace = resultAddresses[i];\n      }\n      else if (resultPoints[i] > thirdPlacePoints) {\n        thirdPlacePoints = resultPoints[i];\n\n        thirdPlace = resultAddresses[i];\n      }\n      else if (resultPoints[i] > fourthPlacePoints) {\n        fourthPlacePoints = resultPoints[i];\n\n        fourthPlace = resultAddresses[i];\n      }\n      else if (resultPoints[i] > fifthPlacePoints) {\n        fifthPlacePoints = resultPoints[i];\n\n        fifthPlace = resultAddresses[i];\n      }\n    }\n\n    _firstPlace = firstPlace;\n    _secondPlace = secondPlace;\n    _thirdPlace = thirdPlace;\n    _fourthPlace = fourthPlace;\n    _fifthPlace = fifthPlace;\n\n    _completedBalance = _token.balanceOf(address(this));\n  }\n\n  function disperse(address recipient, uint256 amount) public onlyOwner canDisperse ownerCanDisperse {\n    uint256 poolBalance = _token.balanceOf(address(this));\n    if (poolBalance >= amount) {\n      _token.safeTransfer(recipient, amount);\n    }\n    else {\n      _token.safeTransfer(recipient, poolBalance);\n    }\n  }\n\n  function allowClaiming() public onlyOwner answersAvailable isIncomplete {\n    _canClaim = true;\n  }\n\n  function claim() public canClaim didStake didNotClaim {\n    uint256 awardBalance = 0;\n    uint256 balancePercent = _completedBalance / 100;\n\n    if (msg.sender == _firstPlace) {\n      awardBalance = balancePercent * FIRST_PLACE_PRIZE_PERCENT;\n    }\n    else if (msg.sender == _secondPlace) {\n      awardBalance = balancePercent * SECOND_PLACE_PRIZE_PERCENT;\n    }\n    else if (msg.sender == _thirdPlace) {\n      awardBalance = balancePercent * THIRD_PLACE_PRIZE_PERCENT;\n    }\n    else if (msg.sender == _fourthPlace) {\n      awardBalance = balancePercent * FOURTH_PLACE_PRIZE_PERCENT;\n    }\n    else if (msg.sender == _fifthPlace) {\n      awardBalance = balancePercent * FIFTH_PLACE_PRIZE_PERCENT;\n    }\n\n    require(awardBalance > 0, \"You didn't place\");\n\n    uint256 poolBalance = _token.balanceOf(address(this));\n\n    if (poolBalance >= awardBalance) {\n      _token.safeTransfer(msg.sender, awardBalance);\n    }\n    else {\n      _token.safeTransfer(msg.sender, poolBalance);\n    }\n\n    claimed[msg.sender] = true;\n  }\n}\n",
  "sourcePath": "/home/mike/projects/game-of-thrones-death-pool/contracts/GOTDeathPool.sol",
  "compiler": {
    "name": "solc",
    "version": "0.5.7+commit.6da8b019.Emscripten.clang"
  },
  "schemaVersion": "3.0.2",
  "updatedAt": "2019-04-14T02:14:06.872Z",
  "devdoc": {
    "methods": {
      "isOwner()": {
        "return": "true if `msg.sender` is the owner of the contract."
      },
      "owner()": {
        "return": "the address of the owner."
      },
      "renounceOwnership()": {
        "details": "Allows the current owner to relinquish control of the contract. It will not be possible to call the functions with the `onlyOwner` modifier anymore."
      },
      "transferOwnership(address)": {
        "details": "Allows the current owner to transfer control of the contract to a newOwner.",
        "params": {
          "newOwner": "The address to transfer ownership to."
        }
      }
    }
  },
  "userdoc": {
    "methods": {
      "renounceOwnership()": {
        "notice": "Renouncing ownership will leave the contract without an owner, thereby removing any functionality that is only available to the owner."
      }
    }
  }
}