{
  "contractName": "GOTDeathPool",
  "abi": [
    {
      "constant": true,
      "inputs": [],
      "name": "_secondPlace",
      "outputs": [
        {
          "name": "",
          "type": "address"
        }
      ],
      "payable": false,
      "stateMutability": "view",
      "type": "function"
    },
    {
      "constant": true,
      "inputs": [],
      "name": "_completedBalance",
      "outputs": [
        {
          "name": "",
          "type": "uint256"
        }
      ],
      "payable": false,
      "stateMutability": "view",
      "type": "function"
    },
    {
      "constant": false,
      "inputs": [],
      "name": "renounceOwnership",
      "outputs": [],
      "payable": false,
      "stateMutability": "nonpayable",
      "type": "function"
    },
    {
      "constant": true,
      "inputs": [],
      "name": "_fourthPlace",
      "outputs": [
        {
          "name": "",
          "type": "address"
        }
      ],
      "payable": false,
      "stateMutability": "view",
      "type": "function"
    },
    {
      "constant": true,
      "inputs": [],
      "name": "owner",
      "outputs": [
        {
          "name": "",
          "type": "address"
        }
      ],
      "payable": false,
      "stateMutability": "view",
      "type": "function"
    },
    {
      "constant": true,
      "inputs": [],
      "name": "_skipsFirstEpisode",
      "outputs": [
        {
          "name": "",
          "type": "bool"
        }
      ],
      "payable": false,
      "stateMutability": "view",
      "type": "function"
    },
    {
      "constant": true,
      "inputs": [],
      "name": "isOwner",
      "outputs": [
        {
          "name": "",
          "type": "bool"
        }
      ],
      "payable": false,
      "stateMutability": "view",
      "type": "function"
    },
    {
      "constant": true,
      "inputs": [],
      "name": "_firstPlace",
      "outputs": [
        {
          "name": "",
          "type": "address"
        }
      ],
      "payable": false,
      "stateMutability": "view",
      "type": "function"
    },
    {
      "constant": true,
      "inputs": [],
      "name": "_thirdPlace",
      "outputs": [
        {
          "name": "",
          "type": "address"
        }
      ],
      "payable": false,
      "stateMutability": "view",
      "type": "function"
    },
    {
      "constant": false,
      "inputs": [
        {
          "name": "newOwner",
          "type": "address"
        }
      ],
      "name": "transferOwnership",
      "outputs": [],
      "payable": false,
      "stateMutability": "nonpayable",
      "type": "function"
    },
    {
      "constant": true,
      "inputs": [],
      "name": "_fifthPlace",
      "outputs": [
        {
          "name": "",
          "type": "address"
        }
      ],
      "payable": false,
      "stateMutability": "view",
      "type": "function"
    },
    {
      "inputs": [
        {
          "name": "truth",
          "type": "address"
        },
        {
          "name": "token",
          "type": "address"
        },
        {
          "name": "stakeRequired",
          "type": "uint256"
        },
        {
          "name": "canDisperse",
          "type": "bool"
        },
        {
          "name": "skipsFirstEpisode",
          "type": "bool"
        }
      ],
      "payable": false,
      "stateMutability": "nonpayable",
      "type": "constructor"
    },
    {
      "anonymous": false,
      "inputs": [
        {
          "indexed": true,
          "name": "previousOwner",
          "type": "address"
        },
        {
          "indexed": true,
          "name": "newOwner",
          "type": "address"
        }
      ],
      "name": "OwnershipTransferred",
      "type": "event"
    },
    {
      "constant": false,
      "inputs": [
        {
          "name": "amount",
          "type": "uint256"
        }
      ],
      "name": "setStakeAmount",
      "outputs": [],
      "payable": false,
      "stateMutability": "nonpayable",
      "type": "function"
    },
    {
      "constant": true,
      "inputs": [],
      "name": "requiredStake",
      "outputs": [
        {
          "name": "",
          "type": "uint256"
        }
      ],
      "payable": false,
      "stateMutability": "view",
      "type": "function"
    },
    {
      "constant": true,
      "inputs": [],
      "name": "requiredToken",
      "outputs": [
        {
          "name": "",
          "type": "address"
        }
      ],
      "payable": false,
      "stateMutability": "view",
      "type": "function"
    },
    {
      "constant": true,
      "inputs": [],
      "name": "ownerCanDisperseFunds",
      "outputs": [
        {
          "name": "",
          "type": "bool"
        }
      ],
      "payable": false,
      "stateMutability": "view",
      "type": "function"
    },
    {
      "constant": true,
      "inputs": [
        {
          "name": "a",
          "type": "address"
        }
      ],
      "name": "getName",
      "outputs": [
        {
          "name": "",
          "type": "string"
        }
      ],
      "payable": false,
      "stateMutability": "view",
      "type": "function"
    },
    {
      "constant": false,
      "inputs": [],
      "name": "open",
      "outputs": [],
      "payable": false,
      "stateMutability": "nonpayable",
      "type": "function"
    },
    {
      "constant": false,
      "inputs": [],
      "name": "close",
      "outputs": [],
      "payable": false,
      "stateMutability": "nonpayable",
      "type": "function"
    },
    {
      "constant": false,
      "inputs": [
        {
          "name": "dies",
          "type": "bool[30]"
        },
        {
          "name": "deathEpisode",
          "type": "uint8[30]"
        },
        {
          "name": "firstToDie",
          "type": "uint8"
        },
        {
          "name": "lastToDie",
          "type": "uint8"
        },
        {
          "name": "lastOnThrone",
          "type": "uint8"
        },
        {
          "name": "name",
          "type": "string"
        }
      ],
      "name": "predict",
      "outputs": [],
      "payable": false,
      "stateMutability": "nonpayable",
      "type": "function"
    },
    {
      "constant": false,
      "inputs": [],
      "name": "stake",
      "outputs": [],
      "payable": false,
      "stateMutability": "nonpayable",
      "type": "function"
    },
    {
      "constant": false,
      "inputs": [],
      "name": "withdraw",
      "outputs": [],
      "payable": false,
      "stateMutability": "nonpayable",
      "type": "function"
    },
    {
      "constant": true,
      "inputs": [],
      "name": "calculatePoints",
      "outputs": [
        {
          "name": "",
          "type": "int16[]"
        },
        {
          "name": "",
          "type": "address[]"
        }
      ],
      "payable": false,
      "stateMutability": "view",
      "type": "function"
    },
    {
      "constant": false,
      "inputs": [],
      "name": "complete",
      "outputs": [],
      "payable": false,
      "stateMutability": "nonpayable",
      "type": "function"
    },
    {
      "constant": false,
      "inputs": [
        {
          "name": "recipient",
          "type": "address"
        },
        {
          "name": "amount",
          "type": "uint256"
        }
      ],
      "name": "disperse",
      "outputs": [],
      "payable": false,
      "stateMutability": "nonpayable",
      "type": "function"
    },
    {
      "constant": false,
      "inputs": [],
      "name": "claim",
      "outputs": [],
      "payable": false,
      "stateMutability": "nonpayable",
      "type": "function"
    }
  ],
  "bytecode": "0x60806040523480156200001157600080fd5b5060405160a080620029c4833981018060405262000033919081019062000155565b60008054600160a060020a0319163317808255604051600160a060020a039190911691907f8be0079c531659141344cd1fd0a4f28419497f9722a3daafe3b4186f6b6457e0908290a360018054600380546002969096559315157601000000000000000000000000000000000000000000000260a860020a61ffff021960a060020a60ff0219600160a060020a03998a16600160a060020a03199094169390931792909216740100000000000000000000000000000000000000001791909116179055151560ff19939094166101000261010060a860020a0319909216919091179190911691909117905562000209565b6000620001328251620001e8565b9392505050565b6000620001328251620001ed565b600062000132825162000206565b600080600080600060a086880312156200016e57600080fd5b60006200017c888862000139565b95505060206200018f8882890162000139565b9450506040620001a28882890162000147565b9350506060620001b58882890162000124565b9250506080620001c88882890162000124565b9150509295509295909350565b6000620001e282620001fa565b92915050565b151590565b6000620001e282620001d5565b600160a060020a031690565b90565b6127ab80620002196000396000f3fe608060405234801561001057600080fd5b50600436106101775760003560e060020a90048063715018a6116100e25780638f32d59b1161009b578063e311e3df11610075578063e311e3df1461029d578063f2fde38b146102a5578063f96070a3146102b8578063fcfff16f146102c057610177565b80638f32d59b14610285578063c26036581461028d578063daed85fd1461029557610177565b8063715018a61461023d5780638365d4e51461024557806387f7fea01461024d5780638a204ed6146102605780638da5cb5b146102685780638edaf6371461027057610177565b806343808c501161013457806343808c50146101ea57806343d726d6146101fd5780634e71d92d14610205578063522e11771461020d5780635fd4b08a1461021557806367f398201461023557610177565b806319cb355d1461017c57806337cc3fe01461019a5780633a4b66f1146101af5780633ccfd60b146101b75780633f6742d6146101bf5780633f6a2c97146101d4575b600080fd5b6101846102c8565b6040516101919190612654565b60405180910390f35b6101ad6101a8366004611ee6565b6102cf565b005b6101ad610444565b6101ad610639565b6101c7610798565b60405161019191906124fb565b6101dc6107a7565b604051610191929190612560565b6101ad6101f8366004612002565b610bb8565b6101ad610c77565b6101ad610cab565b6101ad610f01565b610228610223366004611ec0565b6113db565b6040516101919190612593565b610184611486565b6101ad61148c565b6101c76114f6565b6101ad61025b366004611f20565b611505565b6101c76116b0565b6101c76116c4565b6102786116d3565b6040516101919190612585565b6102786116dc565b6101c76116ed565b6101c76116fc565b61027861170b565b6101ad6102b3366004611ec0565b61172e565b6101c761174a565b6101ad611759565b6002545b90565b6102d76116dc565b15156102e257600080fd5b600180547501000000000000000000000000000000000000000000900460ff1615151461032d5760405160e560020a62461bcd02815260040161032490612634565b60405180910390fd5b60018054760100000000000000000000000000000000000000000000900460ff161515146103705760405160e560020a62461bcd02815260040161032490612604565b60035460405160e060020a6370a082310281526000916101009004600160a060020a0316906370a08231906103a99030906004016124fb565b60206040518083038186803b1580156103c157600080fd5b505afa1580156103d5573d6000803e3d6000fd5b505050506040513d601f19601f820116820180604052506103f99190810190612020565b90508181106104235760035461041e906101009004600160a060020a031684846117be565b61043f565b60035461043f906101009004600160a060020a031684836117be565b505050565b6001805474010000000000000000000000000000000000000000900460ff161515146104855760405160e560020a62461bcd028152600401610324906125c4565b33600090815260066020526040902054156104b55760405160e560020a62461bcd02815260040161032490612624565b60025460035460405160e060020a6370a08231028152610100909104600160a060020a0316906370a08231906104ef90339060040161250f565b60206040518083038186803b15801561050757600080fd5b505afa15801561051b573d6000803e3d6000fd5b505050506040513d601f19601f8201168201806040525061053f9190810190612020565b10156105605760405160e560020a62461bcd028152600401610324906125e4565b60025460035461058391610100909104600160a060020a0316903390309061185d565b600254336000908152600660205260408120919091555b6004548110156105dd5760048054339190839081106105b557fe5b600091825260209091200154600160a060020a031614156105d5576105dd565b60010161059a565b600454811061063657600480546001810182556000919091527f8a35acfbc15ff81a39ae7d344fd709f28e8600b4aa8c65c6b64bfe7fe36bd19b01805473ffffffffffffffffffffffffffffffffffffffff1916331790555b50565b6001805474010000000000000000000000000000000000000000900460ff1615151461067a5760405160e560020a62461bcd028152600401610324906125c4565b6002543360009081526006602052604090205410156106ae5760405160e560020a62461bcd028152600401610324906125d4565b60035460405160e060020a6370a082310281526000916101009004600160a060020a0316906370a08231906106e79030906004016124fb565b60206040518083038186803b1580156106ff57600080fd5b505afa158015610713573d6000803e3d6000fd5b505050506040513d601f19601f820116820180604052506107379190810190612020565b60025490915081106107695760025460035461076491610100909104600160a060020a03169033906117be565b610785565b600354610785906101009004600160a060020a031633836117be565b5033600090815260066020526040812055565b600a54600160a060020a031681565b60608060606004805490506040519080825280602002602001820160405280156107db578160200160208202803883390190505b509050606060048054905060405190808252806020026020018201604052801561080f578160200160208202803883390190505b50905061081a6119d5565b600160009054906101000a9004600160a060020a0316600160a060020a03166340e1fd226040518163ffffffff1660e060020a0281526004016108006040518083038186803b15801561086c57600080fd5b505afa158015610880573d6000803e3d6000fd5b505050506040513d601f19601f820116820180604052506108a49190810190611fe3565b90506000805b600454811015610bab57600254600660006004848154811015156108ca57fe5b6000918252602080832090910154600160a060020a0316835282019290925260400190205410610ba35760006005600060048481548110151561090957fe5b6000918252602080832090910154600160a060020a0316835282019290925260400181209150805b601c811015610a555760035460ff16151560011480156109645750855181601e811061095957fe5b602002015115156001145b80156109875750602086015181601e811061097b57fe5b602002015160ff166001145b1561099157610a4d565b855181601e811061099e57fe5b602002015115158382601e81106109b157fe5b602081049091015460ff601f9092166101000a90041615151415610a455785516001929092019181601e81106109e357fe5b602002015115156001148015610a335750602086015181601e8110610a0457fe5b602002015160ff166001840182601e8110610a1b57fe5b602081049091015460ff601f9092166101000a900416145b15610a4057600191909101905b610a4d565b600019909101905b600101610931565b5060035460ff16151560011415610a98578460600151601d811115610a7657fe5b600283015460ff16601d811115610a8957fe5b1415610a93576001015b610ac5565b8460400151601d811115610aa857fe5b600283015460ff16601d811115610abb57fe5b1415610ac5576001015b8460800151601d811115610ad557fe5b600283015462010000900460ff16601d811115610aee57fe5b1415610af8576001015b8460a00151601d811115610b0857fe5b60028301546301000000900460ff16601d811115610b2257fe5b1415610b2c576001015b808785815181101515610b3b57fe5b600192830b90920b6020928302909101909101526004805484908110610b5d57fe5b6000918252602090912001548651600160a060020a0390911690879086908110610b8357fe5b600160a060020a0390921660209283029091019091015250506001909101905b6001016108aa565b5092945090925050509091565b610bc06116dc565b1515610bcb57600080fd5b60035460405160e060020a6370a08231028152610100909104600160a060020a0316906370a0823190610c029030906004016124fb565b60206040518083038186803b158015610c1a57600080fd5b505afa158015610c2e573d6000803e3d6000fd5b505050506040513d601f19601f82011682018060405250610c529190810190612020565b15610c725760405160e560020a62461bcd02815260040161032490612614565b600255565b610c7f6116dc565b1515610c8a57600080fd5b6001805475ffff000000000000000000000000000000000000000019169055565b600180547501000000000000000000000000000000000000000000900460ff16151514610ced5760405160e560020a62461bcd02815260040161032490612634565b600254336000908152600660205260409020541015610d215760405160e560020a62461bcd028152600401610324906125d4565b3360009081526008602052604090205460ff1615610d545760405160e560020a62461bcd028152600401610324906125f4565b600e546009546000916064900490600160a060020a0316331415610d7d57603381029150610df1565b600a54600160a060020a0316331415610d9b57601a81029150610df1565b600b54600160a060020a0316331415610db957600d81029150610df1565b600c54600160a060020a0316331415610dd757600781029150610df1565b600d54600160a060020a0316331415610df1576003810291505b811515610e135760405160e560020a62461bcd028152600401610324906125b4565b60035460405160e060020a6370a082310281526000916101009004600160a060020a0316906370a0823190610e4c9030906004016124fb565b60206040518083038186803b158015610e6457600080fd5b505afa158015610e78573d6000803e3d6000fd5b505050506040513d601f19601f82011682018060405250610e9c9190810190612020565b9050828110610ec657600354610ec1906101009004600160a060020a031633856117be565b610ee2565b600354610ee2906101009004600160a060020a031633836117be565b5050336000908152600860205260409020805460ff1916600117905550565b610f096116dc565b1515610f1457600080fd5b600160009054906101000a9004600160a060020a0316600160a060020a0316633e7c7b906040518163ffffffff1660e060020a02815260040160206040518083038186803b158015610f6557600080fd5b505afa158015610f79573d6000803e3d6000fd5b505050506040513d601f19601f82011682018060405250610f9d9190810190611fc5565b1515600114610fc15760405160e560020a62461bcd02815260040161032490612644565b6001547501000000000000000000000000000000000000000000900460ff16156110005760405160e560020a62461bcd028152600401610324906125a4565b6001805475ff00000000000000000000000000000000000000000019167501000000000000000000000000000000000000000000179055606080600080808080808080808061104d6107a7565b909c509a5060005b8c518110156112e8578260010b8d8281518110151561107057fe5b9060200190602002015160010b131561108a578291508796505b8360010b8d8281518110151561109c57fe5b9060200190602002015160010b13156110b6578392508897505b8460010b8d828151811015156110c857fe5b9060200190602002015160010b13156110e2578493508998505b8560010b8d828151811015156110f457fe5b9060200190602002015160010b131561110e578594508a99505b8560010b8d8281518110151561112057fe5b9060200190602002015160010b131561116c578c8181518110151561114157fe5b9060200190602002015195508b8181518110151561115b57fe5b906020019060200201519a506112e0565b8460010b8d8281518110151561117e57fe5b9060200190602002015160010b13156111ca578c8181518110151561119f57fe5b9060200190602002015194508b818151811015156111b957fe5b9060200190602002015199506112e0565b8360010b8d828151811015156111dc57fe5b9060200190602002015160010b1315611228578c818151811015156111fd57fe5b9060200190602002015193508b8181518110151561121757fe5b9060200190602002015198506112e0565b8260010b8d8281518110151561123a57fe5b9060200190602002015160010b1315611286578c8181518110151561125b57fe5b9060200190602002015192508b8181518110151561127557fe5b9060200190602002015197506112e0565b8160010b8d8281518110151561129857fe5b9060200190602002015160010b13156112e0578c818151811015156112b957fe5b9060200190602002015191508b818151811015156112d357fe5b9060200190602002015196505b600101611055565b506009805473ffffffffffffffffffffffffffffffffffffffff19908116600160a060020a038d811691909117909255600a805482168c8416179055600b805482168b8416179055600c805482168a8416179055600d805490911688831617905560035460405160e060020a6370a08231028152610100909104909116906370a082319061137a9030906004016124fb565b60206040518083038186803b15801561139257600080fd5b505afa1580156113a6573d6000803e3d6000fd5b505050506040513d601f19601f820116820180604052506113ca9190810190612020565b600e55505050505050505050505050565b600160a060020a03811660009081526007602090815260409182902080548351601f600260001961010060018616150201909316929092049182018490048402810184019094528084526060939283018282801561147a5780601f1061144f5761010080835404028352916020019161147a565b820191906000526020600020905b81548152906001019060200180831161145d57829003601f168201915b50505050509050919050565b600e5481565b6114946116dc565b151561149f57600080fd5b60008054604051600160a060020a03909116907f8be0079c531659141344cd1fd0a4f28419497f9722a3daafe3b4186f6b6457e0908390a36000805473ffffffffffffffffffffffffffffffffffffffff19169055565b600c54600160a060020a031681565b6001805474010000000000000000000000000000000000000000900460ff161515146115465760405160e560020a62461bcd028152600401610324906125c4565b61154e6119d5565b868152602081018690526040810185601d81111561156857fe5b9081601d81111561157557fe5b9052506080810184601d81111561158857fe5b9081601d81111561159557fe5b90525060a0810183601d8111156115a857fe5b9081601d8111156115b557fe5b90525033600090815260076020908152604090912083516115d892850190611a17565b5033600090815260056020526040902081518291906115fa908290601e611a95565b506020820151611610906001830190601e611b23565b50604082015160028201805460ff1916600183601d81111561162e57fe5b0217905550606082015160028201805461ff00191661010083601d81111561165257fe5b0217905550608082015160028201805462ff000019166201000083601d81111561167857fe5b021790555060a082015160028201805463ff0000001916630100000083601d8111156116a057fe5b0217905550505050505050505050565b6003546101009004600160a060020a031690565b600054600160a060020a031690565b60035460ff1681565b600054600160a060020a0316331490565b600954600160a060020a031681565b600b54600160a060020a031681565b600154760100000000000000000000000000000000000000000000900460ff1690565b6117366116dc565b151561174157600080fd5b610636816118a0565b600d54600160a060020a031681565b6117616116dc565b151561176c57600080fd5b6001805475ff0000000000000000000000000000000000000000001974ff0000000000000000000000000000000000000000199091167401000000000000000000000000000000000000000017169055565b60405161043f9084907fa9059cbb00000000000000000000000000000000000000000000000000000000906117f99086908690602401612545565b60408051601f198184030181529190526020810180517bffffffffffffffffffffffffffffffffffffffffffffffffffffffff167fffffffff000000000000000000000000000000000000000000000000000000009093169290921790915261191d565b60405161189a9085907f23b872dd00000000000000000000000000000000000000000000000000000000906117f99087908790879060240161251d565b50505050565b600160a060020a03811615156118b557600080fd5b60008054604051600160a060020a03808516939216917f8be0079c531659141344cd1fd0a4f28419497f9722a3daafe3b4186f6b6457e091a36000805473ffffffffffffffffffffffffffffffffffffffff1916600160a060020a0392909216919091179055565b61192f82600160a060020a03166119cf565b151561193a57600080fd5b6000606083600160a060020a03168360405161195691906124ef565b6000604051808303816000865af19150503d8060008114611993576040519150601f19603f3d011682016040523d82523d6000602084013e611998565b606091505b50915091508115156119a957600080fd5b80511561189a57808060200190516119c49190810190611fc5565b151561189a57600080fd5b3b151590565b6040518061080001604052806119e9611b77565b81526020016119f6611b77565b81526020016000815260200160008152602001600081526020016000905290565b828054600181600116156101000203166002900490600052602060002090601f016020900481019282601f10611a5857805160ff1916838001178555611a85565b82800160010185558215611a85579182015b82811115611a85578251825591602001919060010190611a6a565b50611a91929150611b96565b5090565b600183019183908215611b175791602002820160005b83821115611ae857835183826101000a81548160ff0219169083151502179055509260200192600101602081600001049283019260010302611aab565b8015611b155782816101000a81549060ff0219169055600101602081600001049283019260010302611ae8565b505b50611a91929150611bb0565b600183019183908215611b175791602002820160005b83821115611ae857835183826101000a81548160ff021916908360ff1602179055509260200192600101602081600001049283019260010302611b39565b604051806103c00160405280601e906020820280388339509192915050565b6102cc91905b80821115611a915760008155600101611b9c565b6102cc91905b80821115611a9157805460ff19168155600101611bb6565b6000611bda82356126e7565b9392505050565b6000601f82018313611bf257600080fd5b601e611c05611c0082612689565b612662565b91508183856020840282011115611c1b57600080fd5b60005b83811015611c475781611c318882611d80565b8452506020928301929190910190600101611c1e565b5050505092915050565b6000601f82018313611c6257600080fd5b601e611c70611c0082612689565b91508183856020840282011115611c8657600080fd5b60005b83811015611c475781611c9c8882611d74565b8452506020928301929190910190600101611c89565b6000601f82018313611cc357600080fd5b601e611cd1611c0082612689565b91508183856020840282011115611ce757600080fd5b60005b83811015611c475781611cfd8882611eb4565b8452506020928301929190910190600101611cea565b6000601f82018313611d2457600080fd5b601e611d32611c0082612689565b91508183856020840282011115611d4857600080fd5b60005b83811015611c475781611d5e8882611ea8565b8452506020928301929190910190600101611d4b565b6000611bda82356126f2565b6000611bda82516126f2565b6000611bda8235612709565b6000611bda8251612709565b6000601f82018313611db557600080fd5b8135611dc3611c00826126a7565b91508082526020830160208301858383011115611ddf57600080fd5b611dea83828461272f565b50505092915050565b60006108008284031215611e0657600080fd5b611e1060c0612662565b90506000611e1e8484611be1565b8252506103c0611e3084848301611cb2565b602083015250610780611e4584828501611d98565b6040830152506107a0611e5a84828501611d98565b6060830152506107c0611e6f84828501611d98565b6080830152506107e0611e8484828501611d98565b60a08301525092915050565b6000611bda82356102cc565b6000611bda82516102cc565b6000611bda8235612718565b6000611bda8251612718565b600060208284031215611ed257600080fd5b6000611ede8484611bce565b949350505050565b60008060408385031215611ef957600080fd5b6000611f058585611bce565b9250506020611f1685828601611e90565b9150509250929050565b6000806000806000806108008789031215611f3a57600080fd5b6000611f468989611c51565b9650506103c0611f5889828a01611d13565b955050610780611f6a89828a01611d8c565b9450506107a0611f7c89828a01611d8c565b9350506107c0611f8e89828a01611d8c565b9250506107e087013567ffffffffffffffff811115611fac57600080fd5b611fb889828a01611da4565b9150509295509295509295565b600060208284031215611fd757600080fd5b6000611ede8484611d80565b60006108008284031215611ff657600080fd5b6000611ede8484611df3565b60006020828403121561201457600080fd5b6000611ede8484611e90565b60006020828403121561203257600080fd5b6000611ede8484611e9c565b600061204a838361206d565b505060200190565b600061204a838361214e565b6120678161271e565b82525050565b612067816126e7565b6000612081826126d5565b61208b81856126d9565b9350612096836126cf565b60005b828110156120c1576120ac86835161203e565b95506120b7826126cf565b9150600101612099565b5093949350505050565b60006120d6826126d5565b6120e081856126d9565b93506120eb836126cf565b60005b828110156120c157612101868351612052565b955061210c826126cf565b91506001016120ee565b612067816126f2565b600061212a826126d5565b61213481856126e2565b935061214481856020860161273b565b9290920192915050565b612067816126f7565b6000612162826126d5565b61216c81856126d9565b935061217c81856020860161273b565b61218581612767565b9093019392505050565b600061219c6023836126d9565b7f54686520706f6f6c2068617320616c7265616479206265656e20636f6d706c6581527f7465640000000000000000000000000000000000000000000000000000000000602082015260400192915050565b60006121fb6010836126d9565b7f596f75206469646e277420706c61636500000000000000000000000000000000815260200192915050565b60006122346016836126d9565b7f50726564696374696f6e732061726520636c6f73656400000000000000000000815260200192915050565b600061226d6024836126d9565b7f596f7520646f6e2774206861766520616e792066756e647320696e207468652081527f706f6f6c00000000000000000000000000000000000000000000000000000000602082015260400192915050565b60006122cc6034836126d9565b7f596f7572206163636f756e7420646f65736e2774206861766520656e6f75676881527f2066756e647320666f722074686520746f6b656e000000000000000000000000602082015260400192915050565b600061232b6014836126d9565b7f596f7520616c726561647920636c61696d656421000000000000000000000000815260200192915050565b60006123646036836126d9565b7f596f752063616e6e6f742064697370657273652066756e6473206576656e207481527f686f75676820796f7527726520746865206f776e657200000000000000000000602082015260400192915050565b60006123c36024836126d9565b7f546865726520697320736f6d65207374616b65206c65667420696e207468652081527f706f6f6c00000000000000000000000000000000000000000000000000000000602082015260400192915050565b60006124226026836126d9565b7f596f7520616c7265616479206861766520616e792066756e647320696e20746881527f6520706f6f6c0000000000000000000000000000000000000000000000000000602082015260400192915050565b60006124816020836126d9565b7f596f752063616e6e6f7420636c61696d20796f757220626f756e747920796574815260200192915050565b60006124ba601d836126d9565b7f416e737765727320617265206e6f7420617661696c61626c6520796574000000815260200192915050565b612067816102cc565b6000611bda828461211f565b60208101612509828461206d565b92915050565b60208101612509828461205e565b6060810161252b828661206d565b612538602083018561206d565b611ede60408301846124e6565b60408101612553828561206d565b611bda60208301846124e6565b6040808252810161257181856120cb565b90508181036020830152611ede8184612076565b602081016125098284612116565b60208082528101611bda8184612157565b602080825281016125098161218f565b60208082528101612509816121ee565b6020808252810161250981612227565b6020808252810161250981612260565b60208082528101612509816122bf565b602080825281016125098161231e565b6020808252810161250981612357565b60208082528101612509816123b6565b6020808252810161250981612415565b6020808252810161250981612474565b60208082528101612509816124ad565b6020810161250982846124e6565b60405181810167ffffffffffffffff8111828210171561268157600080fd5b604052919050565b600067ffffffffffffffff8211156126a057600080fd5b5060200290565b600067ffffffffffffffff8211156126be57600080fd5b506020601f91909101601f19160190565b60200190565b5190565b90815260200190565b919050565b6000612509826126fd565b151590565b60010b90565b600160a060020a031690565b6000601e8210611a9157600080fd5b60ff1690565b6000612509826000612509826126e7565b82818337506000910152565b60005b8381101561275657818101518382015260200161273e565b8381111561189a5750506000910152565b601f01601f19169056fea265627a7a72305820ad8745783ce695247581efcaa0fa079bf078f7bf41ec84bc85b28e0e4639fcc06c6578706572696d656e74616cf50037",
  "source": "pragma solidity ^0.5.5;\npragma experimental ABIEncoderV2;\n\nimport \"openzeppelin-solidity/contracts/token/ERC20/IERC20.sol\";\nimport \"openzeppelin-solidity/contracts/token/ERC20/SafeERC20.sol\";\nimport \"openzeppelin-solidity/contracts/ownership/Ownable.sol\";\nimport \"./GOTDeathPoolCommon.sol\";\nimport \"./GOTDeathPoolTruth.sol\";\n\ncontract GOTDeathPool is Ownable {\n  using GOTDeathPoolCommon for GOTDeathPoolCommon.Prediction;\n  using GOTDeathPoolCommon for GOTDeathPoolCommon.Character;\n  using SafeERC20 for IERC20;\n\n  GOTDeathPoolTruth private TruthContract;\n  bool private _open;\n  bool private _canClaim;\n  bool private _ownerCanDisperse;\n  uint256 private _stakeRequired;\n  bool public _skipsFirstEpisode;\n  IERC20 private _token;\n  address[] private _stakers;\n  mapping(address => GOTDeathPoolCommon.Prediction) private predictions;\n  mapping(address => uint256) private pool;\n  mapping(address => string) private names;\n  mapping(address => bool) private claimed;\n  address public _firstPlace;\n  address public _secondPlace;\n  address public _thirdPlace;\n  address public _fourthPlace;\n  address public _fifthPlace;\n  uint256 public _completedBalance;\n\n  uint8 constant NumCharacters = 30;\n  uint8 constant POINTS_FOR_CORRECT_DEATH_GUESS = 1;\n  uint8 constant POINTS_FOR_INCORRECT_DEATH_GUESS = 1;\n  uint8 constant POINTS_FOR_CORRECT_DEATH_EPISODE = 1;\n  uint8 constant POINTS_FOR_CORRECT_FIRST_TO_DIE = 1;\n  uint8 constant POINTS_FOR_CORRECT_LAST_TO_DIE = 1;\n  uint8 constant POINTS_FOR_CORRECT_THRONE = 1;\n\n  uint8 constant FIRST_PLACE_PRIZE_PERCENT = 51;\n  uint8 constant SECOND_PLACE_PRIZE_PERCENT = 26;\n  uint8 constant THIRD_PLACE_PRIZE_PERCENT = 13;\n  uint8 constant FOURTH_PLACE_PRIZE_PERCENT = 7;\n  uint8 constant FIFTH_PLACE_PRIZE_PERCENT = 3;\n\n  modifier predictionsOpen() {\n    require(_open == true, \"Predictions are closed\");\n    _;\n  }\n\n  modifier canClaim() {\n    require(_canClaim == true, \"You cannot claim your bounty yet\");\n    _;\n  }\n\n  modifier ownerCanDisperse() {\n    require(_ownerCanDisperse == true, \"You cannot disperse funds even though you're the owner\");\n    _;\n  }\n\n  modifier isIncomplete() {\n    require(_canClaim == false, \"The pool has already been completed\");\n    _;\n  }\n\n  modifier noStakers() {\n    require(_token.balanceOf(address(this)) == 0, \"There is some stake left in the pool\");\n    _;\n  }\n\n  modifier answersAvailable() {\n    require(TruthContract.TruthComplete() == true, \"Answers are not available yet\");\n    _;\n  }\n\n  modifier didStake() {\n    require(pool[msg.sender] >= _stakeRequired, \"You don't have any funds in the pool\");\n    _;\n  }\n\n  modifier didNotClaim() {\n    require(claimed[msg.sender] == false, \"You already claimed!\");\n    _;\n  }\n\n  modifier didNotStake() {\n    require(pool[msg.sender] == 0, \"You already have any funds in the pool\");\n    _;\n  }\n\n  modifier hasEnoughFunds() {\n    require(_token.balanceOf(msg.sender) >= _stakeRequired, \"Your account doesn't have enough funds for the token\");\n    _;\n  }\n\n  modifier canWithdraw() {\n    require(_token.balanceOf(address(this)) >= _stakeRequired, \"The pool contract doesn't have enough funds to withdraw\");\n    _;\n  }\n\n  constructor(\n    GOTDeathPoolTruth truth,\n    IERC20 token,\n    uint256 stakeRequired,\n    bool canDisperse,\n    bool skipsFirstEpisode\n  )\n    Ownable()\n    public\n  {\n    TruthContract = truth;\n    _open = true;\n    _canClaim = false;\n    _token = token;\n    _stakeRequired = stakeRequired;\n    _ownerCanDisperse = canDisperse;\n    _skipsFirstEpisode = skipsFirstEpisode;\n  }\n\n  function setStakeAmount(uint256 amount) public onlyOwner noStakers {\n    _stakeRequired = amount;\n  }\n\n  function requiredStake() public view returns(uint256) {\n    return _stakeRequired;\n  }\n\n  function requiredToken() public view returns(address) {\n    return address(_token);\n  }\n\n  function ownerCanDisperseFunds() public view returns(bool) {\n    return _ownerCanDisperse;\n  }\n\n  function getName(address a) public view returns(string memory) {\n    return names[a];\n  }\n\n  function open() public onlyOwner {\n    _open = true;\n    _canClaim = false;\n  }\n\n  function close() public onlyOwner {\n    _open = false;\n    _canClaim = false;\n  }\n\n  function predict(\n    bool[30] memory dies,\n    uint8[30] memory deathEpisode,\n    GOTDeathPoolCommon.Character firstToDie,\n    GOTDeathPoolCommon.Character lastToDie,\n    GOTDeathPoolCommon.Character lastOnThrone,\n    string memory name\n  )\n    public\n    predictionsOpen\n  {\n    GOTDeathPoolCommon.Prediction memory prediction;\n    prediction.dies = dies;\n    prediction.deathEpisode = deathEpisode;\n    prediction.firstToDie = firstToDie;\n    prediction.lastToDie = lastToDie;\n    prediction.lastOnThrone = lastOnThrone;\n    names[msg.sender] = name;\n    predictions[msg.sender] = prediction;\n  }\n\n  function stake() public predictionsOpen didNotStake hasEnoughFunds {\n    _token.safeTransferFrom(msg.sender, address(this), _stakeRequired);\n    pool[msg.sender] = _stakeRequired;\n    uint i = 0;\n    for (i = 0; i < _stakers.length; i++) {\n      if (_stakers[i] == msg.sender) {\n        break;\n      }\n    }\n    if (i >= _stakers.length) {\n      _stakers.push(msg.sender);\n    }\n  }\n\n  function withdraw() public predictionsOpen didStake {\n    uint256 poolBalance = _token.balanceOf(address(this));\n    if (poolBalance >= _stakeRequired) {\n      _token.safeTransfer(msg.sender, _stakeRequired);\n    }\n    else {\n      _token.safeTransfer(msg.sender, poolBalance);\n    }\n    pool[msg.sender] = 0;\n  }\n\n  function calculatePoints() public view returns (int16[] memory, address[] memory) {\n    int16[] memory resultPoints = new int16[](_stakers.length);\n    address[] memory resultAddresses = new address[](_stakers.length);\n\n    GOTDeathPoolCommon.Prediction memory truth = TruthContract.GetTruthState();\n\n    uint validStakers = 0;\n    for (uint i = 0; i < _stakers.length; i++) {\n      if (pool[_stakers[i]] >= _stakeRequired) {\n        // this account is a candidate\n        GOTDeathPoolCommon.Prediction storage prediction = predictions[_stakers[i]];\n        int16 points = 0;\n\n        for (uint j = 0; j < NumCharacters - 2; j++) {\n          if (\n            _skipsFirstEpisode == true &&\n            truth.dies[j] == true &&\n            truth.deathEpisode[j] == 1\n          ) {\n            continue;\n          }\n\n          if (prediction.dies[j] == truth.dies[j]) {\n            points = points + POINTS_FOR_CORRECT_DEATH_GUESS;\n\n            if (truth.dies[j] == true && prediction.deathEpisode[j] == truth.deathEpisode[j]) {\n              points = points + POINTS_FOR_CORRECT_DEATH_EPISODE;\n            }\n          }\n          else {\n            points = points - POINTS_FOR_INCORRECT_DEATH_GUESS;\n          }\n        }\n\n        if (_skipsFirstEpisode == true) {\n          // if we skip the first episode, just use first to die after episode 1\n          if (prediction.firstToDie == truth.firstToDieAfterFirstEpisode) {\n            points = points + POINTS_FOR_CORRECT_FIRST_TO_DIE;\n          }\n        }\n        else {\n          // if we don't skip the first episode, just use first to die\n          if (prediction.firstToDie == truth.firstToDie) {\n            points = points + POINTS_FOR_CORRECT_FIRST_TO_DIE;\n          }\n        }\n\n        if (prediction.lastToDie == truth.lastToDie) {\n          points = points + POINTS_FOR_CORRECT_LAST_TO_DIE;\n        }\n\n        if (prediction.lastOnThrone == truth.lastOnThrone) {\n          points = points + POINTS_FOR_CORRECT_THRONE;\n        }\n\n        resultPoints[validStakers] = points;\n        resultAddresses[validStakers] = _stakers[i];\n        validStakers++;\n      }\n    }\n\n    return (resultPoints, resultAddresses);\n  }\n\n  function complete() public onlyOwner answersAvailable isIncomplete {\n    _canClaim = true;\n    int16[] memory resultPoints;\n    address[] memory resultAddresses;\n\n    address firstPlace;\n    address secondPlace;\n    address thirdPlace;\n    address fourthPlace;\n    address fifthPlace;\n\n    int16 firstPlacePoints = 0;\n    int16 secondPlacePoints = 0;\n    int16 thirdPlacePoints = 0;\n    int16 fourthPlacePoints = 0;\n    int16 fifthPlacePoints = 0;\n\n    (resultPoints, resultAddresses) = calculatePoints();\n\n    for (uint i = 0; i < resultPoints.length; i++) {\n      if (resultPoints[i] > fourthPlacePoints) {\n        fifthPlacePoints = fourthPlacePoints;\n\n        fifthPlace = fourthPlace;\n      }\n      if (resultPoints[i] > thirdPlacePoints) {\n        fourthPlacePoints = thirdPlacePoints;\n\n        fourthPlace = thirdPlace;\n      }\n      if (resultPoints[i] > secondPlacePoints) {\n        thirdPlacePoints = secondPlacePoints;\n\n        thirdPlace = secondPlace;\n      }\n      if (resultPoints[i] > firstPlacePoints) {\n        secondPlacePoints = firstPlacePoints;\n\n        secondPlace = firstPlace;\n      }\n\n      if (resultPoints[i] > firstPlacePoints) {\n        firstPlacePoints = resultPoints[i];\n\n        firstPlace = resultAddresses[i];\n      }\n      else if (resultPoints[i] > secondPlacePoints) {\n        secondPlacePoints = resultPoints[i];\n\n        secondPlace = resultAddresses[i];\n      }\n      else if (resultPoints[i] > thirdPlacePoints) {\n        thirdPlacePoints = resultPoints[i];\n\n        thirdPlace = resultAddresses[i];\n      }\n      else if (resultPoints[i] > fourthPlacePoints) {\n        fourthPlacePoints = resultPoints[i];\n\n        fourthPlace = resultAddresses[i];\n      }\n      else if (resultPoints[i] > fifthPlacePoints) {\n        fifthPlacePoints = resultPoints[i];\n\n        fifthPlace = resultAddresses[i];\n      }\n    }\n\n    _firstPlace = firstPlace;\n    _secondPlace = secondPlace;\n    _thirdPlace = thirdPlace;\n    _fourthPlace = fourthPlace;\n    _fifthPlace = fifthPlace;\n\n    _completedBalance = _token.balanceOf(address(this));\n  }\n\n  function disperse(address recipient, uint256 amount) public onlyOwner canClaim ownerCanDisperse {\n    uint256 poolBalance = _token.balanceOf(address(this));\n    if (poolBalance >= amount) {\n      _token.safeTransfer(recipient, amount);\n    }\n    else {\n      _token.safeTransfer(recipient, poolBalance);\n    }\n  }\n\n  function claim() public canClaim didStake didNotClaim {\n    uint256 awardBalance = 0;\n    uint256 balancePercent = _completedBalance / 100;\n\n    if (msg.sender == _firstPlace) {\n      awardBalance = balancePercent * FIRST_PLACE_PRIZE_PERCENT;\n    }\n    else if (msg.sender == _secondPlace) {\n      awardBalance = balancePercent * SECOND_PLACE_PRIZE_PERCENT;\n    }\n    else if (msg.sender == _thirdPlace) {\n      awardBalance = balancePercent * THIRD_PLACE_PRIZE_PERCENT;\n    }\n    else if (msg.sender == _fourthPlace) {\n      awardBalance = balancePercent * FOURTH_PLACE_PRIZE_PERCENT;\n    }\n    else if (msg.sender == _fifthPlace) {\n      awardBalance = balancePercent * FIFTH_PLACE_PRIZE_PERCENT;\n    }\n\n    require(awardBalance > 0, \"You didn't place\");\n\n    uint256 poolBalance = _token.balanceOf(address(this));\n\n    if (poolBalance >= awardBalance) {\n      _token.safeTransfer(msg.sender, awardBalance);\n    }\n    else {\n      _token.safeTransfer(msg.sender, poolBalance);\n    }\n\n    claimed[msg.sender] = true;\n  }\n}\n",
  "sourcePath": "/home/mike/projects/game-of-thrones-death-pool/contracts/GOTDeathPool.sol",
  "compiler": {
    "name": "solc",
    "version": "0.5.5+commit.47a71e8f.Emscripten.clang"
  },
  "schemaVersion": "3.0.2",
  "updatedAt": "2019-04-13T22:23:07.850Z",
  "devdoc": {
    "methods": {
      "isOwner()": {
        "return": "true if `msg.sender` is the owner of the contract."
      },
      "owner()": {
        "return": "the address of the owner."
      },
      "renounceOwnership()": {
        "details": "Allows the current owner to relinquish control of the contract. It will not be possible to call the functions with the `onlyOwner` modifier anymore."
      },
      "transferOwnership(address)": {
        "details": "Allows the current owner to transfer control of the contract to a newOwner.",
        "params": {
          "newOwner": "The address to transfer ownership to."
        }
      }
    }
  },
  "userdoc": {
    "methods": {
      "renounceOwnership()": {
        "notice": "Renouncing ownership will leave the contract without an owner, thereby removing any functionality that is only available to the owner."
      }
    }
  }
}